{
  "_format": "hh-sol-artifact-1",
  "contractName": "Users",
  "sourceName": "contracts/users.sol",
  "abi": [
    {
      "inputs": [],
      "stateMutability": "nonpayable",
      "type": "constructor"
    },
    {
      "anonymous": false,
      "inputs": [
        {
          "indexed": false,
          "internalType": "address",
          "name": "addr",
          "type": "address"
        },
        {
          "indexed": false,
          "internalType": "uint256",
          "name": "amount",
          "type": "uint256"
        }
      ],
      "name": "Burn",
      "type": "event"
    },
    {
      "anonymous": false,
      "inputs": [
        {
          "indexed": false,
          "internalType": "address",
          "name": "addr",
          "type": "address"
        },
        {
          "indexed": false,
          "internalType": "uint256",
          "name": "amount",
          "type": "uint256"
        }
      ],
      "name": "Deposit",
      "type": "event"
    },
    {
      "anonymous": false,
      "inputs": [
        {
          "indexed": false,
          "internalType": "string",
          "name": "name",
          "type": "string"
        },
        {
          "indexed": false,
          "internalType": "address",
          "name": "addr",
          "type": "address"
        }
      ],
      "name": "UserCreated",
      "type": "event"
    },
    {
      "anonymous": false,
      "inputs": [
        {
          "indexed": false,
          "internalType": "address",
          "name": "addr",
          "type": "address"
        }
      ],
      "name": "UserDeleted",
      "type": "event"
    },
    {
      "inputs": [
        {
          "internalType": "uint256",
          "name": "amount",
          "type": "uint256"
        }
      ],
      "name": "burn",
      "outputs": [],
      "stateMutability": "nonpayable",
      "type": "function"
    },
    {
      "inputs": [
        {
          "internalType": "string",
          "name": "name",
          "type": "string"
        }
      ],
      "name": "createUser",
      "outputs": [],
      "stateMutability": "nonpayable",
      "type": "function"
    },
    {
      "inputs": [],
      "name": "deleteUser",
      "outputs": [],
      "stateMutability": "nonpayable",
      "type": "function"
    },
    {
      "inputs": [
        {
          "internalType": "address",
          "name": "who",
          "type": "address"
        }
      ],
      "name": "getBalance",
      "outputs": [
        {
          "internalType": "uint256",
          "name": "",
          "type": "uint256"
        }
      ],
      "stateMutability": "view",
      "type": "function"
    },
    {
      "inputs": [],
      "name": "getContractBalance",
      "outputs": [
        {
          "internalType": "uint256",
          "name": "",
          "type": "uint256"
        }
      ],
      "stateMutability": "view",
      "type": "function"
    },
    {
      "inputs": [
        {
          "internalType": "address",
          "name": "who",
          "type": "address"
        }
      ],
      "name": "getUsername",
      "outputs": [
        {
          "internalType": "string",
          "name": "",
          "type": "string"
        }
      ],
      "stateMutability": "view",
      "type": "function"
    },
    {
      "inputs": [
        {
          "internalType": "address[]",
          "name": "who",
          "type": "address[]"
        }
      ],
      "name": "getUsernames",
      "outputs": [
        {
          "internalType": "string[]",
          "name": "",
          "type": "string[]"
        }
      ],
      "stateMutability": "view",
      "type": "function"
    },
    {
      "inputs": [],
      "name": "isUser",
      "outputs": [
        {
          "internalType": "bool",
          "name": "",
          "type": "bool"
        }
      ],
      "stateMutability": "view",
      "type": "function"
    },
    {
      "inputs": [],
      "name": "mint",
      "outputs": [],
      "stateMutability": "payable",
      "type": "function"
    }
  ],
  "bytecode": "0x608060405234801561001057600080fd5b50336000806101000a81548173ffffffffffffffffffffffffffffffffffffffff021916908373ffffffffffffffffffffffffffffffffffffffff1602179055506000600381905550611f6f806100686000396000f3fe6080604052600436106100865760003560e01c8063507ffba511610059578063507ffba5146101005780636f9fb98a14610129578063ce43c03214610154578063f5ab196e14610191578063f8b2cb4f146101ce57610086565b8063026ff05e1461008b5780631249c58b146100a257806342966c68146100ac5780634c22c119146100d5575b600080fd5b34801561009757600080fd5b506100a061020b565b005b6100aa61061f565b005b3480156100b857600080fd5b506100d360048036038101906100ce9190611528565b61078c565b005b3480156100e157600080fd5b506100ea610a2f565b6040516100f79190611852565b60405180910390f35b34801561010c57600080fd5b50610127600480360381019061012291906114e7565b610a97565b005b34801561013557600080fd5b5061013e610cad565b60405161014b91906119df565b60405180910390f35b34801561016057600080fd5b5061017b6004803603810190610176919061147d565b610d44565b604051610188919061186d565b60405180910390f35b34801561019d57600080fd5b506101b860048036038101906101b391906114a6565b610ea7565b6040516101c59190611830565b60405180910390f35b3480156101da57600080fd5b506101f560048036038101906101f0919061147d565b611169565b60405161020291906119df565b60405180910390f35b60011515600160003373ffffffffffffffffffffffffffffffffffffffff1673ffffffffffffffffffffffffffffffffffffffff16815260200190815260200160002060050160009054906101000a900460ff161515146102a1576040517f08c379a00000000000000000000000000000000000000000000000000000000081526004016102989061199f565b60405180910390fd5b6000600160003373ffffffffffffffffffffffffffffffffffffffff1673ffffffffffffffffffffffffffffffffffffffff1681526020019081526020016000206002015411156103df576000803373ffffffffffffffffffffffffffffffffffffffff16600160003373ffffffffffffffffffffffffffffffffffffffff1673ffffffffffffffffffffffffffffffffffffffff16815260200190815260200160002060020154604051610355906117d7565b60006040518083038185875af1925050503d8060008114610392576040519150601f19603f3d011682016040523d82523d6000602084013e610397565b606091505b5091509150816103dc576040517f08c379a00000000000000000000000000000000000000000000000000000000081526004016103d39061191f565b60405180910390fd5b50505b6000600160003373ffffffffffffffffffffffffffffffffffffffff1673ffffffffffffffffffffffffffffffffffffffff168152602001908152602001600020905060008160050160006101000a81548160ff02191690831515021790555060008160000160006101000a81548173ffffffffffffffffffffffffffffffffffffffff021916908373ffffffffffffffffffffffffffffffffffffffff16021790555060008160020181905550604051806020016040528060008152508160010190805190602001906104b49291906112b2565b5060005b3373ffffffffffffffffffffffffffffffffffffffff1660028281548110610509577f4e487b7100000000000000000000000000000000000000000000000000000000600052603260045260246000fd5b9060005260206000200160009054906101000a900473ffffffffffffffffffffffffffffffffffffffff1673ffffffffffffffffffffffffffffffffffffffff16146105635760018161055c9190611aed565b90506104b8565b6002818154811061059d577f4e487b7100000000000000000000000000000000000000000000000000000000600052603260045260246000fd5b9060005260206000200160006101000a81549073ffffffffffffffffffffffffffffffffffffffff02191690556001600360008282546105dd9190611b43565b925050819055507f4bc56f1321288dfb5b416cb3a7fd188723979f9e866c91d88eccf7fca039d0393360405161061391906117ec565b60405180910390a15050565b60011515600160003373ffffffffffffffffffffffffffffffffffffffff1673ffffffffffffffffffffffffffffffffffffffff16815260200190815260200160002060050160009054906101000a900460ff161515146106b5576040517f08c379a00000000000000000000000000000000000000000000000000000000081526004016106ac9061199f565b60405180910390fd5b600034116106f8576040517f08c379a00000000000000000000000000000000000000000000000000000000081526004016106ef9061193f565b60405180910390fd5b34600160003373ffffffffffffffffffffffffffffffffffffffff1673ffffffffffffffffffffffffffffffffffffffff168152602001908152602001600020600201600082825461074a9190611aed565b925050819055507fe1fffcc4923d04b559f4d29a8bfc6cda04eb5b0d3c460751c2402c5c5cc9109c3334604051610782929190611807565b60405180910390a1565b60011515600160003373ffffffffffffffffffffffffffffffffffffffff1673ffffffffffffffffffffffffffffffffffffffff16815260200190815260200160002060050160009054906101000a900460ff16151514610822576040517f08c379a00000000000000000000000000000000000000000000000000000000081526004016108199061199f565b60405180910390fd5b60008111610865576040517f08c379a000000000000000000000000000000000000000000000000000000000815260040161085c906119bf565b60405180910390fd5b80600160003373ffffffffffffffffffffffffffffffffffffffff1673ffffffffffffffffffffffffffffffffffffffff1681526020019081526020016000206002015410156108ea576040517f08c379a00000000000000000000000000000000000000000000000000000000081526004016108e19061197f565b60405180910390fd5b6000803373ffffffffffffffffffffffffffffffffffffffff1683604051610911906117d7565b60006040518083038185875af1925050503d806000811461094e576040519150601f19603f3d011682016040523d82523d6000602084013e610953565b606091505b509150915081610998576040517f08c379a000000000000000000000000000000000000000000000000000000000815260040161098f9061191f565b60405180910390fd5b82600160003373ffffffffffffffffffffffffffffffffffffffff1673ffffffffffffffffffffffffffffffffffffffff16815260200190815260200160002060020160008282546109ea9190611b43565b925050819055507fcc16f5dbb4873280815c1ee09dbd06736cffcc184412cf7a71a0fdb75d397ca53384604051610a22929190611807565b60405180910390a1505050565b6000600160003373ffffffffffffffffffffffffffffffffffffffff1673ffffffffffffffffffffffffffffffffffffffff16815260200190815260200160002060050160009054906101000a900460ff1615610a8f5760019050610a94565b600090505b90565b60001515600160003373ffffffffffffffffffffffffffffffffffffffff1673ffffffffffffffffffffffffffffffffffffffff16815260200190815260200160002060050160009054906101000a900460ff16151514610b2d576040517f08c379a0000000000000000000000000000000000000000000000000000000008152600401610b24906118bf565b60405180910390fd5b6000600160003373ffffffffffffffffffffffffffffffffffffffff1673ffffffffffffffffffffffffffffffffffffffff168152602001908152602001600020905060018160050160006101000a81548160ff021916908315150217905550338160000160006101000a81548173ffffffffffffffffffffffffffffffffffffffff021916908373ffffffffffffffffffffffffffffffffffffffff1602179055506000816002018190555081816001019080519060200190610bf29291906112b2565b506002339080600181540180825580915050600190039060005260206000200160009091909190916101000a81548173ffffffffffffffffffffffffffffffffffffffff021916908373ffffffffffffffffffffffffffffffffffffffff160217905550600160036000828254610c699190611aed565b925050819055507f673b132bfab7898651385299bf51a81f5d71d70c785d2c713bce0b05613b95188233604051610ca192919061188f565b60405180910390a15050565b60008060009054906101000a900473ffffffffffffffffffffffffffffffffffffffff1673ffffffffffffffffffffffffffffffffffffffff163373ffffffffffffffffffffffffffffffffffffffff1614610d3e576040517f08c379a0000000000000000000000000000000000000000000000000000000008152600401610d35906118df565b60405180910390fd5b47905090565b6060600160008373ffffffffffffffffffffffffffffffffffffffff1673ffffffffffffffffffffffffffffffffffffffff16815260200190815260200160002060050160009054906101000a900460ff16610dd5576040517f08c379a0000000000000000000000000000000000000000000000000000000008152600401610dcc906118ff565b60405180910390fd5b600160008373ffffffffffffffffffffffffffffffffffffffff1673ffffffffffffffffffffffffffffffffffffffff1681526020019081526020016000206001018054610e2290611c01565b80601f0160208091040260200160405190810160405280929190818152602001828054610e4e90611c01565b8015610e9b5780601f10610e7057610100808354040283529160200191610e9b565b820191906000526020600020905b815481529060010190602001808311610e7e57829003601f168201915b50505050509050919050565b60606000825167ffffffffffffffff811115610eec577f4e487b7100000000000000000000000000000000000000000000000000000000600052604160045260246000fd5b604051908082528060200260200182016040528015610f1f57816020015b6060815260200190600190039081610f0a5790505b50905060005b835181101561115f5760016000858381518110610f6b577f4e487b7100000000000000000000000000000000000000000000000000000000600052603260045260246000fd5b602002602001015173ffffffffffffffffffffffffffffffffffffffff1673ffffffffffffffffffffffffffffffffffffffff16815260200190815260200160002060050160009054906101000a900460ff16610ffd576040517f08c379a0000000000000000000000000000000000000000000000000000000008152600401610ff4906118ff565b60405180910390fd5b6001600085838151811061103a577f4e487b7100000000000000000000000000000000000000000000000000000000600052603260045260246000fd5b602002602001015173ffffffffffffffffffffffffffffffffffffffff1673ffffffffffffffffffffffffffffffffffffffff168152602001908152602001600020600101805461108a90611c01565b80601f01602080910402602001604051908101604052809291908181526020018280546110b690611c01565b80156111035780601f106110d857610100808354040283529160200191611103565b820191906000526020600020905b8154815290600101906020018083116110e657829003601f168201915b5050505050828281518110611141577f4e487b7100000000000000000000000000000000000000000000000000000000600052603260045260246000fd5b6020026020010181905250808061115790611c64565b915050610f25565b5080915050919050565b6000600160008373ffffffffffffffffffffffffffffffffffffffff1673ffffffffffffffffffffffffffffffffffffffff16815260200190815260200160002060050160009054906101000a900460ff166111fa576040517f08c379a00000000000000000000000000000000000000000000000000000000081526004016111f19061199f565b60405180910390fd5b3373ffffffffffffffffffffffffffffffffffffffff168273ffffffffffffffffffffffffffffffffffffffff1614611268576040517f08c379a000000000000000000000000000000000000000000000000000000000815260040161125f9061195f565b60405180910390fd5b600160008373ffffffffffffffffffffffffffffffffffffffff1673ffffffffffffffffffffffffffffffffffffffff168152602001908152602001600020600201549050919050565b8280546112be90611c01565b90600052602060002090601f0160209004810192826112e05760008555611327565b82601f106112f957805160ff1916838001178555611327565b82800160010185558215611327579182015b8281111561132657825182559160200191906001019061130b565b5b5090506113349190611338565b5090565b5b80821115611351576000816000905550600101611339565b5090565b600061136861136384611a1f565b6119fa565b9050808382526020820190508285602086028201111561138757600080fd5b60005b858110156113b7578161139d88826113ff565b84526020840193506020830192505060018101905061138a565b5050509392505050565b60006113d46113cf84611a4b565b6119fa565b9050828152602081018484840111156113ec57600080fd5b6113f7848285611bbf565b509392505050565b60008135905061140e81611f0b565b92915050565b600082601f83011261142557600080fd5b8135611435848260208601611355565b91505092915050565b600082601f83011261144f57600080fd5b813561145f8482602086016113c1565b91505092915050565b60008135905061147781611f22565b92915050565b60006020828403121561148f57600080fd5b600061149d848285016113ff565b91505092915050565b6000602082840312156114b857600080fd5b600082013567ffffffffffffffff8111156114d257600080fd5b6114de84828501611414565b91505092915050565b6000602082840312156114f957600080fd5b600082013567ffffffffffffffff81111561151357600080fd5b61151f8482850161143e565b91505092915050565b60006020828403121561153a57600080fd5b600061154884828501611468565b91505092915050565b600061155d83836115f8565b905092915050565b61156e81611b77565b82525050565b600061157f82611a8c565b6115898185611aaf565b93508360208202850161159b85611a7c565b8060005b858110156115d757848403895281516115b88582611551565b94506115c383611aa2565b925060208a0199505060018101905061159f565b50829750879550505050505092915050565b6115f281611b89565b82525050565b600061160382611a97565b61160d8185611acb565b935061161d818560208601611bce565b61162681611d3a565b840191505092915050565b600061163c82611a97565b6116468185611adc565b9350611656818560208601611bce565b61165f81611d3a565b840191505092915050565b6000611677602083611adc565b915061168282611d4b565b602082019050919050565b600061169a601583611adc565b91506116a582611d74565b602082019050919050565b60006116bd601983611adc565b91506116c882611d9d565b602082019050919050565b60006116e0601483611adc565b91506116eb82611dc6565b602082019050919050565b6000611703601683611adc565b915061170e82611def565b602082019050919050565b6000611726602d83611adc565b915061173182611e18565b604082019050919050565b6000611749601b83611adc565b915061175482611e67565b602082019050919050565b600061176c601283611adc565b915061177782611e90565b602082019050919050565b600061178f600083611ac0565b915061179a82611eb9565b600082019050919050565b60006117b2602c83611adc565b91506117bd82611ebc565b604082019050919050565b6117d181611bb5565b82525050565b60006117e282611782565b9150819050919050565b60006020820190506118016000830184611565565b92915050565b600060408201905061181c6000830185611565565b61182960208301846117c8565b9392505050565b6000602082019050818103600083015261184a8184611574565b905092915050565b600060208201905061186760008301846115e9565b92915050565b600060208201905081810360008301526118878184611631565b905092915050565b600060408201905081810360008301526118a98185611631565b90506118b86020830184611565565b9392505050565b600060208201905081810360008301526118d88161166a565b9050919050565b600060208201905081810360008301526118f88161168d565b9050919050565b60006020820190508181036000830152611918816116b0565b9050919050565b60006020820190508181036000830152611938816116d3565b9050919050565b60006020820190508181036000830152611958816116f6565b9050919050565b6000602082019050818103600083015261197881611719565b9050919050565b600060208201905081810360008301526119988161173c565b9050919050565b600060208201905081810360008301526119b88161175f565b9050919050565b600060208201905081810360008301526119d8816117a5565b9050919050565b60006020820190506119f460008301846117c8565b92915050565b6000611a04611a15565b9050611a108282611c33565b919050565b6000604051905090565b600067ffffffffffffffff821115611a3a57611a39611d0b565b5b602082029050602081019050919050565b600067ffffffffffffffff821115611a6657611a65611d0b565b5b611a6f82611d3a565b9050602081019050919050565b6000819050602082019050919050565b600081519050919050565b600081519050919050565b6000602082019050919050565b600082825260208201905092915050565b600081905092915050565b600082825260208201905092915050565b600082825260208201905092915050565b6000611af882611bb5565b9150611b0383611bb5565b9250827fffffffffffffffffffffffffffffffffffffffffffffffffffffffffffffffff03821115611b3857611b37611cad565b5b828201905092915050565b6000611b4e82611bb5565b9150611b5983611bb5565b925082821015611b6c57611b6b611cad565b5b828203905092915050565b6000611b8282611b95565b9050919050565b60008115159050919050565b600073ffffffffffffffffffffffffffffffffffffffff82169050919050565b6000819050919050565b82818337600083830152505050565b60005b83811015611bec578082015181840152602081019050611bd1565b83811115611bfb576000848401525b50505050565b60006002820490506001821680611c1957607f821691505b60208210811415611c2d57611c2c611cdc565b5b50919050565b611c3c82611d3a565b810181811067ffffffffffffffff82111715611c5b57611c5a611d0b565b5b80604052505050565b6000611c6f82611bb5565b91507fffffffffffffffffffffffffffffffffffffffffffffffffffffffffffffffff821415611ca257611ca1611cad565b5b600182019050919050565b7f4e487b7100000000000000000000000000000000000000000000000000000000600052601160045260246000fd5b7f4e487b7100000000000000000000000000000000000000000000000000000000600052602260045260246000fd5b7f4e487b7100000000000000000000000000000000000000000000000000000000600052604160045260246000fd5b6000601f19601f8301169050919050565b7f616c726561647920612075736572207769746820746869732061646472657373600082015250565b7f596f7520617265206e6f7420746865206f776e65720000000000000000000000600082015250565b7f4e6f207573657220776974682074686973206164647265737300000000000000600082015250565b7f6661696c656420746f2073656e64206574686572000000000000000000000000600082015250565b7f596f75206e65656420746f2073656e6420657468657200000000000000000000600082015250565b7f796f752063616e2774206c6f6f6b206174207468652062616c616e6365206f6660008201527f20736f6d656f6e6520656c736500000000000000000000000000000000000000602082015250565b7f596f7520646f6e2774206861766520656e6f756768206d6f6e65790000000000600082015250565b7f7573657220646f73656e27742065786973740000000000000000000000000000600082015250565b50565b7f596f75206e65656420746f207370656369667920616e20616d6f756e7420677260008201527f6561746572207468656e20300000000000000000000000000000000000000000602082015250565b611f1481611b77565b8114611f1f57600080fd5b50565b611f2b81611bb5565b8114611f3657600080fd5b5056fea2646970667358221220ddc246dd7d344d8cc0fdc7405be52a724504c7a287b9d44a790b3a3962445a0264736f6c63430008040033",
  "linkReferences": {},
  "deployedLinkReferences": {}
}