{
  "_format": "hh-sol-artifact-1",
  "contractName": "Users",
  "sourceName": "contracts/users.sol",
  "abi": [
    {
      "inputs": [],
      "stateMutability": "nonpayable",
      "type": "constructor"
    },
    {
      "anonymous": false,
      "inputs": [
        {
          "indexed": false,
          "internalType": "address",
          "name": "addr",
          "type": "address"
        },
        {
          "indexed": false,
          "internalType": "uint256",
          "name": "amount",
          "type": "uint256"
        }
      ],
      "name": "Burn",
      "type": "event"
    },
    {
      "anonymous": false,
      "inputs": [
        {
          "indexed": false,
          "internalType": "address",
          "name": "addr",
          "type": "address"
        },
        {
          "indexed": false,
          "internalType": "uint256",
          "name": "amount",
          "type": "uint256"
        }
      ],
      "name": "Deposit",
      "type": "event"
    },
    {
      "anonymous": false,
      "inputs": [
        {
          "indexed": false,
          "internalType": "string",
          "name": "name",
          "type": "string"
        },
        {
          "indexed": false,
          "internalType": "address",
          "name": "addr",
          "type": "address"
        }
      ],
      "name": "UserCreated",
      "type": "event"
    },
    {
      "anonymous": false,
      "inputs": [
        {
          "indexed": false,
          "internalType": "address",
          "name": "addr",
          "type": "address"
        }
      ],
      "name": "UserDeleted",
      "type": "event"
    },
    {
      "inputs": [
        {
          "internalType": "uint256",
          "name": "amount",
          "type": "uint256"
        }
      ],
      "name": "burn",
      "outputs": [],
      "stateMutability": "nonpayable",
      "type": "function"
    },
    {
      "inputs": [
        {
          "internalType": "string",
          "name": "name",
          "type": "string"
        }
      ],
      "name": "createUser",
      "outputs": [],
      "stateMutability": "nonpayable",
      "type": "function"
    },
    {
      "inputs": [],
      "name": "deleteUser",
      "outputs": [],
      "stateMutability": "nonpayable",
      "type": "function"
    },
    {
      "inputs": [
        {
          "internalType": "address",
          "name": "who",
          "type": "address"
        }
      ],
      "name": "getBalance",
      "outputs": [
        {
          "internalType": "uint256",
          "name": "",
          "type": "uint256"
        }
      ],
      "stateMutability": "view",
      "type": "function"
    },
    {
      "inputs": [],
      "name": "getContractBalance",
      "outputs": [
        {
          "internalType": "uint256",
          "name": "",
          "type": "uint256"
        }
      ],
      "stateMutability": "view",
      "type": "function"
    },
    {
      "inputs": [],
      "name": "getUsers",
      "outputs": [
        {
          "components": [
            {
              "internalType": "address",
              "name": "addr",
              "type": "address"
            },
            {
              "internalType": "string",
              "name": "name",
              "type": "string"
            },
            {
              "internalType": "uint256",
              "name": "balance",
              "type": "uint256"
            },
            {
              "internalType": "uint256[]",
              "name": "posts",
              "type": "uint256[]"
            },
            {
              "internalType": "bool",
              "name": "active",
              "type": "bool"
            }
          ],
          "internalType": "struct Users.singleUser[]",
          "name": "",
          "type": "tuple[]"
        }
      ],
      "stateMutability": "view",
      "type": "function"
    },
    {
      "inputs": [],
      "name": "isUser",
      "outputs": [
        {
          "internalType": "bool",
          "name": "",
          "type": "bool"
        }
      ],
      "stateMutability": "view",
      "type": "function"
    },
    {
      "inputs": [],
      "name": "mint",
      "outputs": [],
      "stateMutability": "payable",
      "type": "function"
    }
  ],
  "bytecode": "0x608060405234801561001057600080fd5b50336000806101000a81548173ffffffffffffffffffffffffffffffffffffffff021916908373ffffffffffffffffffffffffffffffffffffffff160217905550600060038190555061206e806100686000396000f3fe60806040526004361061007a5760003560e01c80634c22c1191161004e5780634c22c119146100f4578063507ffba51461011f5780636f9fb98a14610148578063f8b2cb4f146101735761007a565b8062ce8e3e1461007f578063026ff05e146100aa5780631249c58b146100c157806342966c68146100cb575b600080fd5b34801561008b57600080fd5b506100946101b0565b6040516100a1919061198d565b60405180910390f35b3480156100b657600080fd5b506100bf6105ff565b005b6100c9610a7d565b005b3480156100d757600080fd5b506100f260048036038101906100ed9190611588565b610bea565b005b34801561010057600080fd5b50610109610e8d565b60405161011691906119af565b60405180910390f35b34801561012b57600080fd5b5061014660048036038101906101419190611547565b610ef5565b005b34801561015457600080fd5b5061015d611175565b60405161016a9190611afa565b60405180910390f35b34801561017f57600080fd5b5061019a6004803603810190610195919061151e565b61120c565b6040516101a79190611afa565b60405180910390f35b606060008054906101000a900473ffffffffffffffffffffffffffffffffffffffff1673ffffffffffffffffffffffffffffffffffffffff163373ffffffffffffffffffffffffffffffffffffffff1614610240576040517f08c379a000000000000000000000000000000000000000000000000000000000815260040161023790611a1a565b60405180910390fd5b600060028054905067ffffffffffffffff811115610287577f4e487b7100000000000000000000000000000000000000000000000000000000600052604160045260246000fd5b6040519080825280602002602001820160405280156102c057816020015b6102ad611355565b8152602001906001900390816102a55790505b50905060005b6002805490508110156105f7576001600060028381548110610311577f4e487b7100000000000000000000000000000000000000000000000000000000600052603260045260246000fd5b9060005260206000200160009054906101000a900473ffffffffffffffffffffffffffffffffffffffff1673ffffffffffffffffffffffffffffffffffffffff1673ffffffffffffffffffffffffffffffffffffffff16815260200190815260200160002060040160009054906101000a900460ff16156105e45760016000600283815481106103ca577f4e487b7100000000000000000000000000000000000000000000000000000000600052603260045260246000fd5b9060005260206000200160009054906101000a900473ffffffffffffffffffffffffffffffffffffffff1673ffffffffffffffffffffffffffffffffffffffff1673ffffffffffffffffffffffffffffffffffffffff1681526020019081526020016000206040518060a00160405290816000820160009054906101000a900473ffffffffffffffffffffffffffffffffffffffff1673ffffffffffffffffffffffffffffffffffffffff1673ffffffffffffffffffffffffffffffffffffffff1681526020016001820180546104a090611d29565b80601f01602080910402602001604051908101604052809291908181526020018280546104cc90611d29565b80156105195780601f106104ee57610100808354040283529160200191610519565b820191906000526020600020905b8154815290600101906020018083116104fc57829003601f168201915b50505050508152602001600282015481526020016003820180548060200260200160405190810160405280929190818152602001828054801561057b57602002820191906000526020600020905b815481526020019060010190808311610567575b505050505081526020016004820160009054906101000a900460ff1615151515815250508282815181106105d8577f4e487b7100000000000000000000000000000000000000000000000000000000600052603260045260246000fd5b60200260200101819052505b80806105ef90611d8c565b9150506102c6565b508091505090565b60011515600160003373ffffffffffffffffffffffffffffffffffffffff1673ffffffffffffffffffffffffffffffffffffffff16815260200190815260200160002060040160009054906101000a900460ff16151514610695576040517f08c379a000000000000000000000000000000000000000000000000000000000815260040161068c90611aba565b60405180910390fd5b6000600160003373ffffffffffffffffffffffffffffffffffffffff1673ffffffffffffffffffffffffffffffffffffffff1681526020019081526020016000206002015411156107d3576000803373ffffffffffffffffffffffffffffffffffffffff16600160003373ffffffffffffffffffffffffffffffffffffffff1673ffffffffffffffffffffffffffffffffffffffff1681526020019081526020016000206002015460405161074990611934565b60006040518083038185875af1925050503d8060008114610786576040519150601f19603f3d011682016040523d82523d6000602084013e61078b565b606091505b5091509150816107d0576040517f08c379a00000000000000000000000000000000000000000000000000000000081526004016107c790611a3a565b60405180910390fd5b50505b60606040518060a00160405280600073ffffffffffffffffffffffffffffffffffffffff1681526020016040518060200160405280600081525081526020016000815260200182815260200160001515815250600160003373ffffffffffffffffffffffffffffffffffffffff1673ffffffffffffffffffffffffffffffffffffffff16815260200190815260200160002060008201518160000160006101000a81548173ffffffffffffffffffffffffffffffffffffffff021916908373ffffffffffffffffffffffffffffffffffffffff16021790555060208201518160010190805190602001906108c892919061139c565b506040820151816002015560608201518160030190805190602001906108ef929190611422565b5060808201518160040160006101000a81548160ff02191690831515021790555090505060005b3373ffffffffffffffffffffffffffffffffffffffff1660028281548110610967577f4e487b7100000000000000000000000000000000000000000000000000000000600052603260045260246000fd5b9060005260206000200160009054906101000a900473ffffffffffffffffffffffffffffffffffffffff1673ffffffffffffffffffffffffffffffffffffffff16146109c1576001816109ba9190611c15565b9050610916565b600281815481106109fb577f4e487b7100000000000000000000000000000000000000000000000000000000600052603260045260246000fd5b9060005260206000200160006101000a81549073ffffffffffffffffffffffffffffffffffffffff0219169055600160036000828254610a3b9190611c6b565b925050819055507f4bc56f1321288dfb5b416cb3a7fd188723979f9e866c91d88eccf7fca039d03933604051610a719190611949565b60405180910390a15050565b60011515600160003373ffffffffffffffffffffffffffffffffffffffff1673ffffffffffffffffffffffffffffffffffffffff16815260200190815260200160002060040160009054906101000a900460ff16151514610b13576040517f08c379a0000000000000000000000000000000000000000000000000000000008152600401610b0a90611aba565b60405180910390fd5b60003411610b56576040517f08c379a0000000000000000000000000000000000000000000000000000000008152600401610b4d90611a5a565b60405180910390fd5b34600160003373ffffffffffffffffffffffffffffffffffffffff1673ffffffffffffffffffffffffffffffffffffffff1681526020019081526020016000206002016000828254610ba89190611c15565b925050819055507fe1fffcc4923d04b559f4d29a8bfc6cda04eb5b0d3c460751c2402c5c5cc9109c3334604051610be0929190611964565b60405180910390a1565b60011515600160003373ffffffffffffffffffffffffffffffffffffffff1673ffffffffffffffffffffffffffffffffffffffff16815260200190815260200160002060040160009054906101000a900460ff16151514610c80576040517f08c379a0000000000000000000000000000000000000000000000000000000008152600401610c7790611aba565b60405180910390fd5b60008111610cc3576040517f08c379a0000000000000000000000000000000000000000000000000000000008152600401610cba90611ada565b60405180910390fd5b80600160003373ffffffffffffffffffffffffffffffffffffffff1673ffffffffffffffffffffffffffffffffffffffff168152602001908152602001600020600201541015610d48576040517f08c379a0000000000000000000000000000000000000000000000000000000008152600401610d3f90611a9a565b60405180910390fd5b6000803373ffffffffffffffffffffffffffffffffffffffff1683604051610d6f90611934565b60006040518083038185875af1925050503d8060008114610dac576040519150601f19603f3d011682016040523d82523d6000602084013e610db1565b606091505b509150915081610df6576040517f08c379a0000000000000000000000000000000000000000000000000000000008152600401610ded90611a3a565b60405180910390fd5b82600160003373ffffffffffffffffffffffffffffffffffffffff1673ffffffffffffffffffffffffffffffffffffffff1681526020019081526020016000206002016000828254610e489190611c6b565b925050819055507fcc16f5dbb4873280815c1ee09dbd06736cffcc184412cf7a71a0fdb75d397ca53384604051610e80929190611964565b60405180910390a1505050565b6000600160003373ffffffffffffffffffffffffffffffffffffffff1673ffffffffffffffffffffffffffffffffffffffff16815260200190815260200160002060040160009054906101000a900460ff1615610eed5760019050610ef2565b600090505b90565b60001515600160003373ffffffffffffffffffffffffffffffffffffffff1673ffffffffffffffffffffffffffffffffffffffff16815260200190815260200160002060040160009054906101000a900460ff16151514610f8b576040517f08c379a0000000000000000000000000000000000000000000000000000000008152600401610f82906119fa565b60405180910390fd5b60606040518060a001604052803373ffffffffffffffffffffffffffffffffffffffff1681526020018381526020016000815260200182815260200160011515815250600160003373ffffffffffffffffffffffffffffffffffffffff1673ffffffffffffffffffffffffffffffffffffffff16815260200190815260200160002060008201518160000160006101000a81548173ffffffffffffffffffffffffffffffffffffffff021916908373ffffffffffffffffffffffffffffffffffffffff160217905550602082015181600101908051906020019061107092919061139c565b50604082015181600201556060820151816003019080519060200190611097929190611422565b5060808201518160040160006101000a81548160ff0219169083151502179055509050506002339080600181540180825580915050600190039060005260206000200160009091909190916101000a81548173ffffffffffffffffffffffffffffffffffffffff021916908373ffffffffffffffffffffffffffffffffffffffff1602179055506001600360008282546111319190611c15565b925050819055507f673b132bfab7898651385299bf51a81f5d71d70c785d2c713bce0b05613b951882336040516111699291906119ca565b60405180910390a15050565b60008060009054906101000a900473ffffffffffffffffffffffffffffffffffffffff1673ffffffffffffffffffffffffffffffffffffffff163373ffffffffffffffffffffffffffffffffffffffff1614611206576040517f08c379a00000000000000000000000000000000000000000000000000000000081526004016111fd90611a1a565b60405180910390fd5b47905090565b6000600160008373ffffffffffffffffffffffffffffffffffffffff1673ffffffffffffffffffffffffffffffffffffffff16815260200190815260200160002060040160009054906101000a900460ff1661129d576040517f08c379a000000000000000000000000000000000000000000000000000000000815260040161129490611aba565b60405180910390fd5b3373ffffffffffffffffffffffffffffffffffffffff168273ffffffffffffffffffffffffffffffffffffffff161461130b576040517f08c379a000000000000000000000000000000000000000000000000000000000815260040161130290611a7a565b60405180910390fd5b600160008373ffffffffffffffffffffffffffffffffffffffff1673ffffffffffffffffffffffffffffffffffffffff168152602001908152602001600020600201549050919050565b6040518060a00160405280600073ffffffffffffffffffffffffffffffffffffffff1681526020016060815260200160008152602001606081526020016000151581525090565b8280546113a890611d29565b90600052602060002090601f0160209004810192826113ca5760008555611411565b82601f106113e357805160ff1916838001178555611411565b82800160010185558215611411579182015b828111156114105782518255916020019190600101906113f5565b5b50905061141e919061146f565b5090565b82805482825590600052602060002090810192821561145e579160200282015b8281111561145d578251825591602001919060010190611442565b5b50905061146b919061146f565b5090565b5b80821115611488576000816000905550600101611470565b5090565b600061149f61149a84611b3a565b611b15565b9050828152602081018484840111156114b757600080fd5b6114c2848285611ce7565b509392505050565b6000813590506114d98161200a565b92915050565b600082601f8301126114f057600080fd5b813561150084826020860161148c565b91505092915050565b60008135905061151881612021565b92915050565b60006020828403121561153057600080fd5b600061153e848285016114ca565b91505092915050565b60006020828403121561155957600080fd5b600082013567ffffffffffffffff81111561157357600080fd5b61157f848285016114df565b91505092915050565b60006020828403121561159a57600080fd5b60006115a884828501611509565b91505092915050565b60006115bd8383611899565b905092915050565b60006115d18383611916565b60208301905092915050565b6115e681611c9f565b82525050565b6115f581611c9f565b82525050565b600061160682611b8b565b6116108185611bc6565b93508360208202850161162285611b6b565b8060005b8581101561165e578484038952815161163f85826115b1565b945061164a83611bac565b925060208a01995050600181019050611626565b50829750879550505050505092915050565b600061167b82611b96565b6116858185611bd7565b935061169083611b7b565b8060005b838110156116c15781516116a888826115c5565b97506116b383611bb9565b925050600181019050611694565b5085935050505092915050565b6116d781611cb1565b82525050565b6116e681611cb1565b82525050565b60006116f782611ba1565b6117018185611bf3565b9350611711818560208601611cf6565b61171a81611e62565b840191505092915050565b600061173082611ba1565b61173a8185611c04565b935061174a818560208601611cf6565b61175381611e62565b840191505092915050565b600061176b602083611c04565b915061177682611e73565b602082019050919050565b600061178e601583611c04565b915061179982611e9c565b602082019050919050565b60006117b1601483611c04565b91506117bc82611ec5565b602082019050919050565b60006117d4601683611c04565b91506117df82611eee565b602082019050919050565b60006117f7602d83611c04565b915061180282611f17565b604082019050919050565b600061181a601b83611c04565b915061182582611f66565b602082019050919050565b600061183d601283611c04565b915061184882611f8f565b602082019050919050565b6000611860600083611be8565b915061186b82611fb8565b600082019050919050565b6000611883602c83611c04565b915061188e82611fbb565b604082019050919050565b600060a0830160008301516118b160008601826115dd565b50602083015184820360208601526118c982826116ec565b91505060408301516118de6040860182611916565b50606083015184820360608601526118f68282611670565b915050608083015161190b60808601826116ce565b508091505092915050565b61191f81611cdd565b82525050565b61192e81611cdd565b82525050565b600061193f82611853565b9150819050919050565b600060208201905061195e60008301846115ec565b92915050565b600060408201905061197960008301856115ec565b6119866020830184611925565b9392505050565b600060208201905081810360008301526119a781846115fb565b905092915050565b60006020820190506119c460008301846116dd565b92915050565b600060408201905081810360008301526119e48185611725565b90506119f360208301846115ec565b9392505050565b60006020820190508181036000830152611a138161175e565b9050919050565b60006020820190508181036000830152611a3381611781565b9050919050565b60006020820190508181036000830152611a53816117a4565b9050919050565b60006020820190508181036000830152611a73816117c7565b9050919050565b60006020820190508181036000830152611a93816117ea565b9050919050565b60006020820190508181036000830152611ab38161180d565b9050919050565b60006020820190508181036000830152611ad381611830565b9050919050565b60006020820190508181036000830152611af381611876565b9050919050565b6000602082019050611b0f6000830184611925565b92915050565b6000611b1f611b30565b9050611b2b8282611d5b565b919050565b6000604051905090565b600067ffffffffffffffff821115611b5557611b54611e33565b5b611b5e82611e62565b9050602081019050919050565b6000819050602082019050919050565b6000819050602082019050919050565b600081519050919050565b600081519050919050565b600081519050919050565b6000602082019050919050565b6000602082019050919050565b600082825260208201905092915050565b600082825260208201905092915050565b600081905092915050565b600082825260208201905092915050565b600082825260208201905092915050565b6000611c2082611cdd565b9150611c2b83611cdd565b9250827fffffffffffffffffffffffffffffffffffffffffffffffffffffffffffffffff03821115611c6057611c5f611dd5565b5b828201905092915050565b6000611c7682611cdd565b9150611c8183611cdd565b925082821015611c9457611c93611dd5565b5b828203905092915050565b6000611caa82611cbd565b9050919050565b60008115159050919050565b600073ffffffffffffffffffffffffffffffffffffffff82169050919050565b6000819050919050565b82818337600083830152505050565b60005b83811015611d14578082015181840152602081019050611cf9565b83811115611d23576000848401525b50505050565b60006002820490506001821680611d4157607f821691505b60208210811415611d5557611d54611e04565b5b50919050565b611d6482611e62565b810181811067ffffffffffffffff82111715611d8357611d82611e33565b5b80604052505050565b6000611d9782611cdd565b91507fffffffffffffffffffffffffffffffffffffffffffffffffffffffffffffffff821415611dca57611dc9611dd5565b5b600182019050919050565b7f4e487b7100000000000000000000000000000000000000000000000000000000600052601160045260246000fd5b7f4e487b7100000000000000000000000000000000000000000000000000000000600052602260045260246000fd5b7f4e487b7100000000000000000000000000000000000000000000000000000000600052604160045260246000fd5b6000601f19601f8301169050919050565b7f616c726561647920612075736572207769746820746869732061646472657373600082015250565b7f596f7520617265206e6f7420746865206f776e65720000000000000000000000600082015250565b7f6661696c656420746f2073656e64206574686572000000000000000000000000600082015250565b7f596f75206e65656420746f2073656e6420657468657200000000000000000000600082015250565b7f796f752063616e2774206c6f6f6b206174207468652062616c616e6365206f6660008201527f20736f6d656f6e6520656c736500000000000000000000000000000000000000602082015250565b7f596f7520646f6e2774206861766520656e6f756768206d6f6e65790000000000600082015250565b7f7573657220646f73656e27742065786973740000000000000000000000000000600082015250565b50565b7f596f75206e65656420746f207370656369667920616e20616d6f756e7420677260008201527f6561746572207468656e20300000000000000000000000000000000000000000602082015250565b61201381611c9f565b811461201e57600080fd5b50565b61202a81611cdd565b811461203557600080fd5b5056fea264697066735822122011fa52dcde983008ce74146eed42c08870f36ad7014e7935d55f333af1b1451c64736f6c63430008040033",
  "linkReferences": {},
  "deployedLinkReferences": {}
}