{
  "_format": "hh-sol-artifact-1",
  "contractName": "Users",
  "sourceName": "contracts/users.sol",
  "abi": [
    {
      "inputs": [],
      "stateMutability": "nonpayable",
      "type": "constructor"
    },
    {
      "anonymous": false,
      "inputs": [
        {
          "indexed": false,
          "internalType": "address",
          "name": "addr",
          "type": "address"
        },
        {
          "indexed": false,
          "internalType": "uint256",
          "name": "amount",
          "type": "uint256"
        }
      ],
      "name": "Burn",
      "type": "event"
    },
    {
      "anonymous": false,
      "inputs": [
        {
          "indexed": false,
          "internalType": "address",
          "name": "addr",
          "type": "address"
        },
        {
          "indexed": false,
          "internalType": "uint256",
          "name": "amount",
          "type": "uint256"
        }
      ],
      "name": "Deposit",
      "type": "event"
    },
    {
      "anonymous": false,
      "inputs": [
        {
          "indexed": false,
          "internalType": "string",
          "name": "name",
          "type": "string"
        },
        {
          "indexed": false,
          "internalType": "address",
          "name": "addr",
          "type": "address"
        }
      ],
      "name": "UserCreated",
      "type": "event"
    },
    {
      "anonymous": false,
      "inputs": [
        {
          "indexed": false,
          "internalType": "address",
          "name": "addr",
          "type": "address"
        }
      ],
      "name": "UserDeleted",
      "type": "event"
    },
    {
      "inputs": [
        {
          "internalType": "uint256",
          "name": "amount",
          "type": "uint256"
        }
      ],
      "name": "burn",
      "outputs": [],
      "stateMutability": "nonpayable",
      "type": "function"
    },
    {
      "inputs": [
        {
          "internalType": "string",
          "name": "name",
          "type": "string"
        }
      ],
      "name": "createUser",
      "outputs": [],
      "stateMutability": "nonpayable",
      "type": "function"
    },
    {
      "inputs": [],
      "name": "deleteUser",
      "outputs": [],
      "stateMutability": "nonpayable",
      "type": "function"
    },
    {
      "inputs": [
        {
          "internalType": "address",
          "name": "who",
          "type": "address"
        }
      ],
      "name": "getBalance",
      "outputs": [
        {
          "internalType": "uint256",
          "name": "",
          "type": "uint256"
        }
      ],
      "stateMutability": "view",
      "type": "function"
    },
    {
      "inputs": [],
      "name": "getContractBalance",
      "outputs": [
        {
          "internalType": "uint256",
          "name": "",
          "type": "uint256"
        }
      ],
      "stateMutability": "view",
      "type": "function"
    },
    {
      "inputs": [],
      "name": "getUsername",
      "outputs": [
        {
          "internalType": "string",
          "name": "",
          "type": "string"
        }
      ],
      "stateMutability": "view",
      "type": "function"
    },
    {
      "inputs": [],
      "name": "getUsers",
      "outputs": [
        {
          "components": [
            {
              "internalType": "address",
              "name": "addr",
              "type": "address"
            },
            {
              "internalType": "string",
              "name": "name",
              "type": "string"
            },
            {
              "internalType": "uint256",
              "name": "balance",
              "type": "uint256"
            },
            {
              "internalType": "uint256[]",
              "name": "posts",
              "type": "uint256[]"
            },
            {
              "internalType": "bool",
              "name": "active",
              "type": "bool"
            }
          ],
          "internalType": "struct Users.singleUser[]",
          "name": "",
          "type": "tuple[]"
        }
      ],
      "stateMutability": "view",
      "type": "function"
    },
    {
      "inputs": [],
      "name": "isUser",
      "outputs": [
        {
          "internalType": "bool",
          "name": "",
          "type": "bool"
        }
      ],
      "stateMutability": "view",
      "type": "function"
    },
    {
      "inputs": [],
      "name": "mint",
      "outputs": [],
      "stateMutability": "payable",
      "type": "function"
    }
  ],
  "bytecode": "0x608060405234801561001057600080fd5b50336000806101000a81548173ffffffffffffffffffffffffffffffffffffffff021916908373ffffffffffffffffffffffffffffffffffffffff160217905550600060038190555061222e806100686000396000f3fe6080604052600436106100855760003560e01c80634c22c119116100595780634c22c119146100ff578063507ffba51461012a578063681f3e6d146101535780636f9fb98a1461017e578063f8b2cb4f146101a957610085565b8062ce8e3e1461008a578063026ff05e146100b55780631249c58b146100cc57806342966c68146100d6575b600080fd5b34801561009657600080fd5b5061009f6101e6565b6040516100ac9190611b2b565b60405180910390f35b3480156100c157600080fd5b506100ca610635565b005b6100d4610ab3565b005b3480156100e257600080fd5b506100fd60048036038101906100f89190611726565b610c20565b005b34801561010b57600080fd5b50610114610ec3565b6040516101219190611b4d565b60405180910390f35b34801561013657600080fd5b50610151600480360381019061014c91906116e5565b610f2b565b005b34801561015f57600080fd5b506101686111ab565b6040516101759190611b68565b60405180910390f35b34801561018a57600080fd5b50610193611313565b6040516101a09190611cba565b60405180910390f35b3480156101b557600080fd5b506101d060048036038101906101cb91906116bc565b6113aa565b6040516101dd9190611cba565b60405180910390f35b606060008054906101000a900473ffffffffffffffffffffffffffffffffffffffff1673ffffffffffffffffffffffffffffffffffffffff163373ffffffffffffffffffffffffffffffffffffffff1614610276576040517f08c379a000000000000000000000000000000000000000000000000000000000815260040161026d90611bda565b60405180910390fd5b600060028054905067ffffffffffffffff8111156102bd577f4e487b7100000000000000000000000000000000000000000000000000000000600052604160045260246000fd5b6040519080825280602002602001820160405280156102f657816020015b6102e36114f3565b8152602001906001900390816102db5790505b50905060005b60028054905081101561062d576001600060028381548110610347577f4e487b7100000000000000000000000000000000000000000000000000000000600052603260045260246000fd5b9060005260206000200160009054906101000a900473ffffffffffffffffffffffffffffffffffffffff1673ffffffffffffffffffffffffffffffffffffffff1673ffffffffffffffffffffffffffffffffffffffff16815260200190815260200160002060040160009054906101000a900460ff161561061a576001600060028381548110610400577f4e487b7100000000000000000000000000000000000000000000000000000000600052603260045260246000fd5b9060005260206000200160009054906101000a900473ffffffffffffffffffffffffffffffffffffffff1673ffffffffffffffffffffffffffffffffffffffff1673ffffffffffffffffffffffffffffffffffffffff1681526020019081526020016000206040518060a00160405290816000820160009054906101000a900473ffffffffffffffffffffffffffffffffffffffff1673ffffffffffffffffffffffffffffffffffffffff1673ffffffffffffffffffffffffffffffffffffffff1681526020016001820180546104d690611ee9565b80601f016020809104026020016040519081016040528092919081815260200182805461050290611ee9565b801561054f5780601f106105245761010080835404028352916020019161054f565b820191906000526020600020905b81548152906001019060200180831161053257829003601f168201915b5050505050815260200160028201548152602001600382018054806020026020016040519081016040528092919081815260200182805480156105b157602002820191906000526020600020905b81548152602001906001019080831161059d575b505050505081526020016004820160009054906101000a900460ff16151515158152505082828151811061060e577f4e487b7100000000000000000000000000000000000000000000000000000000600052603260045260246000fd5b60200260200101819052505b808061062590611f4c565b9150506102fc565b508091505090565b60011515600160003373ffffffffffffffffffffffffffffffffffffffff1673ffffffffffffffffffffffffffffffffffffffff16815260200190815260200160002060040160009054906101000a900460ff161515146106cb576040517f08c379a00000000000000000000000000000000000000000000000000000000081526004016106c290611c7a565b60405180910390fd5b6000600160003373ffffffffffffffffffffffffffffffffffffffff1673ffffffffffffffffffffffffffffffffffffffff168152602001908152602001600020600201541115610809576000803373ffffffffffffffffffffffffffffffffffffffff16600160003373ffffffffffffffffffffffffffffffffffffffff1673ffffffffffffffffffffffffffffffffffffffff1681526020019081526020016000206002015460405161077f90611ad2565b60006040518083038185875af1925050503d80600081146107bc576040519150601f19603f3d011682016040523d82523d6000602084013e6107c1565b606091505b509150915081610806576040517f08c379a00000000000000000000000000000000000000000000000000000000081526004016107fd90611bfa565b60405180910390fd5b50505b60606040518060a00160405280600073ffffffffffffffffffffffffffffffffffffffff1681526020016040518060200160405280600081525081526020016000815260200182815260200160001515815250600160003373ffffffffffffffffffffffffffffffffffffffff1673ffffffffffffffffffffffffffffffffffffffff16815260200190815260200160002060008201518160000160006101000a81548173ffffffffffffffffffffffffffffffffffffffff021916908373ffffffffffffffffffffffffffffffffffffffff16021790555060208201518160010190805190602001906108fe92919061153a565b506040820151816002015560608201518160030190805190602001906109259291906115c0565b5060808201518160040160006101000a81548160ff02191690831515021790555090505060005b3373ffffffffffffffffffffffffffffffffffffffff166002828154811061099d577f4e487b7100000000000000000000000000000000000000000000000000000000600052603260045260246000fd5b9060005260206000200160009054906101000a900473ffffffffffffffffffffffffffffffffffffffff1673ffffffffffffffffffffffffffffffffffffffff16146109f7576001816109f09190611dd5565b905061094c565b60028181548110610a31577f4e487b7100000000000000000000000000000000000000000000000000000000600052603260045260246000fd5b9060005260206000200160006101000a81549073ffffffffffffffffffffffffffffffffffffffff0219169055600160036000828254610a719190611e2b565b925050819055507f4bc56f1321288dfb5b416cb3a7fd188723979f9e866c91d88eccf7fca039d03933604051610aa79190611ae7565b60405180910390a15050565b60011515600160003373ffffffffffffffffffffffffffffffffffffffff1673ffffffffffffffffffffffffffffffffffffffff16815260200190815260200160002060040160009054906101000a900460ff16151514610b49576040517f08c379a0000000000000000000000000000000000000000000000000000000008152600401610b4090611c7a565b60405180910390fd5b60003411610b8c576040517f08c379a0000000000000000000000000000000000000000000000000000000008152600401610b8390611c1a565b60405180910390fd5b34600160003373ffffffffffffffffffffffffffffffffffffffff1673ffffffffffffffffffffffffffffffffffffffff1681526020019081526020016000206002016000828254610bde9190611dd5565b925050819055507fe1fffcc4923d04b559f4d29a8bfc6cda04eb5b0d3c460751c2402c5c5cc9109c3334604051610c16929190611b02565b60405180910390a1565b60011515600160003373ffffffffffffffffffffffffffffffffffffffff1673ffffffffffffffffffffffffffffffffffffffff16815260200190815260200160002060040160009054906101000a900460ff16151514610cb6576040517f08c379a0000000000000000000000000000000000000000000000000000000008152600401610cad90611c7a565b60405180910390fd5b60008111610cf9576040517f08c379a0000000000000000000000000000000000000000000000000000000008152600401610cf090611c9a565b60405180910390fd5b80600160003373ffffffffffffffffffffffffffffffffffffffff1673ffffffffffffffffffffffffffffffffffffffff168152602001908152602001600020600201541015610d7e576040517f08c379a0000000000000000000000000000000000000000000000000000000008152600401610d7590611c5a565b60405180910390fd5b6000803373ffffffffffffffffffffffffffffffffffffffff1683604051610da590611ad2565b60006040518083038185875af1925050503d8060008114610de2576040519150601f19603f3d011682016040523d82523d6000602084013e610de7565b606091505b509150915081610e2c576040517f08c379a0000000000000000000000000000000000000000000000000000000008152600401610e2390611bfa565b60405180910390fd5b82600160003373ffffffffffffffffffffffffffffffffffffffff1673ffffffffffffffffffffffffffffffffffffffff1681526020019081526020016000206002016000828254610e7e9190611e2b565b925050819055507fcc16f5dbb4873280815c1ee09dbd06736cffcc184412cf7a71a0fdb75d397ca53384604051610eb6929190611b02565b60405180910390a1505050565b6000600160003373ffffffffffffffffffffffffffffffffffffffff1673ffffffffffffffffffffffffffffffffffffffff16815260200190815260200160002060040160009054906101000a900460ff1615610f235760019050610f28565b600090505b90565b60001515600160003373ffffffffffffffffffffffffffffffffffffffff1673ffffffffffffffffffffffffffffffffffffffff16815260200190815260200160002060040160009054906101000a900460ff16151514610fc1576040517f08c379a0000000000000000000000000000000000000000000000000000000008152600401610fb890611bba565b60405180910390fd5b60606040518060a001604052803373ffffffffffffffffffffffffffffffffffffffff1681526020018381526020016000815260200182815260200160011515815250600160003373ffffffffffffffffffffffffffffffffffffffff1673ffffffffffffffffffffffffffffffffffffffff16815260200190815260200160002060008201518160000160006101000a81548173ffffffffffffffffffffffffffffffffffffffff021916908373ffffffffffffffffffffffffffffffffffffffff16021790555060208201518160010190805190602001906110a692919061153a565b506040820151816002015560608201518160030190805190602001906110cd9291906115c0565b5060808201518160040160006101000a81548160ff0219169083151502179055509050506002339080600181540180825580915050600190039060005260206000200160009091909190916101000a81548173ffffffffffffffffffffffffffffffffffffffff021916908373ffffffffffffffffffffffffffffffffffffffff1602179055506001600360008282546111679190611dd5565b925050819055507f673b132bfab7898651385299bf51a81f5d71d70c785d2c713bce0b05613b9518823360405161119f929190611b8a565b60405180910390a15050565b606060011515600160003373ffffffffffffffffffffffffffffffffffffffff1673ffffffffffffffffffffffffffffffffffffffff16815260200190815260200160002060040160009054906101000a900460ff16151514611243576040517f08c379a000000000000000000000000000000000000000000000000000000000815260040161123a90611c7a565b60405180910390fd5b600160003373ffffffffffffffffffffffffffffffffffffffff1673ffffffffffffffffffffffffffffffffffffffff168152602001908152602001600020600101805461129090611ee9565b80601f01602080910402602001604051908101604052809291908181526020018280546112bc90611ee9565b80156113095780601f106112de57610100808354040283529160200191611309565b820191906000526020600020905b8154815290600101906020018083116112ec57829003601f168201915b5050505050905090565b60008060009054906101000a900473ffffffffffffffffffffffffffffffffffffffff1673ffffffffffffffffffffffffffffffffffffffff163373ffffffffffffffffffffffffffffffffffffffff16146113a4576040517f08c379a000000000000000000000000000000000000000000000000000000000815260040161139b90611bda565b60405180910390fd5b47905090565b6000600160008373ffffffffffffffffffffffffffffffffffffffff1673ffffffffffffffffffffffffffffffffffffffff16815260200190815260200160002060040160009054906101000a900460ff1661143b576040517f08c379a000000000000000000000000000000000000000000000000000000000815260040161143290611c7a565b60405180910390fd5b3373ffffffffffffffffffffffffffffffffffffffff168273ffffffffffffffffffffffffffffffffffffffff16146114a9576040517f08c379a00000000000000000000000000000000000000000000000000000000081526004016114a090611c3a565b60405180910390fd5b600160008373ffffffffffffffffffffffffffffffffffffffff1673ffffffffffffffffffffffffffffffffffffffff168152602001908152602001600020600201549050919050565b6040518060a00160405280600073ffffffffffffffffffffffffffffffffffffffff1681526020016060815260200160008152602001606081526020016000151581525090565b82805461154690611ee9565b90600052602060002090601f01602090048101928261156857600085556115af565b82601f1061158157805160ff19168380011785556115af565b828001600101855582156115af579182015b828111156115ae578251825591602001919060010190611593565b5b5090506115bc919061160d565b5090565b8280548282559060005260206000209081019282156115fc579160200282015b828111156115fb5782518255916020019190600101906115e0565b5b509050611609919061160d565b5090565b5b8082111561162657600081600090555060010161160e565b5090565b600061163d61163884611cfa565b611cd5565b90508281526020810184848401111561165557600080fd5b611660848285611ea7565b509392505050565b600081359050611677816121ca565b92915050565b600082601f83011261168e57600080fd5b813561169e84826020860161162a565b91505092915050565b6000813590506116b6816121e1565b92915050565b6000602082840312156116ce57600080fd5b60006116dc84828501611668565b91505092915050565b6000602082840312156116f757600080fd5b600082013567ffffffffffffffff81111561171157600080fd5b61171d8482850161167d565b91505092915050565b60006020828403121561173857600080fd5b6000611746848285016116a7565b91505092915050565b600061175b8383611a37565b905092915050565b600061176f8383611ab4565b60208301905092915050565b61178481611e5f565b82525050565b61179381611e5f565b82525050565b60006117a482611d4b565b6117ae8185611d86565b9350836020820285016117c085611d2b565b8060005b858110156117fc57848403895281516117dd858261174f565b94506117e883611d6c565b925060208a019950506001810190506117c4565b50829750879550505050505092915050565b600061181982611d56565b6118238185611d97565b935061182e83611d3b565b8060005b8381101561185f5781516118468882611763565b975061185183611d79565b925050600181019050611832565b5085935050505092915050565b61187581611e71565b82525050565b61188481611e71565b82525050565b600061189582611d61565b61189f8185611db3565b93506118af818560208601611eb6565b6118b881612022565b840191505092915050565b60006118ce82611d61565b6118d88185611dc4565b93506118e8818560208601611eb6565b6118f181612022565b840191505092915050565b6000611909602083611dc4565b915061191482612033565b602082019050919050565b600061192c601583611dc4565b91506119378261205c565b602082019050919050565b600061194f601483611dc4565b915061195a82612085565b602082019050919050565b6000611972601683611dc4565b915061197d826120ae565b602082019050919050565b6000611995602d83611dc4565b91506119a0826120d7565b604082019050919050565b60006119b8601b83611dc4565b91506119c382612126565b602082019050919050565b60006119db601283611dc4565b91506119e68261214f565b602082019050919050565b60006119fe600083611da8565b9150611a0982612178565b600082019050919050565b6000611a21602c83611dc4565b9150611a2c8261217b565b604082019050919050565b600060a083016000830151611a4f600086018261177b565b5060208301518482036020860152611a67828261188a565b9150506040830151611a7c6040860182611ab4565b5060608301518482036060860152611a94828261180e565b9150506080830151611aa9608086018261186c565b508091505092915050565b611abd81611e9d565b82525050565b611acc81611e9d565b82525050565b6000611add826119f1565b9150819050919050565b6000602082019050611afc600083018461178a565b92915050565b6000604082019050611b17600083018561178a565b611b246020830184611ac3565b9392505050565b60006020820190508181036000830152611b458184611799565b905092915050565b6000602082019050611b62600083018461187b565b92915050565b60006020820190508181036000830152611b8281846118c3565b905092915050565b60006040820190508181036000830152611ba481856118c3565b9050611bb3602083018461178a565b9392505050565b60006020820190508181036000830152611bd3816118fc565b9050919050565b60006020820190508181036000830152611bf38161191f565b9050919050565b60006020820190508181036000830152611c1381611942565b9050919050565b60006020820190508181036000830152611c3381611965565b9050919050565b60006020820190508181036000830152611c5381611988565b9050919050565b60006020820190508181036000830152611c73816119ab565b9050919050565b60006020820190508181036000830152611c93816119ce565b9050919050565b60006020820190508181036000830152611cb381611a14565b9050919050565b6000602082019050611ccf6000830184611ac3565b92915050565b6000611cdf611cf0565b9050611ceb8282611f1b565b919050565b6000604051905090565b600067ffffffffffffffff821115611d1557611d14611ff3565b5b611d1e82612022565b9050602081019050919050565b6000819050602082019050919050565b6000819050602082019050919050565b600081519050919050565b600081519050919050565b600081519050919050565b6000602082019050919050565b6000602082019050919050565b600082825260208201905092915050565b600082825260208201905092915050565b600081905092915050565b600082825260208201905092915050565b600082825260208201905092915050565b6000611de082611e9d565b9150611deb83611e9d565b9250827fffffffffffffffffffffffffffffffffffffffffffffffffffffffffffffffff03821115611e2057611e1f611f95565b5b828201905092915050565b6000611e3682611e9d565b9150611e4183611e9d565b925082821015611e5457611e53611f95565b5b828203905092915050565b6000611e6a82611e7d565b9050919050565b60008115159050919050565b600073ffffffffffffffffffffffffffffffffffffffff82169050919050565b6000819050919050565b82818337600083830152505050565b60005b83811015611ed4578082015181840152602081019050611eb9565b83811115611ee3576000848401525b50505050565b60006002820490506001821680611f0157607f821691505b60208210811415611f1557611f14611fc4565b5b50919050565b611f2482612022565b810181811067ffffffffffffffff82111715611f4357611f42611ff3565b5b80604052505050565b6000611f5782611e9d565b91507fffffffffffffffffffffffffffffffffffffffffffffffffffffffffffffffff821415611f8a57611f89611f95565b5b600182019050919050565b7f4e487b7100000000000000000000000000000000000000000000000000000000600052601160045260246000fd5b7f4e487b7100000000000000000000000000000000000000000000000000000000600052602260045260246000fd5b7f4e487b7100000000000000000000000000000000000000000000000000000000600052604160045260246000fd5b6000601f19601f8301169050919050565b7f616c726561647920612075736572207769746820746869732061646472657373600082015250565b7f596f7520617265206e6f7420746865206f776e65720000000000000000000000600082015250565b7f6661696c656420746f2073656e64206574686572000000000000000000000000600082015250565b7f596f75206e65656420746f2073656e6420657468657200000000000000000000600082015250565b7f796f752063616e2774206c6f6f6b206174207468652062616c616e6365206f6660008201527f20736f6d656f6e6520656c736500000000000000000000000000000000000000602082015250565b7f596f7520646f6e2774206861766520656e6f756768206d6f6e65790000000000600082015250565b7f7573657220646f73656e27742065786973740000000000000000000000000000600082015250565b50565b7f596f75206e65656420746f207370656369667920616e20616d6f756e7420677260008201527f6561746572207468656e20300000000000000000000000000000000000000000602082015250565b6121d381611e5f565b81146121de57600080fd5b50565b6121ea81611e9d565b81146121f557600080fd5b5056fea2646970667358221220d592307ba138d7f9add18dcaaf442865129c8645306249010bb120448f819a4964736f6c63430008040033",
  "linkReferences": {},
  "deployedLinkReferences": {}
}