{
  "_format": "hh-sol-artifact-1",
  "contractName": "EthMarket",
  "sourceName": "contracts/ethMarket.sol",
  "abi": [
    {
      "inputs": [],
      "stateMutability": "nonpayable",
      "type": "constructor"
    },
    {
      "anonymous": false,
      "inputs": [
        {
          "indexed": false,
          "internalType": "string",
          "name": "category",
          "type": "string"
        }
      ],
      "name": "AddCategory",
      "type": "event"
    },
    {
      "anonymous": false,
      "inputs": [
        {
          "indexed": false,
          "internalType": "address",
          "name": "addr",
          "type": "address"
        },
        {
          "indexed": false,
          "internalType": "uint256",
          "name": "amount",
          "type": "uint256"
        }
      ],
      "name": "Burn",
      "type": "event"
    },
    {
      "anonymous": false,
      "inputs": [
        {
          "indexed": false,
          "internalType": "address",
          "name": "from",
          "type": "address"
        },
        {
          "indexed": false,
          "internalType": "uint256",
          "name": "id",
          "type": "uint256"
        },
        {
          "indexed": false,
          "internalType": "uint256",
          "name": "postId",
          "type": "uint256"
        },
        {
          "indexed": false,
          "internalType": "uint256",
          "name": "amount",
          "type": "uint256"
        }
      ],
      "name": "CreateBid",
      "type": "event"
    },
    {
      "anonymous": false,
      "inputs": [
        {
          "indexed": false,
          "internalType": "uint256",
          "name": "id",
          "type": "uint256"
        },
        {
          "indexed": false,
          "internalType": "string",
          "name": "name",
          "type": "string"
        },
        {
          "indexed": false,
          "internalType": "string",
          "name": "desc",
          "type": "string"
        },
        {
          "indexed": false,
          "internalType": "string",
          "name": "category",
          "type": "string"
        },
        {
          "indexed": false,
          "internalType": "string",
          "name": "image",
          "type": "string"
        },
        {
          "indexed": false,
          "internalType": "address",
          "name": "owner",
          "type": "address"
        },
        {
          "indexed": false,
          "internalType": "uint256",
          "name": "price",
          "type": "uint256"
        }
      ],
      "name": "CreatePost",
      "type": "event"
    },
    {
      "anonymous": false,
      "inputs": [
        {
          "indexed": false,
          "internalType": "address",
          "name": "addr",
          "type": "address"
        },
        {
          "indexed": false,
          "internalType": "uint256",
          "name": "amount",
          "type": "uint256"
        }
      ],
      "name": "Deposit",
      "type": "event"
    },
    {
      "anonymous": false,
      "inputs": [
        {
          "indexed": false,
          "internalType": "uint256",
          "name": "postId",
          "type": "uint256"
        },
        {
          "indexed": false,
          "internalType": "address",
          "name": "to",
          "type": "address"
        },
        {
          "indexed": false,
          "internalType": "address",
          "name": "from",
          "type": "address"
        },
        {
          "indexed": false,
          "internalType": "uint256",
          "name": "amount",
          "type": "uint256"
        }
      ],
      "name": "Sold",
      "type": "event"
    },
    {
      "anonymous": false,
      "inputs": [
        {
          "indexed": false,
          "internalType": "string",
          "name": "name",
          "type": "string"
        },
        {
          "indexed": false,
          "internalType": "address",
          "name": "addr",
          "type": "address"
        }
      ],
      "name": "UserCreated",
      "type": "event"
    },
    {
      "anonymous": false,
      "inputs": [
        {
          "indexed": false,
          "internalType": "address",
          "name": "addr",
          "type": "address"
        }
      ],
      "name": "UserDeleted",
      "type": "event"
    },
    {
      "inputs": [
        {
          "internalType": "string",
          "name": "category",
          "type": "string"
        }
      ],
      "name": "addCategory",
      "outputs": [],
      "stateMutability": "nonpayable",
      "type": "function"
    },
    {
      "inputs": [
        {
          "internalType": "uint256",
          "name": "postId",
          "type": "uint256"
        },
        {
          "internalType": "uint256",
          "name": "amount",
          "type": "uint256"
        }
      ],
      "name": "bid",
      "outputs": [],
      "stateMutability": "nonpayable",
      "type": "function"
    },
    {
      "inputs": [
        {
          "internalType": "uint256",
          "name": "",
          "type": "uint256"
        },
        {
          "internalType": "uint256",
          "name": "",
          "type": "uint256"
        }
      ],
      "name": "bids",
      "outputs": [
        {
          "internalType": "uint256",
          "name": "id",
          "type": "uint256"
        },
        {
          "internalType": "uint256",
          "name": "postId",
          "type": "uint256"
        },
        {
          "internalType": "address",
          "name": "from",
          "type": "address"
        },
        {
          "internalType": "uint256",
          "name": "amount",
          "type": "uint256"
        },
        {
          "internalType": "uint256",
          "name": "time",
          "type": "uint256"
        }
      ],
      "stateMutability": "view",
      "type": "function"
    },
    {
      "inputs": [
        {
          "internalType": "uint256",
          "name": "amount",
          "type": "uint256"
        }
      ],
      "name": "burn",
      "outputs": [],
      "stateMutability": "nonpayable",
      "type": "function"
    },
    {
      "inputs": [
        {
          "internalType": "string",
          "name": "name",
          "type": "string"
        },
        {
          "internalType": "string",
          "name": "desc",
          "type": "string"
        },
        {
          "internalType": "string",
          "name": "category",
          "type": "string"
        },
        {
          "internalType": "string",
          "name": "image",
          "type": "string"
        },
        {
          "internalType": "uint256",
          "name": "endDate",
          "type": "uint256"
        },
        {
          "internalType": "uint256",
          "name": "price",
          "type": "uint256"
        }
      ],
      "name": "createPost",
      "outputs": [],
      "stateMutability": "nonpayable",
      "type": "function"
    },
    {
      "inputs": [
        {
          "internalType": "string",
          "name": "name",
          "type": "string"
        }
      ],
      "name": "createUser",
      "outputs": [],
      "stateMutability": "nonpayable",
      "type": "function"
    },
    {
      "inputs": [],
      "name": "deleteUser",
      "outputs": [],
      "stateMutability": "nonpayable",
      "type": "function"
    },
    {
      "inputs": [
        {
          "internalType": "address",
          "name": "who",
          "type": "address"
        }
      ],
      "name": "getBalance",
      "outputs": [
        {
          "internalType": "uint256",
          "name": "",
          "type": "uint256"
        }
      ],
      "stateMutability": "view",
      "type": "function"
    },
    {
      "inputs": [
        {
          "internalType": "uint256",
          "name": "postId",
          "type": "uint256"
        }
      ],
      "name": "getBids",
      "outputs": [
        {
          "components": [
            {
              "internalType": "uint256",
              "name": "id",
              "type": "uint256"
            },
            {
              "internalType": "uint256",
              "name": "postId",
              "type": "uint256"
            },
            {
              "internalType": "address",
              "name": "from",
              "type": "address"
            },
            {
              "internalType": "uint256",
              "name": "amount",
              "type": "uint256"
            },
            {
              "internalType": "uint256",
              "name": "time",
              "type": "uint256"
            }
          ],
          "internalType": "struct EthMarket.Bid[]",
          "name": "",
          "type": "tuple[]"
        }
      ],
      "stateMutability": "view",
      "type": "function"
    },
    {
      "inputs": [],
      "name": "getCategories",
      "outputs": [
        {
          "internalType": "string[]",
          "name": "",
          "type": "string[]"
        }
      ],
      "stateMutability": "view",
      "type": "function"
    },
    {
      "inputs": [],
      "name": "getContractBalance",
      "outputs": [
        {
          "internalType": "uint256",
          "name": "",
          "type": "uint256"
        }
      ],
      "stateMutability": "view",
      "type": "function"
    },
    {
      "inputs": [
        {
          "internalType": "uint256",
          "name": "id",
          "type": "uint256"
        }
      ],
      "name": "getPost",
      "outputs": [
        {
          "components": [
            {
              "internalType": "uint256",
              "name": "id",
              "type": "uint256"
            },
            {
              "internalType": "string",
              "name": "name",
              "type": "string"
            },
            {
              "internalType": "string",
              "name": "description",
              "type": "string"
            },
            {
              "internalType": "string",
              "name": "category",
              "type": "string"
            },
            {
              "internalType": "string",
              "name": "imageUrl",
              "type": "string"
            },
            {
              "internalType": "address",
              "name": "owner",
              "type": "address"
            },
            {
              "internalType": "uint256",
              "name": "startDate",
              "type": "uint256"
            },
            {
              "internalType": "uint256",
              "name": "endDate",
              "type": "uint256"
            },
            {
              "internalType": "uint256",
              "name": "price",
              "type": "uint256"
            },
            {
              "internalType": "bool",
              "name": "sold",
              "type": "bool"
            }
          ],
          "internalType": "struct EthMarket.Post",
          "name": "",
          "type": "tuple"
        }
      ],
      "stateMutability": "view",
      "type": "function"
    },
    {
      "inputs": [],
      "name": "getPosts",
      "outputs": [
        {
          "components": [
            {
              "internalType": "uint256",
              "name": "id",
              "type": "uint256"
            },
            {
              "internalType": "string",
              "name": "name",
              "type": "string"
            },
            {
              "internalType": "string",
              "name": "description",
              "type": "string"
            },
            {
              "internalType": "string",
              "name": "category",
              "type": "string"
            },
            {
              "internalType": "string",
              "name": "imageUrl",
              "type": "string"
            },
            {
              "internalType": "address",
              "name": "owner",
              "type": "address"
            },
            {
              "internalType": "uint256",
              "name": "startDate",
              "type": "uint256"
            },
            {
              "internalType": "uint256",
              "name": "endDate",
              "type": "uint256"
            },
            {
              "internalType": "uint256",
              "name": "price",
              "type": "uint256"
            },
            {
              "internalType": "bool",
              "name": "sold",
              "type": "bool"
            }
          ],
          "internalType": "struct EthMarket.Post[]",
          "name": "",
          "type": "tuple[]"
        }
      ],
      "stateMutability": "view",
      "type": "function"
    },
    {
      "inputs": [],
      "name": "getUserBids",
      "outputs": [
        {
          "components": [
            {
              "internalType": "uint256",
              "name": "id",
              "type": "uint256"
            },
            {
              "internalType": "uint256",
              "name": "postId",
              "type": "uint256"
            },
            {
              "internalType": "address",
              "name": "from",
              "type": "address"
            },
            {
              "internalType": "uint256",
              "name": "amount",
              "type": "uint256"
            },
            {
              "internalType": "uint256",
              "name": "time",
              "type": "uint256"
            }
          ],
          "internalType": "struct EthMarket.Bid[]",
          "name": "",
          "type": "tuple[]"
        }
      ],
      "stateMutability": "view",
      "type": "function"
    },
    {
      "inputs": [],
      "name": "getUserPosts",
      "outputs": [
        {
          "components": [
            {
              "internalType": "uint256",
              "name": "id",
              "type": "uint256"
            },
            {
              "internalType": "string",
              "name": "name",
              "type": "string"
            },
            {
              "internalType": "string",
              "name": "description",
              "type": "string"
            },
            {
              "internalType": "string",
              "name": "category",
              "type": "string"
            },
            {
              "internalType": "string",
              "name": "imageUrl",
              "type": "string"
            },
            {
              "internalType": "address",
              "name": "owner",
              "type": "address"
            },
            {
              "internalType": "uint256",
              "name": "startDate",
              "type": "uint256"
            },
            {
              "internalType": "uint256",
              "name": "endDate",
              "type": "uint256"
            },
            {
              "internalType": "uint256",
              "name": "price",
              "type": "uint256"
            },
            {
              "internalType": "bool",
              "name": "sold",
              "type": "bool"
            }
          ],
          "internalType": "struct EthMarket.Post[]",
          "name": "",
          "type": "tuple[]"
        }
      ],
      "stateMutability": "view",
      "type": "function"
    },
    {
      "inputs": [
        {
          "internalType": "address",
          "name": "who",
          "type": "address"
        }
      ],
      "name": "getUsername",
      "outputs": [
        {
          "internalType": "string",
          "name": "",
          "type": "string"
        }
      ],
      "stateMutability": "view",
      "type": "function"
    },
    {
      "inputs": [
        {
          "internalType": "address[]",
          "name": "who",
          "type": "address[]"
        }
      ],
      "name": "getUsernames",
      "outputs": [
        {
          "internalType": "string[]",
          "name": "",
          "type": "string[]"
        }
      ],
      "stateMutability": "view",
      "type": "function"
    },
    {
      "inputs": [],
      "name": "isUser",
      "outputs": [
        {
          "internalType": "bool",
          "name": "",
          "type": "bool"
        }
      ],
      "stateMutability": "view",
      "type": "function"
    },
    {
      "inputs": [],
      "name": "mint",
      "outputs": [],
      "stateMutability": "payable",
      "type": "function"
    },
    {
      "inputs": [
        {
          "internalType": "uint256",
          "name": "",
          "type": "uint256"
        }
      ],
      "name": "posts",
      "outputs": [
        {
          "internalType": "uint256",
          "name": "id",
          "type": "uint256"
        },
        {
          "internalType": "string",
          "name": "name",
          "type": "string"
        },
        {
          "internalType": "string",
          "name": "description",
          "type": "string"
        },
        {
          "internalType": "string",
          "name": "category",
          "type": "string"
        },
        {
          "internalType": "string",
          "name": "imageUrl",
          "type": "string"
        },
        {
          "internalType": "address",
          "name": "owner",
          "type": "address"
        },
        {
          "internalType": "uint256",
          "name": "startDate",
          "type": "uint256"
        },
        {
          "internalType": "uint256",
          "name": "endDate",
          "type": "uint256"
        },
        {
          "internalType": "uint256",
          "name": "price",
          "type": "uint256"
        },
        {
          "internalType": "bool",
          "name": "sold",
          "type": "bool"
        }
      ],
      "stateMutability": "view",
      "type": "function"
    },
    {
      "inputs": [
        {
          "internalType": "uint256",
          "name": "postId",
          "type": "uint256"
        }
      ],
      "name": "sell",
      "outputs": [],
      "stateMutability": "nonpayable",
      "type": "function"
    }
  ],
  "bytecode": "0x60806040526040518060c001604052806040518060400160405280600581526020017f53706f727400000000000000000000000000000000000000000000000000000081525081526020016040518060400160405280600481526020017f546563680000000000000000000000000000000000000000000000000000000081525081526020016040518060400160405280600481526020017f436172730000000000000000000000000000000000000000000000000000000081525081526020016040518060400160405280600781526020017f436c6f746865730000000000000000000000000000000000000000000000000081525081526020016040518060400160405280600a81526020017f4675726e697368696e670000000000000000000000000000000000000000000081525081526020016040518060400160405280600581526020017f4f74686572000000000000000000000000000000000000000000000000000000815250815250600490600662000181929190620001ee565b503480156200018f57600080fd5b50336000806101000a81548173ffffffffffffffffffffffffffffffffffffffff021916908373ffffffffffffffffffffffffffffffffffffffff160217905550600060038190555060006008819055506000600781905550620003d8565b82805482825590600052602060002090810192821562000242579160200282015b82811115620002415782518290805190602001906200023092919062000255565b50916020019190600101906200020f565b5b509050620002519190620002e6565b5090565b828054620002639062000373565b90600052602060002090601f016020900481019282620002875760008555620002d3565b82601f10620002a257805160ff1916838001178555620002d3565b82800160010185558215620002d3579182015b82811115620002d2578251825591602001919060010190620002b5565b5b509050620002e291906200030e565b5090565b5b808211156200030a57600081816200030091906200032d565b50600101620002e7565b5090565b5b80821115620003295760008160009055506001016200030f565b5090565b5080546200033b9062000373565b6000825580601f106200034f575062000370565b601f0160209004906000526020600020908101906200036f91906200030e565b5b50565b600060028204905060018216806200038c57607f821691505b60208210811415620003a357620003a2620003a9565b5b50919050565b7f4e487b7100000000000000000000000000000000000000000000000000000000600052602260045260246000fd5b615c0880620003e86000396000f3fe60806040526004361061012a5760003560e01c80634f17ef81116100ab5780637bc5711e1161006f5780637bc5711e146103cc578063cc4ef2cc146103f5578063ce43c03214610420578063e4849b321461045d578063f5ab196e14610486578063f8b2cb4f146104c35761012a565b80634f17ef81146102e3578063507ffba51461030e578063598647f8146103375780636f9fb98a146103605780637b3c4baa1461038b5761012a565b806340731c24116100f257806340731c24146101fc57806341f3004a1461023957806342966c68146102645780634c22c1191461028d5780634db0412c146102b85761012a565b8063026ff05e1461012f5780630b1e7f83146101465780631249c58b1461018c578063131d9a27146101965780632e0dcbf7146101d3575b600080fd5b34801561013b57600080fd5b50610144610500565b005b34801561015257600080fd5b5061016d6004803603810190610168919061430a565b610914565b6040516101839a99989796959493929190615203565b60405180910390f35b610194610bb5565b005b3480156101a257600080fd5b506101bd60048036038101906101b8919061430a565b610d22565b6040516101ca9190614ce5565b60405180910390f35b3480156101df57600080fd5b506101fa60048036038101906101f591906141e0565b610e57565b005b34801561020857600080fd5b50610223600480360381019061021e919061430a565b610fa4565b60405161023091906150f6565b60405180910390f35b34801561024557600080fd5b5061024e6112f8565b60405161025b9190614d07565b60405180910390f35b34801561027057600080fd5b5061028b6004803603810190610286919061430a565b611727565b005b34801561029957600080fd5b506102a26119ca565b6040516102af9190614d29565b60405180910390f35b3480156102c457600080fd5b506102cd611a32565b6040516102da9190614cc3565b60405180910390f35b3480156102ef57600080fd5b506102f8611b0b565b6040516103059190614ce5565b60405180910390f35b34801561031a57600080fd5b50610335600480360381019061033091906141e0565b611f24565b005b34801561034357600080fd5b5061035e60048036038101906103599190614333565b61213a565b005b34801561036c57600080fd5b506103756127d9565b6040516103829190615118565b60405180910390f35b34801561039757600080fd5b506103b260048036038101906103ad9190614333565b612870565b6040516103c39594939291906152bb565b60405180910390f35b3480156103d857600080fd5b506103f360048036038101906103ee9190614221565b6128e3565b005b34801561040157600080fd5b5061040a612cbf565b6040516104179190614d07565b60405180910390f35b34801561042c57600080fd5b5061044760048036038101906104429190614176565b6131bf565b6040516104549190614d44565b60405180910390f35b34801561046957600080fd5b50610484600480360381019061047f919061430a565b613322565b005b34801561049257600080fd5b506104ad60048036038101906104a8919061419f565b613751565b6040516104ba9190614cc3565b60405180910390f35b3480156104cf57600080fd5b506104ea60048036038101906104e59190614176565b613a13565b6040516104f79190615118565b60405180910390f35b60011515600160003373ffffffffffffffffffffffffffffffffffffffff1673ffffffffffffffffffffffffffffffffffffffff16815260200190815260200160002060050160009054906101000a900460ff16151514610596576040517f08c379a000000000000000000000000000000000000000000000000000000000815260040161058d90615076565b60405180910390fd5b6000600160003373ffffffffffffffffffffffffffffffffffffffff1673ffffffffffffffffffffffffffffffffffffffff1681526020019081526020016000206002015411156106d4576000803373ffffffffffffffffffffffffffffffffffffffff16600160003373ffffffffffffffffffffffffffffffffffffffff1673ffffffffffffffffffffffffffffffffffffffff1681526020019081526020016000206002015460405161064a90614c25565b60006040518083038185875af1925050503d8060008114610687576040519150601f19603f3d011682016040523d82523d6000602084013e61068c565b606091505b5091509150816106d1576040517f08c379a00000000000000000000000000000000000000000000000000000000081526004016106c890614f16565b60405180910390fd5b50505b6000600160003373ffffffffffffffffffffffffffffffffffffffff1673ffffffffffffffffffffffffffffffffffffffff168152602001908152602001600020905060008160050160006101000a81548160ff02191690831515021790555060008160000160006101000a81548173ffffffffffffffffffffffffffffffffffffffff021916908373ffffffffffffffffffffffffffffffffffffffff16021790555060008160020181905550604051806020016040528060008152508160010190805190602001906107a9929190613efb565b5060005b3373ffffffffffffffffffffffffffffffffffffffff16600282815481106107fe577f4e487b7100000000000000000000000000000000000000000000000000000000600052603260045260246000fd5b9060005260206000200160009054906101000a900473ffffffffffffffffffffffffffffffffffffffff1673ffffffffffffffffffffffffffffffffffffffff161461085857600181610851919061547e565b90506107ad565b60028181548110610892577f4e487b7100000000000000000000000000000000000000000000000000000000600052603260045260246000fd5b9060005260206000200160006101000a81549073ffffffffffffffffffffffffffffffffffffffff02191690556001600360008282546108d291906154d4565b925050819055507f4bc56f1321288dfb5b416cb3a7fd188723979f9e866c91d88eccf7fca039d039336040516109089190614c3a565b60405180910390a15050565b600560205280600052604060002060009150905080600001549080600101805461093d90615592565b80601f016020809104026020016040519081016040528092919081815260200182805461096990615592565b80156109b65780601f1061098b576101008083540402835291602001916109b6565b820191906000526020600020905b81548152906001019060200180831161099957829003601f168201915b5050505050908060020180546109cb90615592565b80601f01602080910402602001604051908101604052809291908181526020018280546109f790615592565b8015610a445780601f10610a1957610100808354040283529160200191610a44565b820191906000526020600020905b815481529060010190602001808311610a2757829003601f168201915b505050505090806003018054610a5990615592565b80601f0160208091040260200160405190810160405280929190818152602001828054610a8590615592565b8015610ad25780601f10610aa757610100808354040283529160200191610ad2565b820191906000526020600020905b815481529060010190602001808311610ab557829003601f168201915b505050505090806004018054610ae790615592565b80601f0160208091040260200160405190810160405280929190818152602001828054610b1390615592565b8015610b605780601f10610b3557610100808354040283529160200191610b60565b820191906000526020600020905b815481529060010190602001808311610b4357829003601f168201915b5050505050908060050160009054906101000a900473ffffffffffffffffffffffffffffffffffffffff16908060060154908060070154908060080154908060090160009054906101000a900460ff1690508a565b60011515600160003373ffffffffffffffffffffffffffffffffffffffff1673ffffffffffffffffffffffffffffffffffffffff16815260200190815260200160002060050160009054906101000a900460ff16151514610c4b576040517f08c379a0000000000000000000000000000000000000000000000000000000008152600401610c4290615076565b60405180910390fd5b60003411610c8e576040517f08c379a0000000000000000000000000000000000000000000000000000000008152600401610c8590614fb6565b60405180910390fd5b34600160003373ffffffffffffffffffffffffffffffffffffffff1673ffffffffffffffffffffffffffffffffffffffff1681526020019081526020016000206002016000828254610ce0919061547e565b925050819055507fe1fffcc4923d04b559f4d29a8bfc6cda04eb5b0d3c460751c2402c5c5cc9109c3334604051610d18929190614c55565b60405180910390a1565b6060600754821115610d69576040517f08c379a0000000000000000000000000000000000000000000000000000000008152600401610d6090614e96565b60405180910390fd5b60066000838152602001908152602001600020805480602002602001604051908101604052809291908181526020016000905b82821015610e4c57838290600052602060002090600502016040518060a001604052908160008201548152602001600182015481526020016002820160009054906101000a900473ffffffffffffffffffffffffffffffffffffffff1673ffffffffffffffffffffffffffffffffffffffff1673ffffffffffffffffffffffffffffffffffffffff1681526020016003820154815260200160048201548152505081526020019060010190610d9c565b505050509050919050565b610e6081613b5c565b15610ea0576040517f08c379a0000000000000000000000000000000000000000000000000000000008152600401610e9790614ed6565b60405180910390fd5b60008054906101000a900473ffffffffffffffffffffffffffffffffffffffff1673ffffffffffffffffffffffffffffffffffffffff163373ffffffffffffffffffffffffffffffffffffffff1614610f2e576040517f08c379a0000000000000000000000000000000000000000000000000000000008152600401610f25906150b6565b60405180910390fd5b600481908060018154018082558091505060019003906000526020600020016000909190919091509080519060200190610f69929190613efb565b507f5d184107cf80dc717ee2e108aad943e965417309735e1c460ba42f57a54f2a0d81604051610f999190614d44565b60405180910390a150565b610fac613f81565b600754821115610ff1576040517f08c379a0000000000000000000000000000000000000000000000000000000008152600401610fe890614e96565b60405180910390fd5b60056000838152602001908152602001600020604051806101400160405290816000820154815260200160018201805461102a90615592565b80601f016020809104026020016040519081016040528092919081815260200182805461105690615592565b80156110a35780601f10611078576101008083540402835291602001916110a3565b820191906000526020600020905b81548152906001019060200180831161108657829003601f168201915b505050505081526020016002820180546110bc90615592565b80601f01602080910402602001604051908101604052809291908181526020018280546110e890615592565b80156111355780601f1061110a57610100808354040283529160200191611135565b820191906000526020600020905b81548152906001019060200180831161111857829003601f168201915b5050505050815260200160038201805461114e90615592565b80601f016020809104026020016040519081016040528092919081815260200182805461117a90615592565b80156111c75780601f1061119c576101008083540402835291602001916111c7565b820191906000526020600020905b8154815290600101906020018083116111aa57829003601f168201915b505050505081526020016004820180546111e090615592565b80601f016020809104026020016040519081016040528092919081815260200182805461120c90615592565b80156112595780601f1061122e57610100808354040283529160200191611259565b820191906000526020600020905b81548152906001019060200180831161123c57829003601f168201915b505050505081526020016005820160009054906101000a900473ffffffffffffffffffffffffffffffffffffffff1673ffffffffffffffffffffffffffffffffffffffff1673ffffffffffffffffffffffffffffffffffffffff1681526020016006820154815260200160078201548152602001600882015481526020016009820160009054906101000a900460ff1615151515815250509050919050565b6060600060075467ffffffffffffffff81111561133e577f4e487b7100000000000000000000000000000000000000000000000000000000600052604160045260246000fd5b60405190808252806020026020018201604052801561137757816020015b611364613f81565b81526020019060019003908161135c5790505b50905060005b60075481101561171f5760056000600183611398919061547e565b815260200190815260200160002060090160009054906101000a900460ff1661170c57600560006001836113cc919061547e565b8152602001908152602001600020604051806101400160405290816000820154815260200160018201805461140090615592565b80601f016020809104026020016040519081016040528092919081815260200182805461142c90615592565b80156114795780601f1061144e57610100808354040283529160200191611479565b820191906000526020600020905b81548152906001019060200180831161145c57829003601f168201915b5050505050815260200160028201805461149290615592565b80601f01602080910402602001604051908101604052809291908181526020018280546114be90615592565b801561150b5780601f106114e05761010080835404028352916020019161150b565b820191906000526020600020905b8154815290600101906020018083116114ee57829003601f168201915b5050505050815260200160038201805461152490615592565b80601f016020809104026020016040519081016040528092919081815260200182805461155090615592565b801561159d5780601f106115725761010080835404028352916020019161159d565b820191906000526020600020905b81548152906001019060200180831161158057829003601f168201915b505050505081526020016004820180546115b690615592565b80601f01602080910402602001604051908101604052809291908181526020018280546115e290615592565b801561162f5780601f106116045761010080835404028352916020019161162f565b820191906000526020600020905b81548152906001019060200180831161161257829003601f168201915b505050505081526020016005820160009054906101000a900473ffffffffffffffffffffffffffffffffffffffff1673ffffffffffffffffffffffffffffffffffffffff1673ffffffffffffffffffffffffffffffffffffffff1681526020016006820154815260200160078201548152602001600882015481526020016009820160009054906101000a900460ff161515151581525050828281518110611700577f4e487b7100000000000000000000000000000000000000000000000000000000600052603260045260246000fd5b60200260200101819052505b8080611717906155f5565b91505061137d565b508091505090565b60011515600160003373ffffffffffffffffffffffffffffffffffffffff1673ffffffffffffffffffffffffffffffffffffffff16815260200190815260200160002060050160009054906101000a900460ff161515146117bd576040517f08c379a00000000000000000000000000000000000000000000000000000000081526004016117b490615076565b60405180910390fd5b60008111611800576040517f08c379a00000000000000000000000000000000000000000000000000000000081526004016117f7906150d6565b60405180910390fd5b80600160003373ffffffffffffffffffffffffffffffffffffffff1673ffffffffffffffffffffffffffffffffffffffff168152602001908152602001600020600201541015611885576040517f08c379a000000000000000000000000000000000000000000000000000000000815260040161187c90615056565b60405180910390fd5b6000803373ffffffffffffffffffffffffffffffffffffffff16836040516118ac90614c25565b60006040518083038185875af1925050503d80600081146118e9576040519150601f19603f3d011682016040523d82523d6000602084013e6118ee565b606091505b509150915081611933576040517f08c379a000000000000000000000000000000000000000000000000000000000815260040161192a90614f16565b60405180910390fd5b82600160003373ffffffffffffffffffffffffffffffffffffffff1673ffffffffffffffffffffffffffffffffffffffff168152602001908152602001600020600201600082825461198591906154d4565b925050819055507fcc16f5dbb4873280815c1ee09dbd06736cffcc184412cf7a71a0fdb75d397ca533846040516119bd929190614c55565b60405180910390a1505050565b6000600160003373ffffffffffffffffffffffffffffffffffffffff1673ffffffffffffffffffffffffffffffffffffffff16815260200190815260200160002060050160009054906101000a900460ff1615611a2a5760019050611a2f565b600090505b90565b60606004805480602002602001604051908101604052809291908181526020016000905b82821015611b02578382906000526020600020018054611a7590615592565b80601f0160208091040260200160405190810160405280929190818152602001828054611aa190615592565b8015611aee5780601f10611ac357610100808354040283529160200191611aee565b820191906000526020600020905b815481529060010190602001808311611ad157829003601f168201915b505050505081526020019060010190611a56565b50505050905090565b6060611b156119ca565b611b54576040517f08c379a0000000000000000000000000000000000000000000000000000000008152600401611b4b90614f96565b60405180910390fd5b6000600160003373ffffffffffffffffffffffffffffffffffffffff1673ffffffffffffffffffffffffffffffffffffffff16815260200190815260200160002060040180549050905060008167ffffffffffffffff811115611be0577f4e487b7100000000000000000000000000000000000000000000000000000000600052604160045260246000fd5b604051908082528060200260200182016040528015611c1957816020015b611c06613fec565b815260200190600190039081611bfe5790505b50905060005b82811015611f1b576000600160003373ffffffffffffffffffffffffffffffffffffffff1673ffffffffffffffffffffffffffffffffffffffff1681526020019081526020016000206004018281548110611ca3577f4e487b7100000000000000000000000000000000000000000000000000000000600052603260045260246000fd5b90600052602060002090600202016001015490506000805b6006600084815260200190815260200160002080549050811015611ddf57600660008481526020019081526020016000208181548110611d24577f4e487b7100000000000000000000000000000000000000000000000000000000600052603260045260246000fd5b906000526020600020906005020160000154600160003373ffffffffffffffffffffffffffffffffffffffff1673ffffffffffffffffffffffffffffffffffffffff1681526020019081526020016000206004018581548110611db0577f4e487b7100000000000000000000000000000000000000000000000000000000600052603260045260246000fd5b9060005260206000209060020201600001541415611dcc578091505b8080611dd7906155f5565b915050611cbb565b50600660008381526020019081526020016000208181548110611e2b577f4e487b7100000000000000000000000000000000000000000000000000000000600052603260045260246000fd5b90600052602060002090600502016040518060a001604052908160008201548152602001600182015481526020016002820160009054906101000a900473ffffffffffffffffffffffffffffffffffffffff1673ffffffffffffffffffffffffffffffffffffffff1673ffffffffffffffffffffffffffffffffffffffff16815260200160038201548152602001600482015481525050848481518110611efb577f4e487b7100000000000000000000000000000000000000000000000000000000600052603260045260246000fd5b602002602001018190525050508080611f13906155f5565b915050611c1f565b50809250505090565b60001515600160003373ffffffffffffffffffffffffffffffffffffffff1673ffffffffffffffffffffffffffffffffffffffff16815260200190815260200160002060050160009054906101000a900460ff16151514611fba576040517f08c379a0000000000000000000000000000000000000000000000000000000008152600401611fb190614db6565b60405180910390fd5b6000600160003373ffffffffffffffffffffffffffffffffffffffff1673ffffffffffffffffffffffffffffffffffffffff168152602001908152602001600020905060018160050160006101000a81548160ff021916908315150217905550338160000160006101000a81548173ffffffffffffffffffffffffffffffffffffffff021916908373ffffffffffffffffffffffffffffffffffffffff160217905550600081600201819055508181600101908051906020019061207f929190613efb565b506002339080600181540180825580915050600190039060005260206000200160009091909190916101000a81548173ffffffffffffffffffffffffffffffffffffffff021916908373ffffffffffffffffffffffffffffffffffffffff1602179055506001600360008282546120f6919061547e565b925050819055507f673b132bfab7898651385299bf51a81f5d71d70c785d2c713bce0b05613b9518823360405161212e929190614d66565b60405180910390a15050565b6005600083815260200190815260200160002060050160009054906101000a900473ffffffffffffffffffffffffffffffffffffffff1673ffffffffffffffffffffffffffffffffffffffff163373ffffffffffffffffffffffffffffffffffffffff1614156121df576040517f08c379a00000000000000000000000000000000000000000000000000000000081526004016121d690614e36565b60405180910390fd5b600060066000848152602001908152602001600020805490509050600081111561262a573373ffffffffffffffffffffffffffffffffffffffff166006600085815260200190815260200160002060018361223a91906154d4565b81548110612271577f4e487b7100000000000000000000000000000000000000000000000000000000600052603260045260246000fd5b906000526020600020906005020160020160009054906101000a900473ffffffffffffffffffffffffffffffffffffffff1673ffffffffffffffffffffffffffffffffffffffff1614156123ea57600660008481526020019081526020016000206001826122df91906154d4565b81548110612316577f4e487b7100000000000000000000000000000000000000000000000000000000600052603260045260246000fd5b90600052602060002090600502016003015461233133613a13565b6006600086815260200190815260200160002060018461235191906154d4565b81548110612388577f4e487b7100000000000000000000000000000000000000000000000000000000600052603260045260246000fd5b9060005260206000209060050201600301546123a4919061547e565b10156123e5576040517f08c379a00000000000000000000000000000000000000000000000000000000081526004016123dc90615096565b60405180910390fd5b612436565b816123f433613a13565b1015612435576040517f08c379a000000000000000000000000000000000000000000000000000000000815260040161242c90614f36565b60405180910390fd5b5b816006600085815260200190815260200160002060018361245791906154d4565b8154811061248e577f4e487b7100000000000000000000000000000000000000000000000000000000600052603260045260246000fd5b906000526020600020906005020160030154106124e0576040517f08c379a00000000000000000000000000000000000000000000000000000000081526004016124d790614e56565b60405180910390fd5b6006600084815260200190815260200160002060018261250091906154d4565b81548110612537577f4e487b7100000000000000000000000000000000000000000000000000000000600052603260045260246000fd5b906000526020600020906005020160030154600160006006600087815260200190815260200160002060018561256d91906154d4565b815481106125a4577f4e487b7100000000000000000000000000000000000000000000000000000000600052603260045260246000fd5b906000526020600020906005020160020160009054906101000a900473ffffffffffffffffffffffffffffffffffffffff1673ffffffffffffffffffffffffffffffffffffffff1673ffffffffffffffffffffffffffffffffffffffff1681526020019081526020016000206002016000828254612622919061547e565b925050819055505b60016008600082825461263d919061547e565b92505081905550600660008481526020019081526020016000206040518060a0016040528060085481526020018581526020013373ffffffffffffffffffffffffffffffffffffffff168152602001848152602001428152509080600181540180825580915050600190039060005260206000209060050201600090919091909150600082015181600001556020820151816001015560408201518160020160006101000a81548173ffffffffffffffffffffffffffffffffffffffff021916908373ffffffffffffffffffffffffffffffffffffffff1602179055506060820151816003015560808201518160040155505081600160003373ffffffffffffffffffffffffffffffffffffffff1673ffffffffffffffffffffffffffffffffffffffff168152602001908152602001600020600201600082825461278291906154d4565b9250508190555061279560085484613c70565b7fa4f371487bb360f38a002aad1c1345c3c98cbdef491047055d54f0811fcdb28e3360085485856040516127cc9493929190614c7e565b60405180910390a1505050565b60008060009054906101000a900473ffffffffffffffffffffffffffffffffffffffff1673ffffffffffffffffffffffffffffffffffffffff163373ffffffffffffffffffffffffffffffffffffffff161461286a576040517f08c379a000000000000000000000000000000000000000000000000000000000815260040161286190614eb6565b60405180910390fd5b47905090565b6006602052816000526040600020818154811061288c57600080fd5b9060005260206000209060050201600091509150508060000154908060010154908060020160009054906101000a900473ffffffffffffffffffffffffffffffffffffffff16908060030154908060040154905085565b85858484846129018560405180602001604052806000815250613da0565b15612941576040517f08c379a000000000000000000000000000000000000000000000000000000000815260040161293890615036565b60405180910390fd5b61295a8460405180602001604052806000815250613da0565b1561299a576040517f08c379a000000000000000000000000000000000000000000000000000000000815260040161299190614d96565b60405180910390fd5b6129b38360405180602001604052806000815250613da0565b156129f3576040517f08c379a00000000000000000000000000000000000000000000000000000000081526004016129ea90614ff6565b60405180910390fd5b428211612a35576040517f08c379a0000000000000000000000000000000000000000000000000000000008152600401612a2c90614fd6565b60405180910390fd5b60008111612a78576040517f08c379a0000000000000000000000000000000000000000000000000000000008152600401612a6f90614dd6565b60405180910390fd5b612a8189613b5c565b612ac0576040517f08c379a0000000000000000000000000000000000000000000000000000000008152600401612ab790614df6565b60405180910390fd5b612ac989613b5c565b50600160076000828254612add919061547e565b9250508190555060405180610140016040528060075481526020018c81526020018b81526020018a81526020018981526020013373ffffffffffffffffffffffffffffffffffffffff16815260200142815260200188815260200187815260200160001515815250600560006007548152602001908152602001600020600082015181600001556020820151816001019080519060200190612b80929190613efb565b506040820151816002019080519060200190612b9d929190613efb565b506060820151816003019080519060200190612bba929190613efb565b506080820151816004019080519060200190612bd7929190613efb565b5060a08201518160050160006101000a81548173ffffffffffffffffffffffffffffffffffffffff021916908373ffffffffffffffffffffffffffffffffffffffff16021790555060c0820151816006015560e0820151816007015561010082015181600801556101208201518160090160006101000a81548160ff021916908315150217905550905050612c6d600754613df9565b7f46217e9d4d088b96134f1a6b154910ad12e08600e02982d8c16d5397399c67f76007548c8c8c8c338c604051612caa9796959493929190615178565b60405180910390a15050505050505050505050565b6060612cc96119ca565b612d08576040517f08c379a0000000000000000000000000000000000000000000000000000000008152600401612cff90614f96565b60405180910390fd5b6000600160003373ffffffffffffffffffffffffffffffffffffffff1673ffffffffffffffffffffffffffffffffffffffff16815260200190815260200160002060030180549050905060008167ffffffffffffffff811115612d94577f4e487b7100000000000000000000000000000000000000000000000000000000600052604160045260246000fd5b604051908082528060200260200182016040528015612dcd57816020015b612dba613f81565b815260200190600190039081612db25790505b50905060005b828110156131b65760056000600160003373ffffffffffffffffffffffffffffffffffffffff1673ffffffffffffffffffffffffffffffffffffffff1681526020019081526020016000206003018381548110612e59577f4e487b7100000000000000000000000000000000000000000000000000000000600052603260045260246000fd5b906000526020600020015481526020019081526020016000206040518061014001604052908160008201548152602001600182018054612e9890615592565b80601f0160208091040260200160405190810160405280929190818152602001828054612ec490615592565b8015612f115780601f10612ee657610100808354040283529160200191612f11565b820191906000526020600020905b815481529060010190602001808311612ef457829003601f168201915b50505050508152602001600282018054612f2a90615592565b80601f0160208091040260200160405190810160405280929190818152602001828054612f5690615592565b8015612fa35780601f10612f7857610100808354040283529160200191612fa3565b820191906000526020600020905b815481529060010190602001808311612f8657829003601f168201915b50505050508152602001600382018054612fbc90615592565b80601f0160208091040260200160405190810160405280929190818152602001828054612fe890615592565b80156130355780601f1061300a57610100808354040283529160200191613035565b820191906000526020600020905b81548152906001019060200180831161301857829003601f168201915b5050505050815260200160048201805461304e90615592565b80601f016020809104026020016040519081016040528092919081815260200182805461307a90615592565b80156130c75780601f1061309c576101008083540402835291602001916130c7565b820191906000526020600020905b8154815290600101906020018083116130aa57829003601f168201915b505050505081526020016005820160009054906101000a900473ffffffffffffffffffffffffffffffffffffffff1673ffffffffffffffffffffffffffffffffffffffff1673ffffffffffffffffffffffffffffffffffffffff1681526020016006820154815260200160078201548152602001600882015481526020016009820160009054906101000a900460ff161515151581525050828281518110613198577f4e487b7100000000000000000000000000000000000000000000000000000000600052603260045260246000fd5b602002602001018190525080806131ae906155f5565b915050612dd3565b50809250505090565b6060600160008373ffffffffffffffffffffffffffffffffffffffff1673ffffffffffffffffffffffffffffffffffffffff16815260200190815260200160002060050160009054906101000a900460ff16613250576040517f08c379a000000000000000000000000000000000000000000000000000000000815260040161324790614ef6565b60405180910390fd5b600160008373ffffffffffffffffffffffffffffffffffffffff1673ffffffffffffffffffffffffffffffffffffffff168152602001908152602001600020600101805461329d90615592565b80601f01602080910402602001604051908101604052809291908181526020018280546132c990615592565b80156133165780601f106132eb57610100808354040283529160200191613316565b820191906000526020600020905b8154815290600101906020018083116132f957829003601f168201915b50505050509050919050565b80426005600083815260200190815260200160002060070154111561337c576040517f08c379a000000000000000000000000000000000000000000000000000000000815260040161337390614e76565b60405180910390fd5b816007548111156133c2576040517f08c379a00000000000000000000000000000000000000000000000000000000081526004016133b990614e16565b60405180910390fd5b6005600082815260200190815260200160002060090160009054906101000a900460ff1615613426576040517f08c379a000000000000000000000000000000000000000000000000000000000815260040161341d90614f56565b60405180910390fd5b826000600660008381526020019081526020016000208054905011613480576040517f08c379a000000000000000000000000000000000000000000000000000000000815260040161347790614f76565b60405180910390fd5b60066000858152602001908152602001600020600160066000878152602001908152602001600020805490506134b691906154d4565b815481106134ed577f4e487b7100000000000000000000000000000000000000000000000000000000600052603260045260246000fd5b906000526020600020906005020160030154600160006005600088815260200190815260200160002060050160009054906101000a900473ffffffffffffffffffffffffffffffffffffffff1673ffffffffffffffffffffffffffffffffffffffff1673ffffffffffffffffffffffffffffffffffffffff1681526020019081526020016000206002016000828254613586919061547e565b9250508190555060016005600086815260200190815260200160002060090160006101000a81548160ff0219169083151502179055507f23f50d55776d8003622a982ade45a6c7f083116c8dbbcd980f59942f440badb1846005600087815260200190815260200160002060050160009054906101000a900473ffffffffffffffffffffffffffffffffffffffff16600660008881526020019081526020016000206001600660008a81526020019081526020016000208054905061364b91906154d4565b81548110613682577f4e487b7100000000000000000000000000000000000000000000000000000000600052603260045260246000fd5b906000526020600020906005020160020160009054906101000a900473ffffffffffffffffffffffffffffffffffffffff16600660008981526020019081526020016000206001600660008b8152602001908152602001600020805490506136ea91906154d4565b81548110613721577f4e487b7100000000000000000000000000000000000000000000000000000000600052603260045260246000fd5b9060005260206000209060050201600301546040516137439493929190615133565b60405180910390a150505050565b60606000825167ffffffffffffffff811115613796577f4e487b7100000000000000000000000000000000000000000000000000000000600052604160045260246000fd5b6040519080825280602002602001820160405280156137c957816020015b60608152602001906001900390816137b45790505b50905060005b8351811015613a095760016000858381518110613815577f4e487b7100000000000000000000000000000000000000000000000000000000600052603260045260246000fd5b602002602001015173ffffffffffffffffffffffffffffffffffffffff1673ffffffffffffffffffffffffffffffffffffffff16815260200190815260200160002060050160009054906101000a900460ff166138a7576040517f08c379a000000000000000000000000000000000000000000000000000000000815260040161389e90614ef6565b60405180910390fd5b600160008583815181106138e4577f4e487b7100000000000000000000000000000000000000000000000000000000600052603260045260246000fd5b602002602001015173ffffffffffffffffffffffffffffffffffffffff1673ffffffffffffffffffffffffffffffffffffffff168152602001908152602001600020600101805461393490615592565b80601f016020809104026020016040519081016040528092919081815260200182805461396090615592565b80156139ad5780601f10613982576101008083540402835291602001916139ad565b820191906000526020600020905b81548152906001019060200180831161399057829003601f168201915b50505050508282815181106139eb577f4e487b7100000000000000000000000000000000000000000000000000000000600052603260045260246000fd5b60200260200101819052508080613a01906155f5565b9150506137cf565b5080915050919050565b6000600160008373ffffffffffffffffffffffffffffffffffffffff1673ffffffffffffffffffffffffffffffffffffffff16815260200190815260200160002060050160009054906101000a900460ff16613aa4576040517f08c379a0000000000000000000000000000000000000000000000000000000008152600401613a9b90615076565b60405180910390fd5b3373ffffffffffffffffffffffffffffffffffffffff168273ffffffffffffffffffffffffffffffffffffffff1614613b12576040517f08c379a0000000000000000000000000000000000000000000000000000000008152600401613b0990615016565b60405180910390fd5b600160008373ffffffffffffffffffffffffffffffffffffffff1673ffffffffffffffffffffffffffffffffffffffff168152602001908152602001600020600201549050919050565b6000806000905060005b600480549050811015613c6657613c4960048281548110613bb0577f4e487b7100000000000000000000000000000000000000000000000000000000600052603260045260246000fd5b906000526020600020018054613bc590615592565b80601f0160208091040260200160405190810160405280929190818152602001828054613bf190615592565b8015613c3e5780601f10613c1357610100808354040283529160200191613c3e565b820191906000526020600020905b815481529060010190602001808311613c2157829003601f168201915b505050505085613da0565b15613c5357600191505b8080613c5e906155f5565b915050613b66565b5080915050919050565b60011515600160003373ffffffffffffffffffffffffffffffffffffffff1673ffffffffffffffffffffffffffffffffffffffff16815260200190815260200160002060050160009054906101000a900460ff16151514613d06576040517f08c379a0000000000000000000000000000000000000000000000000000000008152600401613cfd90615076565b60405180910390fd5b600160003373ffffffffffffffffffffffffffffffffffffffff1673ffffffffffffffffffffffffffffffffffffffff1681526020019081526020016000206004016040518060400160405280848152602001838152509080600181540180825580915050600190039060005260206000209060020201600090919091909150600082015181600001556020820151816001015550505050565b600081604051602001613db39190614c0e565b6040516020818303038152906040528051906020012083604051602001613dda9190614c0e565b6040516020818303038152906040528051906020012014905092915050565b60011515600160003373ffffffffffffffffffffffffffffffffffffffff1673ffffffffffffffffffffffffffffffffffffffff16815260200190815260200160002060050160009054906101000a900460ff16151514613e8f576040517f08c379a0000000000000000000000000000000000000000000000000000000008152600401613e8690615076565b60405180910390fd5b600160003373ffffffffffffffffffffffffffffffffffffffff1673ffffffffffffffffffffffffffffffffffffffff16815260200190815260200160002060030181908060018154018082558091505060019003906000526020600020016000909190919091505550565b828054613f0790615592565b90600052602060002090601f016020900481019282613f295760008555613f70565b82601f10613f4257805160ff1916838001178555613f70565b82800160010185558215613f70579182015b82811115613f6f578251825591602001919060010190613f54565b5b509050613f7d9190614031565b5090565b6040518061014001604052806000815260200160608152602001606081526020016060815260200160608152602001600073ffffffffffffffffffffffffffffffffffffffff1681526020016000815260200160008152602001600081526020016000151581525090565b6040518060a001604052806000815260200160008152602001600073ffffffffffffffffffffffffffffffffffffffff16815260200160008152602001600081525090565b5b8082111561404a576000816000905550600101614032565b5090565b600061406161405c84615333565b61530e565b9050808382526020820190508285602086028201111561408057600080fd5b60005b858110156140b0578161409688826140f8565b845260208401935060208301925050600181019050614083565b5050509392505050565b60006140cd6140c88461535f565b61530e565b9050828152602081018484840111156140e557600080fd5b6140f0848285615550565b509392505050565b60008135905061410781615ba4565b92915050565b600082601f83011261411e57600080fd5b813561412e84826020860161404e565b91505092915050565b600082601f83011261414857600080fd5b81356141588482602086016140ba565b91505092915050565b60008135905061417081615bbb565b92915050565b60006020828403121561418857600080fd5b6000614196848285016140f8565b91505092915050565b6000602082840312156141b157600080fd5b600082013567ffffffffffffffff8111156141cb57600080fd5b6141d78482850161410d565b91505092915050565b6000602082840312156141f257600080fd5b600082013567ffffffffffffffff81111561420c57600080fd5b61421884828501614137565b91505092915050565b60008060008060008060c0878903121561423a57600080fd5b600087013567ffffffffffffffff81111561425457600080fd5b61426089828a01614137565b965050602087013567ffffffffffffffff81111561427d57600080fd5b61428989828a01614137565b955050604087013567ffffffffffffffff8111156142a657600080fd5b6142b289828a01614137565b945050606087013567ffffffffffffffff8111156142cf57600080fd5b6142db89828a01614137565b93505060806142ec89828a01614161565b92505060a06142fd89828a01614161565b9150509295509295509295565b60006020828403121561431c57600080fd5b600061432a84828501614161565b91505092915050565b6000806040838503121561434657600080fd5b600061435485828601614161565b925050602061436585828601614161565b9150509250929050565b600061437b8383614533565b905092915050565b600061438f83836149aa565b60a08301905092915050565b60006143a78383614a12565b905092915050565b6143b881615508565b82525050565b6143c781615508565b82525050565b60006143d8826153c0565b6143e28185615413565b9350836020820285016143f485615390565b8060005b858110156144305784840389528151614411858261436f565b945061441c836153ec565b925060208a019950506001810190506143f8565b50829750879550505050505092915050565b600061444d826153cb565b6144578185615424565b9350614462836153a0565b8060005b8381101561449357815161447a8882614383565b9750614485836153f9565b925050600181019050614466565b5085935050505092915050565b60006144ab826153d6565b6144b58185615435565b9350836020820285016144c7856153b0565b8060005b8581101561450357848403895281516144e4858261439b565b94506144ef83615406565b925060208a019950506001810190506144cb565b50829750879550505050505092915050565b61451e8161551a565b82525050565b61452d8161551a565b82525050565b600061453e826153e1565b6145488185615451565b935061455881856020860161555f565b614561816156cb565b840191505092915050565b6000614577826153e1565b6145818185615462565b935061459181856020860161555f565b61459a816156cb565b840191505092915050565b60006145b0826153e1565b6145ba8185615473565b93506145ca81856020860161555f565b80840191505092915050565b60006145e3601a83615462565b91506145ee826156dc565b602082019050919050565b6000614606602083615462565b915061461182615705565b602082019050919050565b6000614629601c83615462565b91506146348261572e565b602082019050919050565b600061464c601083615462565b915061465782615757565b602082019050919050565b600061466f600a83615462565b915061467a82615780565b602082019050919050565b6000614692601a83615462565b915061469d826157a9565b602082019050919050565b60006146b5601683615462565b91506146c0826157d2565b602082019050919050565b60006146d8601083615462565b91506146e3826157fb565b602082019050919050565b60006146fb600d83615462565b915061470682615824565b602082019050919050565b600061471e601583615462565b91506147298261584d565b602082019050919050565b6000614741601783615462565b915061474c82615876565b602082019050919050565b6000614764601983615462565b915061476f8261589f565b602082019050919050565b6000614787601483615462565b9150614792826158c8565b602082019050919050565b60006147aa601b83615462565b91506147b5826158f1565b602082019050919050565b60006147cd601183615462565b91506147d88261591a565b602082019050919050565b60006147f0602083615462565b91506147fb82615943565b602082019050919050565b6000614813601283615462565b915061481e8261596c565b602082019050919050565b6000614836601683615462565b915061484182615995565b602082019050919050565b6000614859601c83615462565b9150614864826159be565b602082019050919050565b600061487c601883615462565b9150614887826159e7565b602082019050919050565b600061489f602d83615462565b91506148aa82615a10565b604082019050919050565b60006148c2601383615462565b91506148cd82615a5f565b602082019050919050565b60006148e5601b83615462565b91506148f082615a88565b602082019050919050565b6000614908601283615462565b915061491382615ab1565b602082019050919050565b600061492b600083615446565b915061493682615ada565b600082019050919050565b600061494e600883615462565b915061495982615add565b602082019050919050565b6000614971602583615462565b915061497c82615b06565b604082019050919050565b6000614994602c83615462565b915061499f82615b55565b604082019050919050565b60a0820160008201516149c06000850182614bf0565b5060208201516149d36020850182614bf0565b5060408201516149e660408501826143af565b5060608201516149f96060850182614bf0565b506080820151614a0c6080850182614bf0565b50505050565b600061014083016000830151614a2b6000860182614bf0565b5060208301518482036020860152614a438282614533565b91505060408301518482036040860152614a5d8282614533565b91505060608301518482036060860152614a778282614533565b91505060808301518482036080860152614a918282614533565b91505060a0830151614aa660a08601826143af565b5060c0830151614ab960c0860182614bf0565b5060e0830151614acc60e0860182614bf0565b50610100830151614ae1610100860182614bf0565b50610120830151614af6610120860182614515565b508091505092915050565b600061014083016000830151614b1a6000860182614bf0565b5060208301518482036020860152614b328282614533565b91505060408301518482036040860152614b4c8282614533565b91505060608301518482036060860152614b668282614533565b91505060808301518482036080860152614b808282614533565b91505060a0830151614b9560a08601826143af565b5060c0830151614ba860c0860182614bf0565b5060e0830151614bbb60e0860182614bf0565b50610100830151614bd0610100860182614bf0565b50610120830151614be5610120860182614515565b508091505092915050565b614bf981615546565b82525050565b614c0881615546565b82525050565b6000614c1a82846145a5565b915081905092915050565b6000614c308261491e565b9150819050919050565b6000602082019050614c4f60008301846143be565b92915050565b6000604082019050614c6a60008301856143be565b614c776020830184614bff565b9392505050565b6000608082019050614c9360008301876143be565b614ca06020830186614bff565b614cad6040830185614bff565b614cba6060830184614bff565b95945050505050565b60006020820190508181036000830152614cdd81846143cd565b905092915050565b60006020820190508181036000830152614cff8184614442565b905092915050565b60006020820190508181036000830152614d2181846144a0565b905092915050565b6000602082019050614d3e6000830184614524565b92915050565b60006020820190508181036000830152614d5e818461456c565b905092915050565b60006040820190508181036000830152614d80818561456c565b9050614d8f60208301846143be565b9392505050565b60006020820190508181036000830152614daf816145d6565b9050919050565b60006020820190508181036000830152614dcf816145f9565b9050919050565b60006020820190508181036000830152614def8161461c565b9050919050565b60006020820190508181036000830152614e0f8161463f565b9050919050565b60006020820190508181036000830152614e2f81614662565b9050919050565b60006020820190508181036000830152614e4f81614685565b9050919050565b60006020820190508181036000830152614e6f816146a8565b9050919050565b60006020820190508181036000830152614e8f816146cb565b9050919050565b60006020820190508181036000830152614eaf816146ee565b9050919050565b60006020820190508181036000830152614ecf81614711565b9050919050565b60006020820190508181036000830152614eef81614734565b9050919050565b60006020820190508181036000830152614f0f81614757565b9050919050565b60006020820190508181036000830152614f2f8161477a565b9050919050565b60006020820190508181036000830152614f4f8161479d565b9050919050565b60006020820190508181036000830152614f6f816147c0565b9050919050565b60006020820190508181036000830152614f8f816147e3565b9050919050565b60006020820190508181036000830152614faf81614806565b9050919050565b60006020820190508181036000830152614fcf81614829565b9050919050565b60006020820190508181036000830152614fef8161484c565b9050919050565b6000602082019050818103600083015261500f8161486f565b9050919050565b6000602082019050818103600083015261502f81614892565b9050919050565b6000602082019050818103600083015261504f816148b5565b9050919050565b6000602082019050818103600083015261506f816148d8565b9050919050565b6000602082019050818103600083015261508f816148fb565b9050919050565b600060208201905081810360008301526150af81614941565b9050919050565b600060208201905081810360008301526150cf81614964565b9050919050565b600060208201905081810360008301526150ef81614987565b9050919050565b600060208201905081810360008301526151108184614b01565b905092915050565b600060208201905061512d6000830184614bff565b92915050565b60006080820190506151486000830187614bff565b61515560208301866143be565b61516260408301856143be565b61516f6060830184614bff565b95945050505050565b600060e08201905061518d600083018a614bff565b818103602083015261519f818961456c565b905081810360408301526151b3818861456c565b905081810360608301526151c7818761456c565b905081810360808301526151db818661456c565b90506151ea60a08301856143be565b6151f760c0830184614bff565b98975050505050505050565b600061014082019050615219600083018d614bff565b818103602083015261522b818c61456c565b9050818103604083015261523f818b61456c565b90508181036060830152615253818a61456c565b90508181036080830152615267818961456c565b905061527660a08301886143be565b61528360c0830187614bff565b61529060e0830186614bff565b61529e610100830185614bff565b6152ac610120830184614524565b9b9a5050505050505050505050565b600060a0820190506152d06000830188614bff565b6152dd6020830187614bff565b6152ea60408301866143be565b6152f76060830185614bff565b6153046080830184614bff565b9695505050505050565b6000615318615329565b905061532482826155c4565b919050565b6000604051905090565b600067ffffffffffffffff82111561534e5761534d61569c565b5b602082029050602081019050919050565b600067ffffffffffffffff82111561537a5761537961569c565b5b615383826156cb565b9050602081019050919050565b6000819050602082019050919050565b6000819050602082019050919050565b6000819050602082019050919050565b600081519050919050565b600081519050919050565b600081519050919050565b600081519050919050565b6000602082019050919050565b6000602082019050919050565b6000602082019050919050565b600082825260208201905092915050565b600082825260208201905092915050565b600082825260208201905092915050565b600081905092915050565b600082825260208201905092915050565b600082825260208201905092915050565b600081905092915050565b600061548982615546565b915061549483615546565b9250827fffffffffffffffffffffffffffffffffffffffffffffffffffffffffffffffff038211156154c9576154c861563e565b5b828201905092915050565b60006154df82615546565b91506154ea83615546565b9250828210156154fd576154fc61563e565b5b828203905092915050565b600061551382615526565b9050919050565b60008115159050919050565b600073ffffffffffffffffffffffffffffffffffffffff82169050919050565b6000819050919050565b82818337600083830152505050565b60005b8381101561557d578082015181840152602081019050615562565b8381111561558c576000848401525b50505050565b600060028204905060018216806155aa57607f821691505b602082108114156155be576155bd61566d565b5b50919050565b6155cd826156cb565b810181811067ffffffffffffffff821117156155ec576155eb61569c565b5b80604052505050565b600061560082615546565b91507fffffffffffffffffffffffffffffffffffffffffffffffffffffffffffffffff8214156156335761563261563e565b5b600182019050919050565b7f4e487b7100000000000000000000000000000000000000000000000000000000600052601160045260246000fd5b7f4e487b7100000000000000000000000000000000000000000000000000000000600052602260045260246000fd5b7f4e487b7100000000000000000000000000000000000000000000000000000000600052604160045260246000fd5b6000601f19601f8301169050919050565b7f6465736372697074696f6e2063616e277420626520656d707479000000000000600082015250565b7f616c726561647920612075736572207769746820746869732061646472657373600082015250565b7f74686520706f73742070726963652063616e2774206265206672656500000000600082015250565b7f696e76616c69642063617465676f727900000000000000000000000000000000600082015250565b7f696e76616c696420696400000000000000000000000000000000000000000000600082015250565b7f596f752063616e277420626964206f6e20796f757220706f7374000000000000600082015250565b7f596f75206861766520746f206269642068696768657200000000000000000000600082015250565b7f706f7374207374696c6c20617469766500000000000000000000000000000000600082015250565b7f696420696e73277420676f6f6400000000000000000000000000000000000000600082015250565b7f596f7520617265206e6f7420746865206f776e65720000000000000000000000600082015250565b7f63617465676f727920616c726561647920657869737473000000000000000000600082015250565b7f4e6f207573657220776974682074686973206164647265737300000000000000600082015250565b7f6661696c656420746f2073656e64206574686572000000000000000000000000600082015250565b7f596f7520646f6e2774206861766520656e6f7567682066756e64730000000000600082015250565b7f706f737420616c726561647920736f6c64000000000000000000000000000000600082015250565b7f6e6f206f6e652077616e747320746f2062757920796f75722070726f64756374600082015250565b7f596f7520617265206e6f74206120757365720000000000000000000000000000600082015250565b7f596f75206e65656420746f2073656e6420657468657200000000000000000000600082015250565b7f706f73742068617320746f20626520706f73746564206c6f6e67657200000000600082015250565b7f696d6167652075726c2063616e277420626520656d7074790000000000000000600082015250565b7f796f752063616e2774206c6f6f6b206174207468652062616c616e6365206f6660008201527f20736f6d656f6e6520656c736500000000000000000000000000000000000000602082015250565b7f6e616d652063616e277420626520656d70747900000000000000000000000000600082015250565b7f596f7520646f6e2774206861766520656e6f756768206d6f6e65790000000000600082015250565b7f7573657220646f73656e27742065786973740000000000000000000000000000600082015250565b50565b7f6f766572666c6f77000000000000000000000000000000000000000000000000600082015250565b7f6f6e6c79207468652061646d696e2063616e2063616c6c20746869732066756e60008201527f6374696f6e000000000000000000000000000000000000000000000000000000602082015250565b7f596f75206e65656420746f207370656369667920616e20616d6f756e7420677260008201527f6561746572207468656e20300000000000000000000000000000000000000000602082015250565b615bad81615508565b8114615bb857600080fd5b50565b615bc481615546565b8114615bcf57600080fd5b5056fea2646970667358221220d118c4a9fbf1b4cb1481b2f15979accc799613d94066189a3eef1950dafe0edb64736f6c63430008040033",
  "linkReferences": {},
  "deployedLinkReferences": {}
}