{
  "_format": "hh-sol-artifact-1",
  "contractName": "EthMarket",
  "sourceName": "contracts/ethMarket.sol",
  "abi": [
    {
      "inputs": [],
      "stateMutability": "nonpayable",
      "type": "constructor"
    },
    {
      "anonymous": false,
      "inputs": [
        {
          "indexed": false,
          "internalType": "string",
          "name": "category",
          "type": "string"
        }
      ],
      "name": "AddCategory",
      "type": "event"
    },
    {
      "anonymous": false,
      "inputs": [
        {
          "indexed": false,
          "internalType": "address",
          "name": "addr",
          "type": "address"
        },
        {
          "indexed": false,
          "internalType": "uint256",
          "name": "amount",
          "type": "uint256"
        }
      ],
      "name": "Burn",
      "type": "event"
    },
    {
      "anonymous": false,
      "inputs": [
        {
          "indexed": false,
          "internalType": "address",
          "name": "from",
          "type": "address"
        },
        {
          "indexed": false,
          "internalType": "uint256",
          "name": "id",
          "type": "uint256"
        },
        {
          "indexed": false,
          "internalType": "uint256",
          "name": "postId",
          "type": "uint256"
        },
        {
          "indexed": false,
          "internalType": "uint256",
          "name": "amount",
          "type": "uint256"
        }
      ],
      "name": "CreateBid",
      "type": "event"
    },
    {
      "anonymous": false,
      "inputs": [
        {
          "indexed": false,
          "internalType": "uint256",
          "name": "id",
          "type": "uint256"
        },
        {
          "indexed": false,
          "internalType": "string",
          "name": "name",
          "type": "string"
        },
        {
          "indexed": false,
          "internalType": "string",
          "name": "desc",
          "type": "string"
        },
        {
          "indexed": false,
          "internalType": "string",
          "name": "category",
          "type": "string"
        },
        {
          "indexed": false,
          "internalType": "string",
          "name": "image",
          "type": "string"
        },
        {
          "indexed": false,
          "internalType": "address",
          "name": "owner",
          "type": "address"
        },
        {
          "indexed": false,
          "internalType": "uint256",
          "name": "price",
          "type": "uint256"
        }
      ],
      "name": "CreatePost",
      "type": "event"
    },
    {
      "anonymous": false,
      "inputs": [
        {
          "indexed": false,
          "internalType": "address",
          "name": "addr",
          "type": "address"
        },
        {
          "indexed": false,
          "internalType": "uint256",
          "name": "amount",
          "type": "uint256"
        }
      ],
      "name": "Deposit",
      "type": "event"
    },
    {
      "anonymous": false,
      "inputs": [
        {
          "indexed": false,
          "internalType": "uint256",
          "name": "postId",
          "type": "uint256"
        },
        {
          "indexed": false,
          "internalType": "address",
          "name": "to",
          "type": "address"
        },
        {
          "indexed": false,
          "internalType": "address",
          "name": "from",
          "type": "address"
        },
        {
          "indexed": false,
          "internalType": "uint256",
          "name": "amount",
          "type": "uint256"
        }
      ],
      "name": "Sold",
      "type": "event"
    },
    {
      "anonymous": false,
      "inputs": [
        {
          "indexed": false,
          "internalType": "string",
          "name": "name",
          "type": "string"
        },
        {
          "indexed": false,
          "internalType": "address",
          "name": "addr",
          "type": "address"
        }
      ],
      "name": "UserCreated",
      "type": "event"
    },
    {
      "anonymous": false,
      "inputs": [
        {
          "indexed": false,
          "internalType": "address",
          "name": "addr",
          "type": "address"
        }
      ],
      "name": "UserDeleted",
      "type": "event"
    },
    {
      "inputs": [
        {
          "internalType": "string",
          "name": "category",
          "type": "string"
        }
      ],
      "name": "addCategory",
      "outputs": [],
      "stateMutability": "nonpayable",
      "type": "function"
    },
    {
      "inputs": [
        {
          "internalType": "uint256",
          "name": "postId",
          "type": "uint256"
        },
        {
          "internalType": "uint256",
          "name": "amount",
          "type": "uint256"
        }
      ],
      "name": "bid",
      "outputs": [],
      "stateMutability": "nonpayable",
      "type": "function"
    },
    {
      "inputs": [
        {
          "internalType": "uint256",
          "name": "",
          "type": "uint256"
        },
        {
          "internalType": "uint256",
          "name": "",
          "type": "uint256"
        }
      ],
      "name": "bids",
      "outputs": [
        {
          "internalType": "uint256",
          "name": "id",
          "type": "uint256"
        },
        {
          "internalType": "uint256",
          "name": "postId",
          "type": "uint256"
        },
        {
          "internalType": "address",
          "name": "from",
          "type": "address"
        },
        {
          "internalType": "uint256",
          "name": "amount",
          "type": "uint256"
        },
        {
          "internalType": "uint256",
          "name": "time",
          "type": "uint256"
        }
      ],
      "stateMutability": "view",
      "type": "function"
    },
    {
      "inputs": [
        {
          "internalType": "uint256",
          "name": "amount",
          "type": "uint256"
        }
      ],
      "name": "burn",
      "outputs": [],
      "stateMutability": "nonpayable",
      "type": "function"
    },
    {
      "inputs": [
        {
          "internalType": "string",
          "name": "name",
          "type": "string"
        },
        {
          "internalType": "string",
          "name": "desc",
          "type": "string"
        },
        {
          "internalType": "string",
          "name": "category",
          "type": "string"
        },
        {
          "internalType": "string",
          "name": "image",
          "type": "string"
        },
        {
          "internalType": "uint256",
          "name": "endDate",
          "type": "uint256"
        },
        {
          "internalType": "uint256",
          "name": "price",
          "type": "uint256"
        }
      ],
      "name": "createPost",
      "outputs": [],
      "stateMutability": "nonpayable",
      "type": "function"
    },
    {
      "inputs": [
        {
          "internalType": "string",
          "name": "name",
          "type": "string"
        }
      ],
      "name": "createUser",
      "outputs": [],
      "stateMutability": "nonpayable",
      "type": "function"
    },
    {
      "inputs": [],
      "name": "deleteUser",
      "outputs": [],
      "stateMutability": "nonpayable",
      "type": "function"
    },
    {
      "inputs": [
        {
          "internalType": "address",
          "name": "who",
          "type": "address"
        }
      ],
      "name": "getBalance",
      "outputs": [
        {
          "internalType": "uint256",
          "name": "",
          "type": "uint256"
        }
      ],
      "stateMutability": "view",
      "type": "function"
    },
    {
      "inputs": [
        {
          "internalType": "uint256",
          "name": "postId",
          "type": "uint256"
        }
      ],
      "name": "getBids",
      "outputs": [
        {
          "components": [
            {
              "internalType": "uint256",
              "name": "id",
              "type": "uint256"
            },
            {
              "internalType": "uint256",
              "name": "postId",
              "type": "uint256"
            },
            {
              "internalType": "address",
              "name": "from",
              "type": "address"
            },
            {
              "internalType": "uint256",
              "name": "amount",
              "type": "uint256"
            },
            {
              "internalType": "uint256",
              "name": "time",
              "type": "uint256"
            }
          ],
          "internalType": "struct EthMarket.Bid[]",
          "name": "",
          "type": "tuple[]"
        }
      ],
      "stateMutability": "view",
      "type": "function"
    },
    {
      "inputs": [],
      "name": "getCategories",
      "outputs": [
        {
          "internalType": "string[]",
          "name": "",
          "type": "string[]"
        }
      ],
      "stateMutability": "view",
      "type": "function"
    },
    {
      "inputs": [],
      "name": "getContractBalance",
      "outputs": [
        {
          "internalType": "uint256",
          "name": "",
          "type": "uint256"
        }
      ],
      "stateMutability": "view",
      "type": "function"
    },
    {
      "inputs": [
        {
          "internalType": "uint256",
          "name": "id",
          "type": "uint256"
        }
      ],
      "name": "getPost",
      "outputs": [
        {
          "components": [
            {
              "internalType": "uint256",
              "name": "id",
              "type": "uint256"
            },
            {
              "internalType": "string",
              "name": "name",
              "type": "string"
            },
            {
              "internalType": "string",
              "name": "description",
              "type": "string"
            },
            {
              "internalType": "string",
              "name": "category",
              "type": "string"
            },
            {
              "internalType": "string",
              "name": "imageUrl",
              "type": "string"
            },
            {
              "internalType": "address",
              "name": "owner",
              "type": "address"
            },
            {
              "internalType": "uint256",
              "name": "startDate",
              "type": "uint256"
            },
            {
              "internalType": "uint256",
              "name": "endDate",
              "type": "uint256"
            },
            {
              "internalType": "uint256",
              "name": "price",
              "type": "uint256"
            },
            {
              "internalType": "bool",
              "name": "sold",
              "type": "bool"
            }
          ],
          "internalType": "struct EthMarket.Post",
          "name": "",
          "type": "tuple"
        }
      ],
      "stateMutability": "view",
      "type": "function"
    },
    {
      "inputs": [],
      "name": "getPosts",
      "outputs": [
        {
          "components": [
            {
              "internalType": "uint256",
              "name": "id",
              "type": "uint256"
            },
            {
              "internalType": "string",
              "name": "name",
              "type": "string"
            },
            {
              "internalType": "string",
              "name": "description",
              "type": "string"
            },
            {
              "internalType": "string",
              "name": "category",
              "type": "string"
            },
            {
              "internalType": "string",
              "name": "imageUrl",
              "type": "string"
            },
            {
              "internalType": "address",
              "name": "owner",
              "type": "address"
            },
            {
              "internalType": "uint256",
              "name": "startDate",
              "type": "uint256"
            },
            {
              "internalType": "uint256",
              "name": "endDate",
              "type": "uint256"
            },
            {
              "internalType": "uint256",
              "name": "price",
              "type": "uint256"
            },
            {
              "internalType": "bool",
              "name": "sold",
              "type": "bool"
            }
          ],
          "internalType": "struct EthMarket.Post[]",
          "name": "",
          "type": "tuple[]"
        }
      ],
      "stateMutability": "view",
      "type": "function"
    },
    {
      "inputs": [],
      "name": "getUserPosts",
      "outputs": [
        {
          "components": [
            {
              "internalType": "uint256",
              "name": "id",
              "type": "uint256"
            },
            {
              "internalType": "string",
              "name": "name",
              "type": "string"
            },
            {
              "internalType": "string",
              "name": "description",
              "type": "string"
            },
            {
              "internalType": "string",
              "name": "category",
              "type": "string"
            },
            {
              "internalType": "string",
              "name": "imageUrl",
              "type": "string"
            },
            {
              "internalType": "address",
              "name": "owner",
              "type": "address"
            },
            {
              "internalType": "uint256",
              "name": "startDate",
              "type": "uint256"
            },
            {
              "internalType": "uint256",
              "name": "endDate",
              "type": "uint256"
            },
            {
              "internalType": "uint256",
              "name": "price",
              "type": "uint256"
            },
            {
              "internalType": "bool",
              "name": "sold",
              "type": "bool"
            }
          ],
          "internalType": "struct EthMarket.Post[]",
          "name": "",
          "type": "tuple[]"
        }
      ],
      "stateMutability": "view",
      "type": "function"
    },
    {
      "inputs": [],
      "name": "getUsername",
      "outputs": [
        {
          "internalType": "string",
          "name": "",
          "type": "string"
        }
      ],
      "stateMutability": "view",
      "type": "function"
    },
    {
      "inputs": [],
      "name": "getUsers",
      "outputs": [
        {
          "components": [
            {
              "internalType": "address",
              "name": "addr",
              "type": "address"
            },
            {
              "internalType": "string",
              "name": "name",
              "type": "string"
            },
            {
              "internalType": "uint256",
              "name": "balance",
              "type": "uint256"
            },
            {
              "internalType": "uint256[]",
              "name": "posts",
              "type": "uint256[]"
            },
            {
              "internalType": "bool",
              "name": "active",
              "type": "bool"
            }
          ],
          "internalType": "struct Users.singleUser[]",
          "name": "",
          "type": "tuple[]"
        }
      ],
      "stateMutability": "view",
      "type": "function"
    },
    {
      "inputs": [],
      "name": "isUser",
      "outputs": [
        {
          "internalType": "bool",
          "name": "",
          "type": "bool"
        }
      ],
      "stateMutability": "view",
      "type": "function"
    },
    {
      "inputs": [],
      "name": "mint",
      "outputs": [],
      "stateMutability": "payable",
      "type": "function"
    },
    {
      "inputs": [
        {
          "internalType": "uint256",
          "name": "",
          "type": "uint256"
        }
      ],
      "name": "posts",
      "outputs": [
        {
          "internalType": "uint256",
          "name": "id",
          "type": "uint256"
        },
        {
          "internalType": "string",
          "name": "name",
          "type": "string"
        },
        {
          "internalType": "string",
          "name": "description",
          "type": "string"
        },
        {
          "internalType": "string",
          "name": "category",
          "type": "string"
        },
        {
          "internalType": "string",
          "name": "imageUrl",
          "type": "string"
        },
        {
          "internalType": "address",
          "name": "owner",
          "type": "address"
        },
        {
          "internalType": "uint256",
          "name": "startDate",
          "type": "uint256"
        },
        {
          "internalType": "uint256",
          "name": "endDate",
          "type": "uint256"
        },
        {
          "internalType": "uint256",
          "name": "price",
          "type": "uint256"
        },
        {
          "internalType": "bool",
          "name": "sold",
          "type": "bool"
        }
      ],
      "stateMutability": "view",
      "type": "function"
    },
    {
      "inputs": [
        {
          "internalType": "uint256",
          "name": "postId",
          "type": "uint256"
        }
      ],
      "name": "sell",
      "outputs": [],
      "stateMutability": "nonpayable",
      "type": "function"
    }
  ],
  "bytecode": "0x60806040526040518060c001604052806040518060400160405280600581526020017f53706f727400000000000000000000000000000000000000000000000000000081525081526020016040518060400160405280600481526020017f546563680000000000000000000000000000000000000000000000000000000081525081526020016040518060400160405280600481526020017f436172730000000000000000000000000000000000000000000000000000000081525081526020016040518060400160405280600781526020017f436c6f746865730000000000000000000000000000000000000000000000000081525081526020016040518060400160405280600a81526020017f4675726e697368696e670000000000000000000000000000000000000000000081525081526020016040518060400160405280600581526020017f4f74686572000000000000000000000000000000000000000000000000000000815250815250600490600662000181929190620001ee565b503480156200018f57600080fd5b50336000806101000a81548173ffffffffffffffffffffffffffffffffffffffff021916908373ffffffffffffffffffffffffffffffffffffffff160217905550600060038190555060006008819055506000600781905550620003d8565b82805482825590600052602060002090810192821562000242579160200282015b82811115620002415782518290805190602001906200023092919062000255565b50916020019190600101906200020f565b5b509050620002519190620002e6565b5090565b828054620002639062000373565b90600052602060002090601f016020900481019282620002875760008555620002d3565b82601f10620002a257805160ff1916838001178555620002d3565b82800160010185558215620002d3579182015b82811115620002d2578251825591602001919060010190620002b5565b5b509050620002e291906200030e565b5090565b5b808211156200030a57600081816200030091906200032d565b50600101620002e7565b5090565b5b80821115620003295760008160009055506001016200030f565b5090565b5080546200033b9062000373565b6000825580601f106200034f575062000370565b601f0160209004906000526020600020908101906200036f91906200030e565b5b50565b600060028204905060018216806200038c57607f821691505b60208210811415620003a357620003a2620003a9565b5b50919050565b7f4e487b7100000000000000000000000000000000000000000000000000000000600052602260045260246000fd5b61578980620003e86000396000f3fe60806040526004361061011e5760003560e01c80634db0412c116100a05780637b3c4baa116100645780637b3c4baa146103aa5780637bc5711e146103eb578063cc4ef2cc14610414578063e4849b321461043f578063f8b2cb4f146104685761011e565b80634db0412c146102d7578063507ffba514610302578063598647f81461032b578063681f3e6d146103545780636f9fb98a1461037f5761011e565b80632e0dcbf7116100e75780632e0dcbf7146101f257806340731c241461021b57806341f3004a1461025857806342966c68146102835780634c22c119146102ac5761011e565b8062ce8e3e14610123578063026ff05e1461014e5780630b1e7f83146101655780631249c58b146101ab578063131d9a27146101b5575b600080fd5b34801561012f57600080fd5b506101386104a5565b60405161014591906148d4565b60405180910390f35b34801561015a57600080fd5b506101636108f4565b005b34801561017157600080fd5b5061018c60048036038101906101879190613d7f565b610d72565b6040516101a29a99989796959493929190614d90565b60405180910390f35b6101b3611013565b005b3480156101c157600080fd5b506101dc60048036038101906101d79190613d7f565b611180565b6040516101e99190614890565b60405180910390f35b3480156101fe57600080fd5b5061021960048036038101906102149190613c55565b6112b5565b005b34801561022757600080fd5b50610242600480360381019061023d9190613d7f565b611402565b60405161024f9190614c83565b60405180910390f35b34801561026457600080fd5b5061026d611756565b60405161027a91906148b2565b60405180910390f35b34801561028f57600080fd5b506102aa60048036038101906102a59190613d7f565b611bb4565b005b3480156102b857600080fd5b506102c1611e57565b6040516102ce91906148f6565b60405180910390f35b3480156102e357600080fd5b506102ec611ebf565b6040516102f9919061486e565b60405180910390f35b34801561030e57600080fd5b5061032960048036038101906103249190613c55565b611f98565b005b34801561033757600080fd5b50610352600480360381019061034d9190613da8565b612218565b005b34801561036057600080fd5b506103696126c3565b6040516103769190614911565b60405180910390f35b34801561038b57600080fd5b5061039461282b565b6040516103a19190614ca5565b60405180910390f35b3480156103b657600080fd5b506103d160048036038101906103cc9190613da8565b6128c2565b6040516103e2959493929190614e48565b60405180910390f35b3480156103f757600080fd5b50610412600480360381019061040d9190613c96565b612935565b005b34801561042057600080fd5b50610429612d11565b60405161043691906148b2565b60405180910390f35b34801561044b57600080fd5b5061046660048036038101906104619190613d7f565b613211565b005b34801561047457600080fd5b5061048f600480360381019061048a9190613c2c565b613640565b60405161049c9190614ca5565b60405180910390f35b606060008054906101000a900473ffffffffffffffffffffffffffffffffffffffff1673ffffffffffffffffffffffffffffffffffffffff163373ffffffffffffffffffffffffffffffffffffffff1614610535576040517f08c379a000000000000000000000000000000000000000000000000000000000815260040161052c90614a83565b60405180910390fd5b600060028054905067ffffffffffffffff81111561057c577f4e487b7100000000000000000000000000000000000000000000000000000000600052604160045260246000fd5b6040519080825280602002602001820160405280156105b557816020015b6105a26139f8565b81526020019060019003908161059a5790505b50905060005b6002805490508110156108ec576001600060028381548110610606577f4e487b7100000000000000000000000000000000000000000000000000000000600052603260045260246000fd5b9060005260206000200160009054906101000a900473ffffffffffffffffffffffffffffffffffffffff1673ffffffffffffffffffffffffffffffffffffffff1673ffffffffffffffffffffffffffffffffffffffff16815260200190815260200160002060040160009054906101000a900460ff16156108d95760016000600283815481106106bf577f4e487b7100000000000000000000000000000000000000000000000000000000600052603260045260246000fd5b9060005260206000200160009054906101000a900473ffffffffffffffffffffffffffffffffffffffff1673ffffffffffffffffffffffffffffffffffffffff1673ffffffffffffffffffffffffffffffffffffffff1681526020019081526020016000206040518060a00160405290816000820160009054906101000a900473ffffffffffffffffffffffffffffffffffffffff1673ffffffffffffffffffffffffffffffffffffffff1673ffffffffffffffffffffffffffffffffffffffff16815260200160018201805461079590615165565b80601f01602080910402602001604051908101604052809291908181526020018280546107c190615165565b801561080e5780601f106107e35761010080835404028352916020019161080e565b820191906000526020600020905b8154815290600101906020018083116107f157829003601f168201915b50505050508152602001600282015481526020016003820180548060200260200160405190810160405280929190818152602001828054801561087057602002820191906000526020600020905b81548152602001906001019080831161085c575b505050505081526020016004820160009054906101000a900460ff1615151515815250508282815181106108cd577f4e487b7100000000000000000000000000000000000000000000000000000000600052603260045260246000fd5b60200260200101819052505b80806108e4906151c8565b9150506105bb565b508091505090565b60011515600160003373ffffffffffffffffffffffffffffffffffffffff1673ffffffffffffffffffffffffffffffffffffffff16815260200190815260200160002060040160009054906101000a900460ff1615151461098a576040517f08c379a000000000000000000000000000000000000000000000000000000000815260040161098190614c23565b60405180910390fd5b6000600160003373ffffffffffffffffffffffffffffffffffffffff1673ffffffffffffffffffffffffffffffffffffffff168152602001908152602001600020600201541115610ac8576000803373ffffffffffffffffffffffffffffffffffffffff16600160003373ffffffffffffffffffffffffffffffffffffffff1673ffffffffffffffffffffffffffffffffffffffff16815260200190815260200160002060020154604051610a3e906147d0565b60006040518083038185875af1925050503d8060008114610a7b576040519150601f19603f3d011682016040523d82523d6000602084013e610a80565b606091505b509150915081610ac5576040517f08c379a0000000000000000000000000000000000000000000000000000000008152600401610abc90614ac3565b60405180910390fd5b50505b60606040518060a00160405280600073ffffffffffffffffffffffffffffffffffffffff1681526020016040518060200160405280600081525081526020016000815260200182815260200160001515815250600160003373ffffffffffffffffffffffffffffffffffffffff1673ffffffffffffffffffffffffffffffffffffffff16815260200190815260200160002060008201518160000160006101000a81548173ffffffffffffffffffffffffffffffffffffffff021916908373ffffffffffffffffffffffffffffffffffffffff1602179055506020820151816001019080519060200190610bbd929190613a3f565b50604082015181600201556060820151816003019080519060200190610be4929190613ac5565b5060808201518160040160006101000a81548160ff02191690831515021790555090505060005b3373ffffffffffffffffffffffffffffffffffffffff1660028281548110610c5c577f4e487b7100000000000000000000000000000000000000000000000000000000600052603260045260246000fd5b9060005260206000200160009054906101000a900473ffffffffffffffffffffffffffffffffffffffff1673ffffffffffffffffffffffffffffffffffffffff1614610cb657600181610caf9190615051565b9050610c0b565b60028181548110610cf0577f4e487b7100000000000000000000000000000000000000000000000000000000600052603260045260246000fd5b9060005260206000200160006101000a81549073ffffffffffffffffffffffffffffffffffffffff0219169055600160036000828254610d3091906150a7565b925050819055507f4bc56f1321288dfb5b416cb3a7fd188723979f9e866c91d88eccf7fca039d03933604051610d6691906147e5565b60405180910390a15050565b6005602052806000526040600020600091509050806000015490806001018054610d9b90615165565b80601f0160208091040260200160405190810160405280929190818152602001828054610dc790615165565b8015610e145780601f10610de957610100808354040283529160200191610e14565b820191906000526020600020905b815481529060010190602001808311610df757829003601f168201915b505050505090806002018054610e2990615165565b80601f0160208091040260200160405190810160405280929190818152602001828054610e5590615165565b8015610ea25780601f10610e7757610100808354040283529160200191610ea2565b820191906000526020600020905b815481529060010190602001808311610e8557829003601f168201915b505050505090806003018054610eb790615165565b80601f0160208091040260200160405190810160405280929190818152602001828054610ee390615165565b8015610f305780601f10610f0557610100808354040283529160200191610f30565b820191906000526020600020905b815481529060010190602001808311610f1357829003601f168201915b505050505090806004018054610f4590615165565b80601f0160208091040260200160405190810160405280929190818152602001828054610f7190615165565b8015610fbe5780601f10610f9357610100808354040283529160200191610fbe565b820191906000526020600020905b815481529060010190602001808311610fa157829003601f168201915b5050505050908060050160009054906101000a900473ffffffffffffffffffffffffffffffffffffffff16908060060154908060070154908060080154908060090160009054906101000a900460ff1690508a565b60011515600160003373ffffffffffffffffffffffffffffffffffffffff1673ffffffffffffffffffffffffffffffffffffffff16815260200190815260200160002060040160009054906101000a900460ff161515146110a9576040517f08c379a00000000000000000000000000000000000000000000000000000000081526004016110a090614c23565b60405180910390fd5b600034116110ec576040517f08c379a00000000000000000000000000000000000000000000000000000000081526004016110e390614b43565b60405180910390fd5b34600160003373ffffffffffffffffffffffffffffffffffffffff1673ffffffffffffffffffffffffffffffffffffffff168152602001908152602001600020600201600082825461113e9190615051565b925050819055507fe1fffcc4923d04b559f4d29a8bfc6cda04eb5b0d3c460751c2402c5c5cc9109c3334604051611176929190614800565b60405180910390a1565b60606007548211156111c7576040517f08c379a00000000000000000000000000000000000000000000000000000000081526004016111be90614a63565b60405180910390fd5b60066000838152602001908152602001600020805480602002602001604051908101604052809291908181526020016000905b828210156112aa57838290600052602060002090600502016040518060a001604052908160008201548152602001600182015481526020016002820160009054906101000a900473ffffffffffffffffffffffffffffffffffffffff1673ffffffffffffffffffffffffffffffffffffffff1673ffffffffffffffffffffffffffffffffffffffff16815260200160038201548152602001600482015481525050815260200190600101906111fa565b505050509050919050565b6112be81613789565b156112fe576040517f08c379a00000000000000000000000000000000000000000000000000000000081526004016112f590614aa3565b60405180910390fd5b60008054906101000a900473ffffffffffffffffffffffffffffffffffffffff1673ffffffffffffffffffffffffffffffffffffffff163373ffffffffffffffffffffffffffffffffffffffff161461138c576040517f08c379a000000000000000000000000000000000000000000000000000000000815260040161138390614c43565b60405180910390fd5b6004819080600181540180825580915050600190039060005260206000200160009091909190915090805190602001906113c7929190613a3f565b507f5d184107cf80dc717ee2e108aad943e965417309735e1c460ba42f57a54f2a0d816040516113f79190614911565b60405180910390a150565b61140a613b12565b60075482111561144f576040517f08c379a000000000000000000000000000000000000000000000000000000000815260040161144690614a63565b60405180910390fd5b60056000838152602001908152602001600020604051806101400160405290816000820154815260200160018201805461148890615165565b80601f01602080910402602001604051908101604052809291908181526020018280546114b490615165565b80156115015780601f106114d657610100808354040283529160200191611501565b820191906000526020600020905b8154815290600101906020018083116114e457829003601f168201915b5050505050815260200160028201805461151a90615165565b80601f016020809104026020016040519081016040528092919081815260200182805461154690615165565b80156115935780601f1061156857610100808354040283529160200191611593565b820191906000526020600020905b81548152906001019060200180831161157657829003601f168201915b505050505081526020016003820180546115ac90615165565b80601f01602080910402602001604051908101604052809291908181526020018280546115d890615165565b80156116255780601f106115fa57610100808354040283529160200191611625565b820191906000526020600020905b81548152906001019060200180831161160857829003601f168201915b5050505050815260200160048201805461163e90615165565b80601f016020809104026020016040519081016040528092919081815260200182805461166a90615165565b80156116b75780601f1061168c576101008083540402835291602001916116b7565b820191906000526020600020905b81548152906001019060200180831161169a57829003601f168201915b505050505081526020016005820160009054906101000a900473ffffffffffffffffffffffffffffffffffffffff1673ffffffffffffffffffffffffffffffffffffffff1673ffffffffffffffffffffffffffffffffffffffff1681526020016006820154815260200160078201548152602001600882015481526020016009820160009054906101000a900460ff1615151515815250509050919050565b6060600060075467ffffffffffffffff81111561179c577f4e487b7100000000000000000000000000000000000000000000000000000000600052604160045260246000fd5b6040519080825280602002602001820160405280156117d557816020015b6117c2613b12565b8152602001906001900390816117ba5790505b50905060005b600754811015611bac57600560006001836117f69190615051565b815260200190815260200160002060090160009054906101000a900460ff161580156118435750426005600060018461182f9190615051565b815260200190815260200160002060070154115b15611b9957600560006001836118599190615051565b8152602001908152602001600020604051806101400160405290816000820154815260200160018201805461188d90615165565b80601f01602080910402602001604051908101604052809291908181526020018280546118b990615165565b80156119065780601f106118db57610100808354040283529160200191611906565b820191906000526020600020905b8154815290600101906020018083116118e957829003601f168201915b5050505050815260200160028201805461191f90615165565b80601f016020809104026020016040519081016040528092919081815260200182805461194b90615165565b80156119985780601f1061196d57610100808354040283529160200191611998565b820191906000526020600020905b81548152906001019060200180831161197b57829003601f168201915b505050505081526020016003820180546119b190615165565b80601f01602080910402602001604051908101604052809291908181526020018280546119dd90615165565b8015611a2a5780601f106119ff57610100808354040283529160200191611a2a565b820191906000526020600020905b815481529060010190602001808311611a0d57829003601f168201915b50505050508152602001600482018054611a4390615165565b80601f0160208091040260200160405190810160405280929190818152602001828054611a6f90615165565b8015611abc5780601f10611a9157610100808354040283529160200191611abc565b820191906000526020600020905b815481529060010190602001808311611a9f57829003601f168201915b505050505081526020016005820160009054906101000a900473ffffffffffffffffffffffffffffffffffffffff1673ffffffffffffffffffffffffffffffffffffffff1673ffffffffffffffffffffffffffffffffffffffff1681526020016006820154815260200160078201548152602001600882015481526020016009820160009054906101000a900460ff161515151581525050828281518110611b8d577f4e487b7100000000000000000000000000000000000000000000000000000000600052603260045260246000fd5b60200260200101819052505b8080611ba4906151c8565b9150506117db565b508091505090565b60011515600160003373ffffffffffffffffffffffffffffffffffffffff1673ffffffffffffffffffffffffffffffffffffffff16815260200190815260200160002060040160009054906101000a900460ff16151514611c4a576040517f08c379a0000000000000000000000000000000000000000000000000000000008152600401611c4190614c23565b60405180910390fd5b60008111611c8d576040517f08c379a0000000000000000000000000000000000000000000000000000000008152600401611c8490614c63565b60405180910390fd5b80600160003373ffffffffffffffffffffffffffffffffffffffff1673ffffffffffffffffffffffffffffffffffffffff168152602001908152602001600020600201541015611d12576040517f08c379a0000000000000000000000000000000000000000000000000000000008152600401611d0990614c03565b60405180910390fd5b6000803373ffffffffffffffffffffffffffffffffffffffff1683604051611d39906147d0565b60006040518083038185875af1925050503d8060008114611d76576040519150601f19603f3d011682016040523d82523d6000602084013e611d7b565b606091505b509150915081611dc0576040517f08c379a0000000000000000000000000000000000000000000000000000000008152600401611db790614ac3565b60405180910390fd5b82600160003373ffffffffffffffffffffffffffffffffffffffff1673ffffffffffffffffffffffffffffffffffffffff1681526020019081526020016000206002016000828254611e1291906150a7565b925050819055507fcc16f5dbb4873280815c1ee09dbd06736cffcc184412cf7a71a0fdb75d397ca53384604051611e4a929190614800565b60405180910390a1505050565b6000600160003373ffffffffffffffffffffffffffffffffffffffff1673ffffffffffffffffffffffffffffffffffffffff16815260200190815260200160002060040160009054906101000a900460ff1615611eb75760019050611ebc565b600090505b90565b60606004805480602002602001604051908101604052809291908181526020016000905b82821015611f8f578382906000526020600020018054611f0290615165565b80601f0160208091040260200160405190810160405280929190818152602001828054611f2e90615165565b8015611f7b5780601f10611f5057610100808354040283529160200191611f7b565b820191906000526020600020905b815481529060010190602001808311611f5e57829003601f168201915b505050505081526020019060010190611ee3565b50505050905090565b60001515600160003373ffffffffffffffffffffffffffffffffffffffff1673ffffffffffffffffffffffffffffffffffffffff16815260200190815260200160002060040160009054906101000a900460ff1615151461202e576040517f08c379a000000000000000000000000000000000000000000000000000000000815260040161202590614983565b60405180910390fd5b60606040518060a001604052803373ffffffffffffffffffffffffffffffffffffffff1681526020018381526020016000815260200182815260200160011515815250600160003373ffffffffffffffffffffffffffffffffffffffff1673ffffffffffffffffffffffffffffffffffffffff16815260200190815260200160002060008201518160000160006101000a81548173ffffffffffffffffffffffffffffffffffffffff021916908373ffffffffffffffffffffffffffffffffffffffff1602179055506020820151816001019080519060200190612113929190613a3f565b5060408201518160020155606082015181600301908051906020019061213a929190613ac5565b5060808201518160040160006101000a81548160ff0219169083151502179055509050506002339080600181540180825580915050600190039060005260206000200160009091909190916101000a81548173ffffffffffffffffffffffffffffffffffffffff021916908373ffffffffffffffffffffffffffffffffffffffff1602179055506001600360008282546121d49190615051565b925050819055507f673b132bfab7898651385299bf51a81f5d71d70c785d2c713bce0b05613b9518823360405161220c929190614933565b60405180910390a15050565b8061222233613640565b1015612263576040517f08c379a000000000000000000000000000000000000000000000000000000000815260040161225a90614ae3565b60405180910390fd5b6005600083815260200190815260200160002060050160009054906101000a900473ffffffffffffffffffffffffffffffffffffffff1673ffffffffffffffffffffffffffffffffffffffff163373ffffffffffffffffffffffffffffffffffffffff161415612308576040517f08c379a00000000000000000000000000000000000000000000000000000000081526004016122ff90614a03565b60405180910390fd5b600060066000848152602001908152602001600020805490509050600081111561252057816006600085815260200190815260200160002060018361234d91906150a7565b81548110612384577f4e487b7100000000000000000000000000000000000000000000000000000000600052603260045260246000fd5b906000526020600020906005020160030154106123d6576040517f08c379a00000000000000000000000000000000000000000000000000000000081526004016123cd90614a23565b60405180910390fd5b600660008481526020019081526020016000206001826123f691906150a7565b8154811061242d577f4e487b7100000000000000000000000000000000000000000000000000000000600052603260045260246000fd5b906000526020600020906005020160030154600160006006600087815260200190815260200160002060018561246391906150a7565b8154811061249a577f4e487b7100000000000000000000000000000000000000000000000000000000600052603260045260246000fd5b906000526020600020906005020160020160009054906101000a900473ffffffffffffffffffffffffffffffffffffffff1673ffffffffffffffffffffffffffffffffffffffff1673ffffffffffffffffffffffffffffffffffffffff16815260200190815260200160002060020160008282546125189190615051565b925050819055505b6001600860008282546125339190615051565b92505081905550600660008481526020019081526020016000206040518060a0016040528060085481526020018581526020013373ffffffffffffffffffffffffffffffffffffffff168152602001848152602001428152509080600181540180825580915050600190039060005260206000209060050201600090919091909150600082015181600001556020820151816001015560408201518160020160006101000a81548173ffffffffffffffffffffffffffffffffffffffff021916908373ffffffffffffffffffffffffffffffffffffffff1602179055506060820151816003015560808201518160040155505081600160003373ffffffffffffffffffffffffffffffffffffffff1673ffffffffffffffffffffffffffffffffffffffff168152602001908152602001600020600201600082825461267891906150a7565b925050819055507fa4f371487bb360f38a002aad1c1345c3c98cbdef491047055d54f0811fcdb28e3360085485856040516126b69493929190614829565b60405180910390a1505050565b606060011515600160003373ffffffffffffffffffffffffffffffffffffffff1673ffffffffffffffffffffffffffffffffffffffff16815260200190815260200160002060040160009054906101000a900460ff1615151461275b576040517f08c379a000000000000000000000000000000000000000000000000000000000815260040161275290614c23565b60405180910390fd5b600160003373ffffffffffffffffffffffffffffffffffffffff1673ffffffffffffffffffffffffffffffffffffffff16815260200190815260200160002060010180546127a890615165565b80601f01602080910402602001604051908101604052809291908181526020018280546127d490615165565b80156128215780601f106127f657610100808354040283529160200191612821565b820191906000526020600020905b81548152906001019060200180831161280457829003601f168201915b5050505050905090565b60008060009054906101000a900473ffffffffffffffffffffffffffffffffffffffff1673ffffffffffffffffffffffffffffffffffffffff163373ffffffffffffffffffffffffffffffffffffffff16146128bc576040517f08c379a00000000000000000000000000000000000000000000000000000000081526004016128b390614a83565b60405180910390fd5b47905090565b600660205281600052604060002081815481106128de57600080fd5b9060005260206000209060050201600091509150508060000154908060010154908060020160009054906101000a900473ffffffffffffffffffffffffffffffffffffffff16908060030154908060040154905085565b8585848484612953856040518060200160405280600081525061389d565b15612993576040517f08c379a000000000000000000000000000000000000000000000000000000000815260040161298a90614be3565b60405180910390fd5b6129ac846040518060200160405280600081525061389d565b156129ec576040517f08c379a00000000000000000000000000000000000000000000000000000000081526004016129e390614963565b60405180910390fd5b612a05836040518060200160405280600081525061389d565b15612a45576040517f08c379a0000000000000000000000000000000000000000000000000000000008152600401612a3c90614ba3565b60405180910390fd5b428211612a87576040517f08c379a0000000000000000000000000000000000000000000000000000000008152600401612a7e90614b83565b60405180910390fd5b60008111612aca576040517f08c379a0000000000000000000000000000000000000000000000000000000008152600401612ac1906149a3565b60405180910390fd5b612ad389613789565b612b12576040517f08c379a0000000000000000000000000000000000000000000000000000000008152600401612b09906149c3565b60405180910390fd5b612b1b89613789565b50600160076000828254612b2f9190615051565b9250508190555060405180610140016040528060075481526020018c81526020018b81526020018a81526020018981526020013373ffffffffffffffffffffffffffffffffffffffff16815260200142815260200188815260200187815260200160001515815250600560006007548152602001908152602001600020600082015181600001556020820151816001019080519060200190612bd2929190613a3f565b506040820151816002019080519060200190612bef929190613a3f565b506060820151816003019080519060200190612c0c929190613a3f565b506080820151816004019080519060200190612c29929190613a3f565b5060a08201518160050160006101000a81548173ffffffffffffffffffffffffffffffffffffffff021916908373ffffffffffffffffffffffffffffffffffffffff16021790555060c0820151816006015560e0820151816007015561010082015181600801556101208201518160090160006101000a81548160ff021916908315150217905550905050612cbf6007546138f6565b7f46217e9d4d088b96134f1a6b154910ad12e08600e02982d8c16d5397399c67f76007548c8c8c8c338c604051612cfc9796959493929190614d05565b60405180910390a15050505050505050505050565b6060612d1b611e57565b612d5a576040517f08c379a0000000000000000000000000000000000000000000000000000000008152600401612d5190614b23565b60405180910390fd5b6000600160003373ffffffffffffffffffffffffffffffffffffffff1673ffffffffffffffffffffffffffffffffffffffff16815260200190815260200160002060030180549050905060008167ffffffffffffffff811115612de6577f4e487b7100000000000000000000000000000000000000000000000000000000600052604160045260246000fd5b604051908082528060200260200182016040528015612e1f57816020015b612e0c613b12565b815260200190600190039081612e045790505b50905060005b828110156132085760056000600160003373ffffffffffffffffffffffffffffffffffffffff1673ffffffffffffffffffffffffffffffffffffffff1681526020019081526020016000206003018381548110612eab577f4e487b7100000000000000000000000000000000000000000000000000000000600052603260045260246000fd5b906000526020600020015481526020019081526020016000206040518061014001604052908160008201548152602001600182018054612eea90615165565b80601f0160208091040260200160405190810160405280929190818152602001828054612f1690615165565b8015612f635780601f10612f3857610100808354040283529160200191612f63565b820191906000526020600020905b815481529060010190602001808311612f4657829003601f168201915b50505050508152602001600282018054612f7c90615165565b80601f0160208091040260200160405190810160405280929190818152602001828054612fa890615165565b8015612ff55780601f10612fca57610100808354040283529160200191612ff5565b820191906000526020600020905b815481529060010190602001808311612fd857829003601f168201915b5050505050815260200160038201805461300e90615165565b80601f016020809104026020016040519081016040528092919081815260200182805461303a90615165565b80156130875780601f1061305c57610100808354040283529160200191613087565b820191906000526020600020905b81548152906001019060200180831161306a57829003601f168201915b505050505081526020016004820180546130a090615165565b80601f01602080910402602001604051908101604052809291908181526020018280546130cc90615165565b80156131195780601f106130ee57610100808354040283529160200191613119565b820191906000526020600020905b8154815290600101906020018083116130fc57829003601f168201915b505050505081526020016005820160009054906101000a900473ffffffffffffffffffffffffffffffffffffffff1673ffffffffffffffffffffffffffffffffffffffff1673ffffffffffffffffffffffffffffffffffffffff1681526020016006820154815260200160078201548152602001600882015481526020016009820160009054906101000a900460ff1615151515815250508282815181106131ea577f4e487b7100000000000000000000000000000000000000000000000000000000600052603260045260246000fd5b60200260200101819052508080613200906151c8565b915050612e25565b50809250505090565b80426005600083815260200190815260200160002060070154111561326b576040517f08c379a000000000000000000000000000000000000000000000000000000000815260040161326290614a43565b60405180910390fd5b816007548111156132b1576040517f08c379a00000000000000000000000000000000000000000000000000000000081526004016132a8906149e3565b60405180910390fd5b6005600082815260200190815260200160002060090160009054906101000a900460ff1615613315576040517f08c379a000000000000000000000000000000000000000000000000000000000815260040161330c90614b03565b60405180910390fd5b82600060066000838152602001908152602001600020805490501161336f576040517f08c379a000000000000000000000000000000000000000000000000000000000815260040161336690614b63565b60405180910390fd5b60066000858152602001908152602001600020600160066000878152602001908152602001600020805490506133a591906150a7565b815481106133dc577f4e487b7100000000000000000000000000000000000000000000000000000000600052603260045260246000fd5b906000526020600020906005020160030154600160006005600088815260200190815260200160002060050160009054906101000a900473ffffffffffffffffffffffffffffffffffffffff1673ffffffffffffffffffffffffffffffffffffffff1673ffffffffffffffffffffffffffffffffffffffff16815260200190815260200160002060020160008282546134759190615051565b9250508190555060016005600086815260200190815260200160002060090160006101000a81548160ff0219169083151502179055507f23f50d55776d8003622a982ade45a6c7f083116c8dbbcd980f59942f440badb1846005600087815260200190815260200160002060050160009054906101000a900473ffffffffffffffffffffffffffffffffffffffff16600660008881526020019081526020016000206001600660008a81526020019081526020016000208054905061353a91906150a7565b81548110613571577f4e487b7100000000000000000000000000000000000000000000000000000000600052603260045260246000fd5b906000526020600020906005020160020160009054906101000a900473ffffffffffffffffffffffffffffffffffffffff16600660008981526020019081526020016000206001600660008b8152602001908152602001600020805490506135d991906150a7565b81548110613610577f4e487b7100000000000000000000000000000000000000000000000000000000600052603260045260246000fd5b9060005260206000209060050201600301546040516136329493929190614cc0565b60405180910390a150505050565b6000600160008373ffffffffffffffffffffffffffffffffffffffff1673ffffffffffffffffffffffffffffffffffffffff16815260200190815260200160002060040160009054906101000a900460ff166136d1576040517f08c379a00000000000000000000000000000000000000000000000000000000081526004016136c890614c23565b60405180910390fd5b3373ffffffffffffffffffffffffffffffffffffffff168273ffffffffffffffffffffffffffffffffffffffff161461373f576040517f08c379a000000000000000000000000000000000000000000000000000000000815260040161373690614bc3565b60405180910390fd5b600160008373ffffffffffffffffffffffffffffffffffffffff1673ffffffffffffffffffffffffffffffffffffffff168152602001908152602001600020600201549050919050565b6000806000905060005b60048054905081101561389357613876600482815481106137dd577f4e487b7100000000000000000000000000000000000000000000000000000000600052603260045260246000fd5b9060005260206000200180546137f290615165565b80601f016020809104026020016040519081016040528092919081815260200182805461381e90615165565b801561386b5780601f106138405761010080835404028352916020019161386b565b820191906000526020600020905b81548152906001019060200180831161384e57829003601f168201915b50505050508561389d565b1561388057600191505b808061388b906151c8565b915050613793565b5080915050919050565b6000816040516020016138b091906147b9565b60405160208183030381529060405280519060200120836040516020016138d791906147b9565b6040516020818303038152906040528051906020012014905092915050565b60011515600160003373ffffffffffffffffffffffffffffffffffffffff1673ffffffffffffffffffffffffffffffffffffffff16815260200190815260200160002060040160009054906101000a900460ff1615151461398c576040517f08c379a000000000000000000000000000000000000000000000000000000000815260040161398390614c23565b60405180910390fd5b600160003373ffffffffffffffffffffffffffffffffffffffff1673ffffffffffffffffffffffffffffffffffffffff16815260200190815260200160002060030181908060018154018082558091505060019003906000526020600020016000909190919091505550565b6040518060a00160405280600073ffffffffffffffffffffffffffffffffffffffff1681526020016060815260200160008152602001606081526020016000151581525090565b828054613a4b90615165565b90600052602060002090601f016020900481019282613a6d5760008555613ab4565b82601f10613a8657805160ff1916838001178555613ab4565b82800160010185558215613ab4579182015b82811115613ab3578251825591602001919060010190613a98565b5b509050613ac19190613b7d565b5090565b828054828255906000526020600020908101928215613b01579160200282015b82811115613b00578251825591602001919060010190613ae5565b5b509050613b0e9190613b7d565b5090565b6040518061014001604052806000815260200160608152602001606081526020016060815260200160608152602001600073ffffffffffffffffffffffffffffffffffffffff1681526020016000815260200160008152602001600081526020016000151581525090565b5b80821115613b96576000816000905550600101613b7e565b5090565b6000613bad613ba884614ec0565b614e9b565b905082815260208101848484011115613bc557600080fd5b613bd0848285615123565b509392505050565b600081359050613be781615725565b92915050565b600082601f830112613bfe57600080fd5b8135613c0e848260208601613b9a565b91505092915050565b600081359050613c268161573c565b92915050565b600060208284031215613c3e57600080fd5b6000613c4c84828501613bd8565b91505092915050565b600060208284031215613c6757600080fd5b600082013567ffffffffffffffff811115613c8157600080fd5b613c8d84828501613bed565b91505092915050565b60008060008060008060c08789031215613caf57600080fd5b600087013567ffffffffffffffff811115613cc957600080fd5b613cd589828a01613bed565b965050602087013567ffffffffffffffff811115613cf257600080fd5b613cfe89828a01613bed565b955050604087013567ffffffffffffffff811115613d1b57600080fd5b613d2789828a01613bed565b945050606087013567ffffffffffffffff811115613d4457600080fd5b613d5089828a01613bed565b9350506080613d6189828a01613c17565b92505060a0613d7289828a01613c17565b9150509295509295509295565b600060208284031215613d9157600080fd5b6000613d9f84828501613c17565b91505092915050565b60008060408385031215613dbb57600080fd5b6000613dc985828601613c17565b9250506020613dda85828601613c17565b9150509250929050565b6000613df083836140a7565b905092915050565b6000613e0483836144d8565b60a08301905092915050565b6000613e1c8383614540565b905092915050565b6000613e30838361471e565b905092915050565b6000613e44838361479b565b60208301905092915050565b613e59816150db565b82525050565b613e68816150db565b82525050565b6000613e7982614f41565b613e838185614fc4565b935083602082028501613e9585614ef1565b8060005b85811015613ed15784840389528151613eb28582613de4565b9450613ebd83614f83565b925060208a01995050600181019050613e99565b50829750879550505050505092915050565b6000613eee82614f4c565b613ef88185614fd5565b9350613f0383614f01565b8060005b83811015613f34578151613f1b8882613df8565b9750613f2683614f90565b925050600181019050613f07565b5085935050505092915050565b6000613f4c82614f57565b613f568185614fe6565b935083602082028501613f6885614f11565b8060005b85811015613fa45784840389528151613f858582613e10565b9450613f9083614f9d565b925060208a01995050600181019050613f6c565b50829750879550505050505092915050565b6000613fc182614f62565b613fcb8185614ff7565b935083602082028501613fdd85614f21565b8060005b858110156140195784840389528151613ffa8582613e24565b945061400583614faa565b925060208a01995050600181019050613fe1565b50829750879550505050505092915050565b600061403682614f6d565b6140408185615008565b935061404b83614f31565b8060005b8381101561407c5781516140638882613e38565b975061406e83614fb7565b92505060018101905061404f565b5085935050505092915050565b614092816150ed565b82525050565b6140a1816150ed565b82525050565b60006140b282614f78565b6140bc8185615024565b93506140cc818560208601615132565b6140d58161529e565b840191505092915050565b60006140eb82614f78565b6140f58185615035565b9350614105818560208601615132565b61410e8161529e565b840191505092915050565b600061412482614f78565b61412e8185615046565b935061413e818560208601615132565b80840191505092915050565b6000614157601a83615035565b9150614162826152af565b602082019050919050565b600061417a602083615035565b9150614185826152d8565b602082019050919050565b600061419d601c83615035565b91506141a882615301565b602082019050919050565b60006141c0601083615035565b91506141cb8261532a565b602082019050919050565b60006141e3600a83615035565b91506141ee82615353565b602082019050919050565b6000614206601a83615035565b91506142118261537c565b602082019050919050565b6000614229601683615035565b9150614234826153a5565b602082019050919050565b600061424c601083615035565b9150614257826153ce565b602082019050919050565b600061426f600d83615035565b915061427a826153f7565b602082019050919050565b6000614292601583615035565b915061429d82615420565b602082019050919050565b60006142b5601783615035565b91506142c082615449565b602082019050919050565b60006142d8601483615035565b91506142e382615472565b602082019050919050565b60006142fb601b83615035565b91506143068261549b565b602082019050919050565b600061431e601183615035565b9150614329826154c4565b602082019050919050565b6000614341601283615035565b915061434c826154ed565b602082019050919050565b6000614364601683615035565b915061436f82615516565b602082019050919050565b6000614387601f83615035565b91506143928261553f565b602082019050919050565b60006143aa601c83615035565b91506143b582615568565b602082019050919050565b60006143cd601883615035565b91506143d882615591565b602082019050919050565b60006143f0602d83615035565b91506143fb826155ba565b604082019050919050565b6000614413601383615035565b915061441e82615609565b602082019050919050565b6000614436601b83615035565b915061444182615632565b602082019050919050565b6000614459601283615035565b91506144648261565b565b602082019050919050565b600061447c600083615019565b915061448782615684565b600082019050919050565b600061449f602583615035565b91506144aa82615687565b604082019050919050565b60006144c2602c83615035565b91506144cd826156d6565b604082019050919050565b60a0820160008201516144ee600085018261479b565b506020820151614501602085018261479b565b5060408201516145146040850182613e50565b506060820151614527606085018261479b565b50608082015161453a608085018261479b565b50505050565b600061014083016000830151614559600086018261479b565b506020830151848203602086015261457182826140a7565b9150506040830151848203604086015261458b82826140a7565b915050606083015184820360608601526145a582826140a7565b915050608083015184820360808601526145bf82826140a7565b91505060a08301516145d460a0860182613e50565b5060c08301516145e760c086018261479b565b5060e08301516145fa60e086018261479b565b5061010083015161460f61010086018261479b565b50610120830151614624610120860182614089565b508091505092915050565b600061014083016000830151614648600086018261479b565b506020830151848203602086015261466082826140a7565b9150506040830151848203604086015261467a82826140a7565b9150506060830151848203606086015261469482826140a7565b915050608083015184820360808601526146ae82826140a7565b91505060a08301516146c360a0860182613e50565b5060c08301516146d660c086018261479b565b5060e08301516146e960e086018261479b565b506101008301516146fe61010086018261479b565b50610120830151614713610120860182614089565b508091505092915050565b600060a0830160008301516147366000860182613e50565b506020830151848203602086015261474e82826140a7565b9150506040830151614763604086018261479b565b506060830151848203606086015261477b828261402b565b91505060808301516147906080860182614089565b508091505092915050565b6147a481615119565b82525050565b6147b381615119565b82525050565b60006147c58284614119565b915081905092915050565b60006147db8261446f565b9150819050919050565b60006020820190506147fa6000830184613e5f565b92915050565b60006040820190506148156000830185613e5f565b61482260208301846147aa565b9392505050565b600060808201905061483e6000830187613e5f565b61484b60208301866147aa565b61485860408301856147aa565b61486560608301846147aa565b95945050505050565b600060208201905081810360008301526148888184613e6e565b905092915050565b600060208201905081810360008301526148aa8184613ee3565b905092915050565b600060208201905081810360008301526148cc8184613f41565b905092915050565b600060208201905081810360008301526148ee8184613fb6565b905092915050565b600060208201905061490b6000830184614098565b92915050565b6000602082019050818103600083015261492b81846140e0565b905092915050565b6000604082019050818103600083015261494d81856140e0565b905061495c6020830184613e5f565b9392505050565b6000602082019050818103600083015261497c8161414a565b9050919050565b6000602082019050818103600083015261499c8161416d565b9050919050565b600060208201905081810360008301526149bc81614190565b9050919050565b600060208201905081810360008301526149dc816141b3565b9050919050565b600060208201905081810360008301526149fc816141d6565b9050919050565b60006020820190508181036000830152614a1c816141f9565b9050919050565b60006020820190508181036000830152614a3c8161421c565b9050919050565b60006020820190508181036000830152614a5c8161423f565b9050919050565b60006020820190508181036000830152614a7c81614262565b9050919050565b60006020820190508181036000830152614a9c81614285565b9050919050565b60006020820190508181036000830152614abc816142a8565b9050919050565b60006020820190508181036000830152614adc816142cb565b9050919050565b60006020820190508181036000830152614afc816142ee565b9050919050565b60006020820190508181036000830152614b1c81614311565b9050919050565b60006020820190508181036000830152614b3c81614334565b9050919050565b60006020820190508181036000830152614b5c81614357565b9050919050565b60006020820190508181036000830152614b7c8161437a565b9050919050565b60006020820190508181036000830152614b9c8161439d565b9050919050565b60006020820190508181036000830152614bbc816143c0565b9050919050565b60006020820190508181036000830152614bdc816143e3565b9050919050565b60006020820190508181036000830152614bfc81614406565b9050919050565b60006020820190508181036000830152614c1c81614429565b9050919050565b60006020820190508181036000830152614c3c8161444c565b9050919050565b60006020820190508181036000830152614c5c81614492565b9050919050565b60006020820190508181036000830152614c7c816144b5565b9050919050565b60006020820190508181036000830152614c9d818461462f565b905092915050565b6000602082019050614cba60008301846147aa565b92915050565b6000608082019050614cd560008301876147aa565b614ce26020830186613e5f565b614cef6040830185613e5f565b614cfc60608301846147aa565b95945050505050565b600060e082019050614d1a600083018a6147aa565b8181036020830152614d2c81896140e0565b90508181036040830152614d4081886140e0565b90508181036060830152614d5481876140e0565b90508181036080830152614d6881866140e0565b9050614d7760a0830185613e5f565b614d8460c08301846147aa565b98975050505050505050565b600061014082019050614da6600083018d6147aa565b8181036020830152614db8818c6140e0565b90508181036040830152614dcc818b6140e0565b90508181036060830152614de0818a6140e0565b90508181036080830152614df481896140e0565b9050614e0360a0830188613e5f565b614e1060c08301876147aa565b614e1d60e08301866147aa565b614e2b6101008301856147aa565b614e39610120830184614098565b9b9a5050505050505050505050565b600060a082019050614e5d60008301886147aa565b614e6a60208301876147aa565b614e776040830186613e5f565b614e8460608301856147aa565b614e9160808301846147aa565b9695505050505050565b6000614ea5614eb6565b9050614eb18282615197565b919050565b6000604051905090565b600067ffffffffffffffff821115614edb57614eda61526f565b5b614ee48261529e565b9050602081019050919050565b6000819050602082019050919050565b6000819050602082019050919050565b6000819050602082019050919050565b6000819050602082019050919050565b6000819050602082019050919050565b600081519050919050565b600081519050919050565b600081519050919050565b600081519050919050565b600081519050919050565b600081519050919050565b6000602082019050919050565b6000602082019050919050565b6000602082019050919050565b6000602082019050919050565b6000602082019050919050565b600082825260208201905092915050565b600082825260208201905092915050565b600082825260208201905092915050565b600082825260208201905092915050565b600082825260208201905092915050565b600081905092915050565b600082825260208201905092915050565b600082825260208201905092915050565b600081905092915050565b600061505c82615119565b915061506783615119565b9250827fffffffffffffffffffffffffffffffffffffffffffffffffffffffffffffffff0382111561509c5761509b615211565b5b828201905092915050565b60006150b282615119565b91506150bd83615119565b9250828210156150d0576150cf615211565b5b828203905092915050565b60006150e6826150f9565b9050919050565b60008115159050919050565b600073ffffffffffffffffffffffffffffffffffffffff82169050919050565b6000819050919050565b82818337600083830152505050565b60005b83811015615150578082015181840152602081019050615135565b8381111561515f576000848401525b50505050565b6000600282049050600182168061517d57607f821691505b6020821081141561519157615190615240565b5b50919050565b6151a08261529e565b810181811067ffffffffffffffff821117156151bf576151be61526f565b5b80604052505050565b60006151d382615119565b91507fffffffffffffffffffffffffffffffffffffffffffffffffffffffffffffffff82141561520657615205615211565b5b600182019050919050565b7f4e487b7100000000000000000000000000000000000000000000000000000000600052601160045260246000fd5b7f4e487b7100000000000000000000000000000000000000000000000000000000600052602260045260246000fd5b7f4e487b7100000000000000000000000000000000000000000000000000000000600052604160045260246000fd5b6000601f19601f8301169050919050565b7f6465736372697074696f6e2063616e277420626520656d707479000000000000600082015250565b7f616c726561647920612075736572207769746820746869732061646472657373600082015250565b7f74686520706f73742070726963652063616e2774206265206672656500000000600082015250565b7f696e76616c69642063617465676f727900000000000000000000000000000000600082015250565b7f696e76616c696420696400000000000000000000000000000000000000000000600082015250565b7f596f752063616e277420626964206f6e20796f757220706f7374000000000000600082015250565b7f596f75206861766520746f206269642068696768657200000000000000000000600082015250565b7f706f7374207374696c6c20617469766500000000000000000000000000000000600082015250565b7f696420696e73277420676f6f6400000000000000000000000000000000000000600082015250565b7f596f7520617265206e6f7420746865206f776e65720000000000000000000000600082015250565b7f63617465676f727920616c726561647920657869737473000000000000000000600082015250565b7f6661696c656420746f2073656e64206574686572000000000000000000000000600082015250565b7f596f7520646f6e2774206861766520656e6f7567682066756e64730000000000600082015250565b7f706f737420616c726561647920736f6c64000000000000000000000000000000600082015250565b7f596f7520617265206e6f74206120757365720000000000000000000000000000600082015250565b7f596f75206e65656420746f2073656e6420657468657200000000000000000000600082015250565b7f6e6f206f6e652077616e747320746f2062757920796f722070726f6475637400600082015250565b7f706f73742068617320746f20626520706f73746564206c6f6e67657200000000600082015250565b7f696d6167652075726c2063616e277420626520656d7074790000000000000000600082015250565b7f796f752063616e2774206c6f6f6b206174207468652062616c616e6365206f6660008201527f20736f6d656f6e6520656c736500000000000000000000000000000000000000602082015250565b7f6e616d652063616e277420626520656d70747900000000000000000000000000600082015250565b7f596f7520646f6e2774206861766520656e6f756768206d6f6e65790000000000600082015250565b7f7573657220646f73656e27742065786973740000000000000000000000000000600082015250565b50565b7f6f6e6c79207468652061646d696e2063616e2063616c6c20746869732066756e60008201527f6374696f6e000000000000000000000000000000000000000000000000000000602082015250565b7f596f75206e65656420746f207370656369667920616e20616d6f756e7420677260008201527f6561746572207468656e20300000000000000000000000000000000000000000602082015250565b61572e816150db565b811461573957600080fd5b50565b61574581615119565b811461575057600080fd5b5056fea2646970667358221220eb6e67b0a2aa0eefa8587ee3a274666edc6f68434efd7d487e87dfba54edcaa664736f6c63430008040033",
  "linkReferences": {},
  "deployedLinkReferences": {}
}