{
  "_format": "hh-sol-artifact-1",
  "contractName": "EthMarket",
  "sourceName": "contracts/ethMarket.sol",
  "abi": [
    {
      "inputs": [],
      "stateMutability": "nonpayable",
      "type": "constructor"
    },
    {
      "anonymous": false,
      "inputs": [
        {
          "indexed": false,
          "internalType": "string",
          "name": "category",
          "type": "string"
        }
      ],
      "name": "AddCategory",
      "type": "event"
    },
    {
      "anonymous": false,
      "inputs": [
        {
          "indexed": false,
          "internalType": "address",
          "name": "addr",
          "type": "address"
        },
        {
          "indexed": false,
          "internalType": "uint256",
          "name": "amount",
          "type": "uint256"
        }
      ],
      "name": "Burn",
      "type": "event"
    },
    {
      "anonymous": false,
      "inputs": [
        {
          "indexed": false,
          "internalType": "address",
          "name": "from",
          "type": "address"
        },
        {
          "indexed": false,
          "internalType": "uint256",
          "name": "id",
          "type": "uint256"
        },
        {
          "indexed": false,
          "internalType": "uint256",
          "name": "postId",
          "type": "uint256"
        },
        {
          "indexed": false,
          "internalType": "uint256",
          "name": "amount",
          "type": "uint256"
        }
      ],
      "name": "CreateBid",
      "type": "event"
    },
    {
      "anonymous": false,
      "inputs": [
        {
          "indexed": false,
          "internalType": "uint256",
          "name": "id",
          "type": "uint256"
        },
        {
          "indexed": false,
          "internalType": "string",
          "name": "name",
          "type": "string"
        },
        {
          "indexed": false,
          "internalType": "string",
          "name": "desc",
          "type": "string"
        },
        {
          "indexed": false,
          "internalType": "string",
          "name": "category",
          "type": "string"
        },
        {
          "indexed": false,
          "internalType": "string",
          "name": "image",
          "type": "string"
        },
        {
          "indexed": false,
          "internalType": "address",
          "name": "owner",
          "type": "address"
        },
        {
          "indexed": false,
          "internalType": "uint256",
          "name": "price",
          "type": "uint256"
        }
      ],
      "name": "CreatePost",
      "type": "event"
    },
    {
      "anonymous": false,
      "inputs": [
        {
          "indexed": false,
          "internalType": "address",
          "name": "addr",
          "type": "address"
        },
        {
          "indexed": false,
          "internalType": "uint256",
          "name": "amount",
          "type": "uint256"
        }
      ],
      "name": "Deposit",
      "type": "event"
    },
    {
      "anonymous": false,
      "inputs": [
        {
          "indexed": false,
          "internalType": "uint256",
          "name": "postId",
          "type": "uint256"
        },
        {
          "indexed": false,
          "internalType": "address",
          "name": "to",
          "type": "address"
        },
        {
          "indexed": false,
          "internalType": "address",
          "name": "from",
          "type": "address"
        },
        {
          "indexed": false,
          "internalType": "uint256",
          "name": "amount",
          "type": "uint256"
        }
      ],
      "name": "Sold",
      "type": "event"
    },
    {
      "anonymous": false,
      "inputs": [
        {
          "indexed": false,
          "internalType": "string",
          "name": "name",
          "type": "string"
        },
        {
          "indexed": false,
          "internalType": "address",
          "name": "addr",
          "type": "address"
        }
      ],
      "name": "UserCreated",
      "type": "event"
    },
    {
      "anonymous": false,
      "inputs": [
        {
          "indexed": false,
          "internalType": "address",
          "name": "addr",
          "type": "address"
        }
      ],
      "name": "UserDeleted",
      "type": "event"
    },
    {
      "inputs": [
        {
          "internalType": "string",
          "name": "category",
          "type": "string"
        }
      ],
      "name": "addCategory",
      "outputs": [],
      "stateMutability": "nonpayable",
      "type": "function"
    },
    {
      "inputs": [
        {
          "internalType": "uint256",
          "name": "postId",
          "type": "uint256"
        },
        {
          "internalType": "uint256",
          "name": "amount",
          "type": "uint256"
        }
      ],
      "name": "bid",
      "outputs": [],
      "stateMutability": "nonpayable",
      "type": "function"
    },
    {
      "inputs": [
        {
          "internalType": "uint256",
          "name": "",
          "type": "uint256"
        },
        {
          "internalType": "uint256",
          "name": "",
          "type": "uint256"
        }
      ],
      "name": "bids",
      "outputs": [
        {
          "internalType": "uint256",
          "name": "id",
          "type": "uint256"
        },
        {
          "internalType": "uint256",
          "name": "postId",
          "type": "uint256"
        },
        {
          "internalType": "address",
          "name": "from",
          "type": "address"
        },
        {
          "internalType": "uint256",
          "name": "amount",
          "type": "uint256"
        },
        {
          "internalType": "uint256",
          "name": "time",
          "type": "uint256"
        }
      ],
      "stateMutability": "view",
      "type": "function"
    },
    {
      "inputs": [
        {
          "internalType": "uint256",
          "name": "amount",
          "type": "uint256"
        }
      ],
      "name": "burn",
      "outputs": [],
      "stateMutability": "nonpayable",
      "type": "function"
    },
    {
      "inputs": [
        {
          "internalType": "string",
          "name": "name",
          "type": "string"
        },
        {
          "internalType": "string",
          "name": "desc",
          "type": "string"
        },
        {
          "internalType": "string",
          "name": "category",
          "type": "string"
        },
        {
          "internalType": "string",
          "name": "image",
          "type": "string"
        },
        {
          "internalType": "uint256",
          "name": "endDate",
          "type": "uint256"
        },
        {
          "internalType": "uint256",
          "name": "price",
          "type": "uint256"
        }
      ],
      "name": "createPost",
      "outputs": [],
      "stateMutability": "nonpayable",
      "type": "function"
    },
    {
      "inputs": [
        {
          "internalType": "string",
          "name": "name",
          "type": "string"
        }
      ],
      "name": "createUser",
      "outputs": [],
      "stateMutability": "nonpayable",
      "type": "function"
    },
    {
      "inputs": [],
      "name": "deleteUser",
      "outputs": [],
      "stateMutability": "nonpayable",
      "type": "function"
    },
    {
      "inputs": [
        {
          "internalType": "address",
          "name": "who",
          "type": "address"
        }
      ],
      "name": "getBalance",
      "outputs": [
        {
          "internalType": "uint256",
          "name": "",
          "type": "uint256"
        }
      ],
      "stateMutability": "view",
      "type": "function"
    },
    {
      "inputs": [
        {
          "internalType": "uint256",
          "name": "postId",
          "type": "uint256"
        }
      ],
      "name": "getBids",
      "outputs": [
        {
          "components": [
            {
              "internalType": "uint256",
              "name": "id",
              "type": "uint256"
            },
            {
              "internalType": "uint256",
              "name": "postId",
              "type": "uint256"
            },
            {
              "internalType": "address",
              "name": "from",
              "type": "address"
            },
            {
              "internalType": "uint256",
              "name": "amount",
              "type": "uint256"
            },
            {
              "internalType": "uint256",
              "name": "time",
              "type": "uint256"
            }
          ],
          "internalType": "struct EthMarket.Bid[]",
          "name": "",
          "type": "tuple[]"
        }
      ],
      "stateMutability": "view",
      "type": "function"
    },
    {
      "inputs": [],
      "name": "getCategories",
      "outputs": [
        {
          "internalType": "string[]",
          "name": "",
          "type": "string[]"
        }
      ],
      "stateMutability": "view",
      "type": "function"
    },
    {
      "inputs": [],
      "name": "getContractBalance",
      "outputs": [
        {
          "internalType": "uint256",
          "name": "",
          "type": "uint256"
        }
      ],
      "stateMutability": "view",
      "type": "function"
    },
    {
      "inputs": [
        {
          "internalType": "uint256",
          "name": "id",
          "type": "uint256"
        }
      ],
      "name": "getPost",
      "outputs": [
        {
          "components": [
            {
              "internalType": "uint256",
              "name": "id",
              "type": "uint256"
            },
            {
              "internalType": "string",
              "name": "name",
              "type": "string"
            },
            {
              "internalType": "string",
              "name": "description",
              "type": "string"
            },
            {
              "internalType": "string",
              "name": "category",
              "type": "string"
            },
            {
              "internalType": "string",
              "name": "imageUrl",
              "type": "string"
            },
            {
              "internalType": "address",
              "name": "owner",
              "type": "address"
            },
            {
              "internalType": "uint256",
              "name": "startDate",
              "type": "uint256"
            },
            {
              "internalType": "uint256",
              "name": "endDate",
              "type": "uint256"
            },
            {
              "internalType": "uint256",
              "name": "price",
              "type": "uint256"
            },
            {
              "internalType": "bool",
              "name": "sold",
              "type": "bool"
            }
          ],
          "internalType": "struct EthMarket.Post",
          "name": "",
          "type": "tuple"
        }
      ],
      "stateMutability": "view",
      "type": "function"
    },
    {
      "inputs": [],
      "name": "getPosts",
      "outputs": [
        {
          "components": [
            {
              "internalType": "uint256",
              "name": "id",
              "type": "uint256"
            },
            {
              "internalType": "string",
              "name": "name",
              "type": "string"
            },
            {
              "internalType": "string",
              "name": "description",
              "type": "string"
            },
            {
              "internalType": "string",
              "name": "category",
              "type": "string"
            },
            {
              "internalType": "string",
              "name": "imageUrl",
              "type": "string"
            },
            {
              "internalType": "address",
              "name": "owner",
              "type": "address"
            },
            {
              "internalType": "uint256",
              "name": "startDate",
              "type": "uint256"
            },
            {
              "internalType": "uint256",
              "name": "endDate",
              "type": "uint256"
            },
            {
              "internalType": "uint256",
              "name": "price",
              "type": "uint256"
            },
            {
              "internalType": "bool",
              "name": "sold",
              "type": "bool"
            }
          ],
          "internalType": "struct EthMarket.Post[]",
          "name": "",
          "type": "tuple[]"
        }
      ],
      "stateMutability": "view",
      "type": "function"
    },
    {
      "inputs": [],
      "name": "getUserPosts",
      "outputs": [
        {
          "components": [
            {
              "internalType": "uint256",
              "name": "id",
              "type": "uint256"
            },
            {
              "internalType": "string",
              "name": "name",
              "type": "string"
            },
            {
              "internalType": "string",
              "name": "description",
              "type": "string"
            },
            {
              "internalType": "string",
              "name": "category",
              "type": "string"
            },
            {
              "internalType": "string",
              "name": "imageUrl",
              "type": "string"
            },
            {
              "internalType": "address",
              "name": "owner",
              "type": "address"
            },
            {
              "internalType": "uint256",
              "name": "startDate",
              "type": "uint256"
            },
            {
              "internalType": "uint256",
              "name": "endDate",
              "type": "uint256"
            },
            {
              "internalType": "uint256",
              "name": "price",
              "type": "uint256"
            },
            {
              "internalType": "bool",
              "name": "sold",
              "type": "bool"
            }
          ],
          "internalType": "struct EthMarket.Post[]",
          "name": "",
          "type": "tuple[]"
        }
      ],
      "stateMutability": "view",
      "type": "function"
    },
    {
      "inputs": [],
      "name": "getUsers",
      "outputs": [
        {
          "components": [
            {
              "internalType": "address",
              "name": "addr",
              "type": "address"
            },
            {
              "internalType": "string",
              "name": "name",
              "type": "string"
            },
            {
              "internalType": "uint256",
              "name": "balance",
              "type": "uint256"
            },
            {
              "internalType": "uint256[]",
              "name": "posts",
              "type": "uint256[]"
            },
            {
              "internalType": "bool",
              "name": "active",
              "type": "bool"
            }
          ],
          "internalType": "struct Users.singleUser[]",
          "name": "",
          "type": "tuple[]"
        }
      ],
      "stateMutability": "view",
      "type": "function"
    },
    {
      "inputs": [],
      "name": "isUser",
      "outputs": [
        {
          "internalType": "bool",
          "name": "",
          "type": "bool"
        }
      ],
      "stateMutability": "view",
      "type": "function"
    },
    {
      "inputs": [],
      "name": "mint",
      "outputs": [],
      "stateMutability": "payable",
      "type": "function"
    },
    {
      "inputs": [
        {
          "internalType": "uint256",
          "name": "",
          "type": "uint256"
        }
      ],
      "name": "posts",
      "outputs": [
        {
          "internalType": "uint256",
          "name": "id",
          "type": "uint256"
        },
        {
          "internalType": "string",
          "name": "name",
          "type": "string"
        },
        {
          "internalType": "string",
          "name": "description",
          "type": "string"
        },
        {
          "internalType": "string",
          "name": "category",
          "type": "string"
        },
        {
          "internalType": "string",
          "name": "imageUrl",
          "type": "string"
        },
        {
          "internalType": "address",
          "name": "owner",
          "type": "address"
        },
        {
          "internalType": "uint256",
          "name": "startDate",
          "type": "uint256"
        },
        {
          "internalType": "uint256",
          "name": "endDate",
          "type": "uint256"
        },
        {
          "internalType": "uint256",
          "name": "price",
          "type": "uint256"
        },
        {
          "internalType": "bool",
          "name": "sold",
          "type": "bool"
        }
      ],
      "stateMutability": "view",
      "type": "function"
    },
    {
      "inputs": [
        {
          "internalType": "uint256",
          "name": "postId",
          "type": "uint256"
        }
      ],
      "name": "sell",
      "outputs": [],
      "stateMutability": "nonpayable",
      "type": "function"
    }
  ],
  "bytecode": "0x60806040526040518060c001604052806040518060400160405280600581526020017f53706f727400000000000000000000000000000000000000000000000000000081525081526020016040518060400160405280600481526020017f546563680000000000000000000000000000000000000000000000000000000081525081526020016040518060400160405280600481526020017f436172730000000000000000000000000000000000000000000000000000000081525081526020016040518060400160405280600781526020017f436c6f746865730000000000000000000000000000000000000000000000000081525081526020016040518060400160405280600a81526020017f4675726e697368696e670000000000000000000000000000000000000000000081525081526020016040518060400160405280600581526020017f4f74686572000000000000000000000000000000000000000000000000000000815250815250600490600662000181929190620001ee565b503480156200018f57600080fd5b50336000806101000a81548173ffffffffffffffffffffffffffffffffffffffff021916908373ffffffffffffffffffffffffffffffffffffffff160217905550600060038190555060006008819055506000600781905550620003d8565b82805482825590600052602060002090810192821562000242579160200282015b82811115620002415782518290805190602001906200023092919062000255565b50916020019190600101906200020f565b5b509050620002519190620002e6565b5090565b828054620002639062000373565b90600052602060002090601f016020900481019282620002875760008555620002d3565b82601f10620002a257805160ff1916838001178555620002d3565b82800160010185558215620002d3579182015b82811115620002d2578251825591602001919060010190620002b5565b5b509050620002e291906200030e565b5090565b5b808211156200030a57600081816200030091906200032d565b50600101620002e7565b5090565b5b80821115620003295760008160009055506001016200030f565b5090565b5080546200033b9062000373565b6000825580601f106200034f575062000370565b601f0160209004906000526020600020908101906200036f91906200030e565b5b50565b600060028204905060018216806200038c57607f821691505b60208210811415620003a357620003a2620003a9565b5b50919050565b7f4e487b7100000000000000000000000000000000000000000000000000000000600052602260045260246000fd5b6155eb80620003e86000396000f3fe6080604052600436106101135760003560e01c80634c22c119116100a05780637b3c4baa116100645780637b3c4baa146103745780637bc5711e146103b5578063cc4ef2cc146103de578063e4849b3214610409578063f8b2cb4f1461043257610113565b80634c22c119146102a15780634db0412c146102cc578063507ffba5146102f7578063598647f8146103205780636f9fb98a1461034957610113565b8063131d9a27116100e7578063131d9a27146101aa5780632e0dcbf7146101e757806340731c241461021057806341f3004a1461024d57806342966c681461027857610113565b8062ce8e3e14610118578063026ff05e146101435780630b1e7f831461015a5780631249c58b146101a0575b600080fd5b34801561012457600080fd5b5061012d61046f565b60405161013a9190614736565b60405180910390f35b34801561014f57600080fd5b506101586108be565b005b34801561016657600080fd5b50610181600480360381019061017c9190613be1565b610d3c565b6040516101979a99989796959493929190614bf2565b60405180910390f35b6101a8610fdd565b005b3480156101b657600080fd5b506101d160048036038101906101cc9190613be1565b61114a565b6040516101de91906146f2565b60405180910390f35b3480156101f357600080fd5b5061020e60048036038101906102099190613ab7565b61127f565b005b34801561021c57600080fd5b5061023760048036038101906102329190613be1565b6113cc565b6040516102449190614ae5565b60405180910390f35b34801561025957600080fd5b50610262611720565b60405161026f9190614714565b60405180910390f35b34801561028457600080fd5b5061029f600480360381019061029a9190613be1565b611b7e565b005b3480156102ad57600080fd5b506102b6611e21565b6040516102c39190614758565b60405180910390f35b3480156102d857600080fd5b506102e1611e89565b6040516102ee91906146d0565b60405180910390f35b34801561030357600080fd5b5061031e60048036038101906103199190613ab7565b611f62565b005b34801561032c57600080fd5b5061034760048036038101906103429190613c0a565b6121e2565b005b34801561035557600080fd5b5061035e61268d565b60405161036b9190614b07565b60405180910390f35b34801561038057600080fd5b5061039b60048036038101906103969190613c0a565b612724565b6040516103ac959493929190614caa565b60405180910390f35b3480156103c157600080fd5b506103dc60048036038101906103d79190613af8565b612797565b005b3480156103ea57600080fd5b506103f3612b73565b6040516104009190614714565b60405180910390f35b34801561041557600080fd5b50610430600480360381019061042b9190613be1565b613073565b005b34801561043e57600080fd5b5061045960048036038101906104549190613a8e565b6134a2565b6040516104669190614b07565b60405180910390f35b606060008054906101000a900473ffffffffffffffffffffffffffffffffffffffff1673ffffffffffffffffffffffffffffffffffffffff163373ffffffffffffffffffffffffffffffffffffffff16146104ff576040517f08c379a00000000000000000000000000000000000000000000000000000000081526004016104f6906148e5565b60405180910390fd5b600060028054905067ffffffffffffffff811115610546577f4e487b7100000000000000000000000000000000000000000000000000000000600052604160045260246000fd5b60405190808252806020026020018201604052801561057f57816020015b61056c61385a565b8152602001906001900390816105645790505b50905060005b6002805490508110156108b65760016000600283815481106105d0577f4e487b7100000000000000000000000000000000000000000000000000000000600052603260045260246000fd5b9060005260206000200160009054906101000a900473ffffffffffffffffffffffffffffffffffffffff1673ffffffffffffffffffffffffffffffffffffffff1673ffffffffffffffffffffffffffffffffffffffff16815260200190815260200160002060040160009054906101000a900460ff16156108a3576001600060028381548110610689577f4e487b7100000000000000000000000000000000000000000000000000000000600052603260045260246000fd5b9060005260206000200160009054906101000a900473ffffffffffffffffffffffffffffffffffffffff1673ffffffffffffffffffffffffffffffffffffffff1673ffffffffffffffffffffffffffffffffffffffff1681526020019081526020016000206040518060a00160405290816000820160009054906101000a900473ffffffffffffffffffffffffffffffffffffffff1673ffffffffffffffffffffffffffffffffffffffff1673ffffffffffffffffffffffffffffffffffffffff16815260200160018201805461075f90614fc7565b80601f016020809104026020016040519081016040528092919081815260200182805461078b90614fc7565b80156107d85780601f106107ad576101008083540402835291602001916107d8565b820191906000526020600020905b8154815290600101906020018083116107bb57829003601f168201915b50505050508152602001600282015481526020016003820180548060200260200160405190810160405280929190818152602001828054801561083a57602002820191906000526020600020905b815481526020019060010190808311610826575b505050505081526020016004820160009054906101000a900460ff161515151581525050828281518110610897577f4e487b7100000000000000000000000000000000000000000000000000000000600052603260045260246000fd5b60200260200101819052505b80806108ae9061502a565b915050610585565b508091505090565b60011515600160003373ffffffffffffffffffffffffffffffffffffffff1673ffffffffffffffffffffffffffffffffffffffff16815260200190815260200160002060040160009054906101000a900460ff16151514610954576040517f08c379a000000000000000000000000000000000000000000000000000000000815260040161094b90614a85565b60405180910390fd5b6000600160003373ffffffffffffffffffffffffffffffffffffffff1673ffffffffffffffffffffffffffffffffffffffff168152602001908152602001600020600201541115610a92576000803373ffffffffffffffffffffffffffffffffffffffff16600160003373ffffffffffffffffffffffffffffffffffffffff1673ffffffffffffffffffffffffffffffffffffffff16815260200190815260200160002060020154604051610a0890614632565b60006040518083038185875af1925050503d8060008114610a45576040519150601f19603f3d011682016040523d82523d6000602084013e610a4a565b606091505b509150915081610a8f576040517f08c379a0000000000000000000000000000000000000000000000000000000008152600401610a8690614925565b60405180910390fd5b50505b60606040518060a00160405280600073ffffffffffffffffffffffffffffffffffffffff1681526020016040518060200160405280600081525081526020016000815260200182815260200160001515815250600160003373ffffffffffffffffffffffffffffffffffffffff1673ffffffffffffffffffffffffffffffffffffffff16815260200190815260200160002060008201518160000160006101000a81548173ffffffffffffffffffffffffffffffffffffffff021916908373ffffffffffffffffffffffffffffffffffffffff1602179055506020820151816001019080519060200190610b879291906138a1565b50604082015181600201556060820151816003019080519060200190610bae929190613927565b5060808201518160040160006101000a81548160ff02191690831515021790555090505060005b3373ffffffffffffffffffffffffffffffffffffffff1660028281548110610c26577f4e487b7100000000000000000000000000000000000000000000000000000000600052603260045260246000fd5b9060005260206000200160009054906101000a900473ffffffffffffffffffffffffffffffffffffffff1673ffffffffffffffffffffffffffffffffffffffff1614610c8057600181610c799190614eb3565b9050610bd5565b60028181548110610cba577f4e487b7100000000000000000000000000000000000000000000000000000000600052603260045260246000fd5b9060005260206000200160006101000a81549073ffffffffffffffffffffffffffffffffffffffff0219169055600160036000828254610cfa9190614f09565b925050819055507f4bc56f1321288dfb5b416cb3a7fd188723979f9e866c91d88eccf7fca039d03933604051610d309190614647565b60405180910390a15050565b6005602052806000526040600020600091509050806000015490806001018054610d6590614fc7565b80601f0160208091040260200160405190810160405280929190818152602001828054610d9190614fc7565b8015610dde5780601f10610db357610100808354040283529160200191610dde565b820191906000526020600020905b815481529060010190602001808311610dc157829003601f168201915b505050505090806002018054610df390614fc7565b80601f0160208091040260200160405190810160405280929190818152602001828054610e1f90614fc7565b8015610e6c5780601f10610e4157610100808354040283529160200191610e6c565b820191906000526020600020905b815481529060010190602001808311610e4f57829003601f168201915b505050505090806003018054610e8190614fc7565b80601f0160208091040260200160405190810160405280929190818152602001828054610ead90614fc7565b8015610efa5780601f10610ecf57610100808354040283529160200191610efa565b820191906000526020600020905b815481529060010190602001808311610edd57829003601f168201915b505050505090806004018054610f0f90614fc7565b80601f0160208091040260200160405190810160405280929190818152602001828054610f3b90614fc7565b8015610f885780601f10610f5d57610100808354040283529160200191610f88565b820191906000526020600020905b815481529060010190602001808311610f6b57829003601f168201915b5050505050908060050160009054906101000a900473ffffffffffffffffffffffffffffffffffffffff16908060060154908060070154908060080154908060090160009054906101000a900460ff1690508a565b60011515600160003373ffffffffffffffffffffffffffffffffffffffff1673ffffffffffffffffffffffffffffffffffffffff16815260200190815260200160002060040160009054906101000a900460ff16151514611073576040517f08c379a000000000000000000000000000000000000000000000000000000000815260040161106a90614a85565b60405180910390fd5b600034116110b6576040517f08c379a00000000000000000000000000000000000000000000000000000000081526004016110ad906149a5565b60405180910390fd5b34600160003373ffffffffffffffffffffffffffffffffffffffff1673ffffffffffffffffffffffffffffffffffffffff16815260200190815260200160002060020160008282546111089190614eb3565b925050819055507fe1fffcc4923d04b559f4d29a8bfc6cda04eb5b0d3c460751c2402c5c5cc9109c3334604051611140929190614662565b60405180910390a1565b6060600754821115611191576040517f08c379a0000000000000000000000000000000000000000000000000000000008152600401611188906148c5565b60405180910390fd5b60066000838152602001908152602001600020805480602002602001604051908101604052809291908181526020016000905b8282101561127457838290600052602060002090600502016040518060a001604052908160008201548152602001600182015481526020016002820160009054906101000a900473ffffffffffffffffffffffffffffffffffffffff1673ffffffffffffffffffffffffffffffffffffffff1673ffffffffffffffffffffffffffffffffffffffff16815260200160038201548152602001600482015481525050815260200190600101906111c4565b505050509050919050565b611288816135eb565b156112c8576040517f08c379a00000000000000000000000000000000000000000000000000000000081526004016112bf90614905565b60405180910390fd5b60008054906101000a900473ffffffffffffffffffffffffffffffffffffffff1673ffffffffffffffffffffffffffffffffffffffff163373ffffffffffffffffffffffffffffffffffffffff1614611356576040517f08c379a000000000000000000000000000000000000000000000000000000000815260040161134d90614aa5565b60405180910390fd5b6004819080600181540180825580915050600190039060005260206000200160009091909190915090805190602001906113919291906138a1565b507f5d184107cf80dc717ee2e108aad943e965417309735e1c460ba42f57a54f2a0d816040516113c19190614773565b60405180910390a150565b6113d4613974565b600754821115611419576040517f08c379a0000000000000000000000000000000000000000000000000000000008152600401611410906148c5565b60405180910390fd5b60056000838152602001908152602001600020604051806101400160405290816000820154815260200160018201805461145290614fc7565b80601f016020809104026020016040519081016040528092919081815260200182805461147e90614fc7565b80156114cb5780601f106114a0576101008083540402835291602001916114cb565b820191906000526020600020905b8154815290600101906020018083116114ae57829003601f168201915b505050505081526020016002820180546114e490614fc7565b80601f016020809104026020016040519081016040528092919081815260200182805461151090614fc7565b801561155d5780601f106115325761010080835404028352916020019161155d565b820191906000526020600020905b81548152906001019060200180831161154057829003601f168201915b5050505050815260200160038201805461157690614fc7565b80601f01602080910402602001604051908101604052809291908181526020018280546115a290614fc7565b80156115ef5780601f106115c4576101008083540402835291602001916115ef565b820191906000526020600020905b8154815290600101906020018083116115d257829003601f168201915b5050505050815260200160048201805461160890614fc7565b80601f016020809104026020016040519081016040528092919081815260200182805461163490614fc7565b80156116815780601f1061165657610100808354040283529160200191611681565b820191906000526020600020905b81548152906001019060200180831161166457829003601f168201915b505050505081526020016005820160009054906101000a900473ffffffffffffffffffffffffffffffffffffffff1673ffffffffffffffffffffffffffffffffffffffff1673ffffffffffffffffffffffffffffffffffffffff1681526020016006820154815260200160078201548152602001600882015481526020016009820160009054906101000a900460ff1615151515815250509050919050565b6060600060075467ffffffffffffffff811115611766577f4e487b7100000000000000000000000000000000000000000000000000000000600052604160045260246000fd5b60405190808252806020026020018201604052801561179f57816020015b61178c613974565b8152602001906001900390816117845790505b50905060005b600754811015611b7657600560006001836117c09190614eb3565b815260200190815260200160002060090160009054906101000a900460ff1615801561180d575042600560006001846117f99190614eb3565b815260200190815260200160002060070154115b15611b6357600560006001836118239190614eb3565b8152602001908152602001600020604051806101400160405290816000820154815260200160018201805461185790614fc7565b80601f016020809104026020016040519081016040528092919081815260200182805461188390614fc7565b80156118d05780601f106118a5576101008083540402835291602001916118d0565b820191906000526020600020905b8154815290600101906020018083116118b357829003601f168201915b505050505081526020016002820180546118e990614fc7565b80601f016020809104026020016040519081016040528092919081815260200182805461191590614fc7565b80156119625780601f1061193757610100808354040283529160200191611962565b820191906000526020600020905b81548152906001019060200180831161194557829003601f168201915b5050505050815260200160038201805461197b90614fc7565b80601f01602080910402602001604051908101604052809291908181526020018280546119a790614fc7565b80156119f45780601f106119c9576101008083540402835291602001916119f4565b820191906000526020600020905b8154815290600101906020018083116119d757829003601f168201915b50505050508152602001600482018054611a0d90614fc7565b80601f0160208091040260200160405190810160405280929190818152602001828054611a3990614fc7565b8015611a865780601f10611a5b57610100808354040283529160200191611a86565b820191906000526020600020905b815481529060010190602001808311611a6957829003601f168201915b505050505081526020016005820160009054906101000a900473ffffffffffffffffffffffffffffffffffffffff1673ffffffffffffffffffffffffffffffffffffffff1673ffffffffffffffffffffffffffffffffffffffff1681526020016006820154815260200160078201548152602001600882015481526020016009820160009054906101000a900460ff161515151581525050828281518110611b57577f4e487b7100000000000000000000000000000000000000000000000000000000600052603260045260246000fd5b60200260200101819052505b8080611b6e9061502a565b9150506117a5565b508091505090565b60011515600160003373ffffffffffffffffffffffffffffffffffffffff1673ffffffffffffffffffffffffffffffffffffffff16815260200190815260200160002060040160009054906101000a900460ff16151514611c14576040517f08c379a0000000000000000000000000000000000000000000000000000000008152600401611c0b90614a85565b60405180910390fd5b60008111611c57576040517f08c379a0000000000000000000000000000000000000000000000000000000008152600401611c4e90614ac5565b60405180910390fd5b80600160003373ffffffffffffffffffffffffffffffffffffffff1673ffffffffffffffffffffffffffffffffffffffff168152602001908152602001600020600201541015611cdc576040517f08c379a0000000000000000000000000000000000000000000000000000000008152600401611cd390614a65565b60405180910390fd5b6000803373ffffffffffffffffffffffffffffffffffffffff1683604051611d0390614632565b60006040518083038185875af1925050503d8060008114611d40576040519150601f19603f3d011682016040523d82523d6000602084013e611d45565b606091505b509150915081611d8a576040517f08c379a0000000000000000000000000000000000000000000000000000000008152600401611d8190614925565b60405180910390fd5b82600160003373ffffffffffffffffffffffffffffffffffffffff1673ffffffffffffffffffffffffffffffffffffffff1681526020019081526020016000206002016000828254611ddc9190614f09565b925050819055507fcc16f5dbb4873280815c1ee09dbd06736cffcc184412cf7a71a0fdb75d397ca53384604051611e14929190614662565b60405180910390a1505050565b6000600160003373ffffffffffffffffffffffffffffffffffffffff1673ffffffffffffffffffffffffffffffffffffffff16815260200190815260200160002060040160009054906101000a900460ff1615611e815760019050611e86565b600090505b90565b60606004805480602002602001604051908101604052809291908181526020016000905b82821015611f59578382906000526020600020018054611ecc90614fc7565b80601f0160208091040260200160405190810160405280929190818152602001828054611ef890614fc7565b8015611f455780601f10611f1a57610100808354040283529160200191611f45565b820191906000526020600020905b815481529060010190602001808311611f2857829003601f168201915b505050505081526020019060010190611ead565b50505050905090565b60001515600160003373ffffffffffffffffffffffffffffffffffffffff1673ffffffffffffffffffffffffffffffffffffffff16815260200190815260200160002060040160009054906101000a900460ff16151514611ff8576040517f08c379a0000000000000000000000000000000000000000000000000000000008152600401611fef906147e5565b60405180910390fd5b60606040518060a001604052803373ffffffffffffffffffffffffffffffffffffffff1681526020018381526020016000815260200182815260200160011515815250600160003373ffffffffffffffffffffffffffffffffffffffff1673ffffffffffffffffffffffffffffffffffffffff16815260200190815260200160002060008201518160000160006101000a81548173ffffffffffffffffffffffffffffffffffffffff021916908373ffffffffffffffffffffffffffffffffffffffff16021790555060208201518160010190805190602001906120dd9291906138a1565b50604082015181600201556060820151816003019080519060200190612104929190613927565b5060808201518160040160006101000a81548160ff0219169083151502179055509050506002339080600181540180825580915050600190039060005260206000200160009091909190916101000a81548173ffffffffffffffffffffffffffffffffffffffff021916908373ffffffffffffffffffffffffffffffffffffffff16021790555060016003600082825461219e9190614eb3565b925050819055507f673b132bfab7898651385299bf51a81f5d71d70c785d2c713bce0b05613b951882336040516121d6929190614795565b60405180910390a15050565b806121ec336134a2565b101561222d576040517f08c379a000000000000000000000000000000000000000000000000000000000815260040161222490614945565b60405180910390fd5b6005600083815260200190815260200160002060050160009054906101000a900473ffffffffffffffffffffffffffffffffffffffff1673ffffffffffffffffffffffffffffffffffffffff163373ffffffffffffffffffffffffffffffffffffffff1614156122d2576040517f08c379a00000000000000000000000000000000000000000000000000000000081526004016122c990614865565b60405180910390fd5b60006006600084815260200190815260200160002080549050905060008111156124ea5781600660008581526020019081526020016000206001836123179190614f09565b8154811061234e577f4e487b7100000000000000000000000000000000000000000000000000000000600052603260045260246000fd5b906000526020600020906005020160030154106123a0576040517f08c379a000000000000000000000000000000000000000000000000000000000815260040161239790614885565b60405180910390fd5b600660008481526020019081526020016000206001826123c09190614f09565b815481106123f7577f4e487b7100000000000000000000000000000000000000000000000000000000600052603260045260246000fd5b906000526020600020906005020160030154600160006006600087815260200190815260200160002060018561242d9190614f09565b81548110612464577f4e487b7100000000000000000000000000000000000000000000000000000000600052603260045260246000fd5b906000526020600020906005020160020160009054906101000a900473ffffffffffffffffffffffffffffffffffffffff1673ffffffffffffffffffffffffffffffffffffffff1673ffffffffffffffffffffffffffffffffffffffff16815260200190815260200160002060020160008282546124e29190614eb3565b925050819055505b6001600860008282546124fd9190614eb3565b92505081905550600660008481526020019081526020016000206040518060a0016040528060085481526020018581526020013373ffffffffffffffffffffffffffffffffffffffff168152602001848152602001428152509080600181540180825580915050600190039060005260206000209060050201600090919091909150600082015181600001556020820151816001015560408201518160020160006101000a81548173ffffffffffffffffffffffffffffffffffffffff021916908373ffffffffffffffffffffffffffffffffffffffff1602179055506060820151816003015560808201518160040155505081600160003373ffffffffffffffffffffffffffffffffffffffff1673ffffffffffffffffffffffffffffffffffffffff16815260200190815260200160002060020160008282546126429190614f09565b925050819055507fa4f371487bb360f38a002aad1c1345c3c98cbdef491047055d54f0811fcdb28e336008548585604051612680949392919061468b565b60405180910390a1505050565b60008060009054906101000a900473ffffffffffffffffffffffffffffffffffffffff1673ffffffffffffffffffffffffffffffffffffffff163373ffffffffffffffffffffffffffffffffffffffff161461271e576040517f08c379a0000000000000000000000000000000000000000000000000000000008152600401612715906148e5565b60405180910390fd5b47905090565b6006602052816000526040600020818154811061274057600080fd5b9060005260206000209060050201600091509150508060000154908060010154908060020160009054906101000a900473ffffffffffffffffffffffffffffffffffffffff16908060030154908060040154905085565b85858484846127b585604051806020016040528060008152506136ff565b156127f5576040517f08c379a00000000000000000000000000000000000000000000000000000000081526004016127ec90614a45565b60405180910390fd5b61280e84604051806020016040528060008152506136ff565b1561284e576040517f08c379a0000000000000000000000000000000000000000000000000000000008152600401612845906147c5565b60405180910390fd5b61286783604051806020016040528060008152506136ff565b156128a7576040517f08c379a000000000000000000000000000000000000000000000000000000000815260040161289e90614a05565b60405180910390fd5b4282116128e9576040517f08c379a00000000000000000000000000000000000000000000000000000000081526004016128e0906149e5565b60405180910390fd5b6000811161292c576040517f08c379a000000000000000000000000000000000000000000000000000000000815260040161292390614805565b60405180910390fd5b612935896135eb565b612974576040517f08c379a000000000000000000000000000000000000000000000000000000000815260040161296b90614825565b60405180910390fd5b61297d896135eb565b506001600760008282546129919190614eb3565b9250508190555060405180610140016040528060075481526020018c81526020018b81526020018a81526020018981526020013373ffffffffffffffffffffffffffffffffffffffff16815260200142815260200188815260200187815260200160001515815250600560006007548152602001908152602001600020600082015181600001556020820151816001019080519060200190612a349291906138a1565b506040820151816002019080519060200190612a519291906138a1565b506060820151816003019080519060200190612a6e9291906138a1565b506080820151816004019080519060200190612a8b9291906138a1565b5060a08201518160050160006101000a81548173ffffffffffffffffffffffffffffffffffffffff021916908373ffffffffffffffffffffffffffffffffffffffff16021790555060c0820151816006015560e0820151816007015561010082015181600801556101208201518160090160006101000a81548160ff021916908315150217905550905050612b21600754613758565b7f46217e9d4d088b96134f1a6b154910ad12e08600e02982d8c16d5397399c67f76007548c8c8c8c338c604051612b5e9796959493929190614b67565b60405180910390a15050505050505050505050565b6060612b7d611e21565b612bbc576040517f08c379a0000000000000000000000000000000000000000000000000000000008152600401612bb390614985565b60405180910390fd5b6000600160003373ffffffffffffffffffffffffffffffffffffffff1673ffffffffffffffffffffffffffffffffffffffff16815260200190815260200160002060030180549050905060008167ffffffffffffffff811115612c48577f4e487b7100000000000000000000000000000000000000000000000000000000600052604160045260246000fd5b604051908082528060200260200182016040528015612c8157816020015b612c6e613974565b815260200190600190039081612c665790505b50905060005b8281101561306a5760056000600160003373ffffffffffffffffffffffffffffffffffffffff1673ffffffffffffffffffffffffffffffffffffffff1681526020019081526020016000206003018381548110612d0d577f4e487b7100000000000000000000000000000000000000000000000000000000600052603260045260246000fd5b906000526020600020015481526020019081526020016000206040518061014001604052908160008201548152602001600182018054612d4c90614fc7565b80601f0160208091040260200160405190810160405280929190818152602001828054612d7890614fc7565b8015612dc55780601f10612d9a57610100808354040283529160200191612dc5565b820191906000526020600020905b815481529060010190602001808311612da857829003601f168201915b50505050508152602001600282018054612dde90614fc7565b80601f0160208091040260200160405190810160405280929190818152602001828054612e0a90614fc7565b8015612e575780601f10612e2c57610100808354040283529160200191612e57565b820191906000526020600020905b815481529060010190602001808311612e3a57829003601f168201915b50505050508152602001600382018054612e7090614fc7565b80601f0160208091040260200160405190810160405280929190818152602001828054612e9c90614fc7565b8015612ee95780601f10612ebe57610100808354040283529160200191612ee9565b820191906000526020600020905b815481529060010190602001808311612ecc57829003601f168201915b50505050508152602001600482018054612f0290614fc7565b80601f0160208091040260200160405190810160405280929190818152602001828054612f2e90614fc7565b8015612f7b5780601f10612f5057610100808354040283529160200191612f7b565b820191906000526020600020905b815481529060010190602001808311612f5e57829003601f168201915b505050505081526020016005820160009054906101000a900473ffffffffffffffffffffffffffffffffffffffff1673ffffffffffffffffffffffffffffffffffffffff1673ffffffffffffffffffffffffffffffffffffffff1681526020016006820154815260200160078201548152602001600882015481526020016009820160009054906101000a900460ff16151515158152505082828151811061304c577f4e487b7100000000000000000000000000000000000000000000000000000000600052603260045260246000fd5b602002602001018190525080806130629061502a565b915050612c87565b50809250505090565b8042600560008381526020019081526020016000206007015411156130cd576040517f08c379a00000000000000000000000000000000000000000000000000000000081526004016130c4906148a5565b60405180910390fd5b81600754811115613113576040517f08c379a000000000000000000000000000000000000000000000000000000000815260040161310a90614845565b60405180910390fd5b6005600082815260200190815260200160002060090160009054906101000a900460ff1615613177576040517f08c379a000000000000000000000000000000000000000000000000000000000815260040161316e90614965565b60405180910390fd5b8260006006600083815260200190815260200160002080549050116131d1576040517f08c379a00000000000000000000000000000000000000000000000000000000081526004016131c8906149c5565b60405180910390fd5b60066000858152602001908152602001600020600160066000878152602001908152602001600020805490506132079190614f09565b8154811061323e577f4e487b7100000000000000000000000000000000000000000000000000000000600052603260045260246000fd5b906000526020600020906005020160030154600160006005600088815260200190815260200160002060050160009054906101000a900473ffffffffffffffffffffffffffffffffffffffff1673ffffffffffffffffffffffffffffffffffffffff1673ffffffffffffffffffffffffffffffffffffffff16815260200190815260200160002060020160008282546132d79190614eb3565b9250508190555060016005600086815260200190815260200160002060090160006101000a81548160ff0219169083151502179055507f23f50d55776d8003622a982ade45a6c7f083116c8dbbcd980f59942f440badb1846005600087815260200190815260200160002060050160009054906101000a900473ffffffffffffffffffffffffffffffffffffffff16600660008881526020019081526020016000206001600660008a81526020019081526020016000208054905061339c9190614f09565b815481106133d3577f4e487b7100000000000000000000000000000000000000000000000000000000600052603260045260246000fd5b906000526020600020906005020160020160009054906101000a900473ffffffffffffffffffffffffffffffffffffffff16600660008981526020019081526020016000206001600660008b81526020019081526020016000208054905061343b9190614f09565b81548110613472577f4e487b7100000000000000000000000000000000000000000000000000000000600052603260045260246000fd5b9060005260206000209060050201600301546040516134949493929190614b22565b60405180910390a150505050565b6000600160008373ffffffffffffffffffffffffffffffffffffffff1673ffffffffffffffffffffffffffffffffffffffff16815260200190815260200160002060040160009054906101000a900460ff16613533576040517f08c379a000000000000000000000000000000000000000000000000000000000815260040161352a90614a85565b60405180910390fd5b3373ffffffffffffffffffffffffffffffffffffffff168273ffffffffffffffffffffffffffffffffffffffff16146135a1576040517f08c379a000000000000000000000000000000000000000000000000000000000815260040161359890614a25565b60405180910390fd5b600160008373ffffffffffffffffffffffffffffffffffffffff1673ffffffffffffffffffffffffffffffffffffffff168152602001908152602001600020600201549050919050565b6000806000905060005b6004805490508110156136f5576136d86004828154811061363f577f4e487b7100000000000000000000000000000000000000000000000000000000600052603260045260246000fd5b90600052602060002001805461365490614fc7565b80601f016020809104026020016040519081016040528092919081815260200182805461368090614fc7565b80156136cd5780601f106136a2576101008083540402835291602001916136cd565b820191906000526020600020905b8154815290600101906020018083116136b057829003601f168201915b5050505050856136ff565b156136e257600191505b80806136ed9061502a565b9150506135f5565b5080915050919050565b600081604051602001613712919061461b565b6040516020818303038152906040528051906020012083604051602001613739919061461b565b6040516020818303038152906040528051906020012014905092915050565b60011515600160003373ffffffffffffffffffffffffffffffffffffffff1673ffffffffffffffffffffffffffffffffffffffff16815260200190815260200160002060040160009054906101000a900460ff161515146137ee576040517f08c379a00000000000000000000000000000000000000000000000000000000081526004016137e590614a85565b60405180910390fd5b600160003373ffffffffffffffffffffffffffffffffffffffff1673ffffffffffffffffffffffffffffffffffffffff16815260200190815260200160002060030181908060018154018082558091505060019003906000526020600020016000909190919091505550565b6040518060a00160405280600073ffffffffffffffffffffffffffffffffffffffff1681526020016060815260200160008152602001606081526020016000151581525090565b8280546138ad90614fc7565b90600052602060002090601f0160209004810192826138cf5760008555613916565b82601f106138e857805160ff1916838001178555613916565b82800160010185558215613916579182015b828111156139155782518255916020019190600101906138fa565b5b50905061392391906139df565b5090565b828054828255906000526020600020908101928215613963579160200282015b82811115613962578251825591602001919060010190613947565b5b50905061397091906139df565b5090565b6040518061014001604052806000815260200160608152602001606081526020016060815260200160608152602001600073ffffffffffffffffffffffffffffffffffffffff1681526020016000815260200160008152602001600081526020016000151581525090565b5b808211156139f85760008160009055506001016139e0565b5090565b6000613a0f613a0a84614d22565b614cfd565b905082815260208101848484011115613a2757600080fd5b613a32848285614f85565b509392505050565b600081359050613a4981615587565b92915050565b600082601f830112613a6057600080fd5b8135613a708482602086016139fc565b91505092915050565b600081359050613a888161559e565b92915050565b600060208284031215613aa057600080fd5b6000613aae84828501613a3a565b91505092915050565b600060208284031215613ac957600080fd5b600082013567ffffffffffffffff811115613ae357600080fd5b613aef84828501613a4f565b91505092915050565b60008060008060008060c08789031215613b1157600080fd5b600087013567ffffffffffffffff811115613b2b57600080fd5b613b3789828a01613a4f565b965050602087013567ffffffffffffffff811115613b5457600080fd5b613b6089828a01613a4f565b955050604087013567ffffffffffffffff811115613b7d57600080fd5b613b8989828a01613a4f565b945050606087013567ffffffffffffffff811115613ba657600080fd5b613bb289828a01613a4f565b9350506080613bc389828a01613a79565b92505060a0613bd489828a01613a79565b9150509295509295509295565b600060208284031215613bf357600080fd5b6000613c0184828501613a79565b91505092915050565b60008060408385031215613c1d57600080fd5b6000613c2b85828601613a79565b9250506020613c3c85828601613a79565b9150509250929050565b6000613c528383613f09565b905092915050565b6000613c66838361433a565b60a08301905092915050565b6000613c7e83836143a2565b905092915050565b6000613c928383614580565b905092915050565b6000613ca683836145fd565b60208301905092915050565b613cbb81614f3d565b82525050565b613cca81614f3d565b82525050565b6000613cdb82614da3565b613ce58185614e26565b935083602082028501613cf785614d53565b8060005b85811015613d335784840389528151613d148582613c46565b9450613d1f83614de5565b925060208a01995050600181019050613cfb565b50829750879550505050505092915050565b6000613d5082614dae565b613d5a8185614e37565b9350613d6583614d63565b8060005b83811015613d96578151613d7d8882613c5a565b9750613d8883614df2565b925050600181019050613d69565b5085935050505092915050565b6000613dae82614db9565b613db88185614e48565b935083602082028501613dca85614d73565b8060005b85811015613e065784840389528151613de78582613c72565b9450613df283614dff565b925060208a01995050600181019050613dce565b50829750879550505050505092915050565b6000613e2382614dc4565b613e2d8185614e59565b935083602082028501613e3f85614d83565b8060005b85811015613e7b5784840389528151613e5c8582613c86565b9450613e6783614e0c565b925060208a01995050600181019050613e43565b50829750879550505050505092915050565b6000613e9882614dcf565b613ea28185614e6a565b9350613ead83614d93565b8060005b83811015613ede578151613ec58882613c9a565b9750613ed083614e19565b925050600181019050613eb1565b5085935050505092915050565b613ef481614f4f565b82525050565b613f0381614f4f565b82525050565b6000613f1482614dda565b613f1e8185614e86565b9350613f2e818560208601614f94565b613f3781615100565b840191505092915050565b6000613f4d82614dda565b613f578185614e97565b9350613f67818560208601614f94565b613f7081615100565b840191505092915050565b6000613f8682614dda565b613f908185614ea8565b9350613fa0818560208601614f94565b80840191505092915050565b6000613fb9601a83614e97565b9150613fc482615111565b602082019050919050565b6000613fdc602083614e97565b9150613fe78261513a565b602082019050919050565b6000613fff601c83614e97565b915061400a82615163565b602082019050919050565b6000614022601083614e97565b915061402d8261518c565b602082019050919050565b6000614045600a83614e97565b9150614050826151b5565b602082019050919050565b6000614068601a83614e97565b9150614073826151de565b602082019050919050565b600061408b601683614e97565b915061409682615207565b602082019050919050565b60006140ae601083614e97565b91506140b982615230565b602082019050919050565b60006140d1600d83614e97565b91506140dc82615259565b602082019050919050565b60006140f4601583614e97565b91506140ff82615282565b602082019050919050565b6000614117601783614e97565b9150614122826152ab565b602082019050919050565b600061413a601483614e97565b9150614145826152d4565b602082019050919050565b600061415d601b83614e97565b9150614168826152fd565b602082019050919050565b6000614180601183614e97565b915061418b82615326565b602082019050919050565b60006141a3601283614e97565b91506141ae8261534f565b602082019050919050565b60006141c6601683614e97565b91506141d182615378565b602082019050919050565b60006141e9601f83614e97565b91506141f4826153a1565b602082019050919050565b600061420c601c83614e97565b9150614217826153ca565b602082019050919050565b600061422f601883614e97565b915061423a826153f3565b602082019050919050565b6000614252602d83614e97565b915061425d8261541c565b604082019050919050565b6000614275601383614e97565b91506142808261546b565b602082019050919050565b6000614298601b83614e97565b91506142a382615494565b602082019050919050565b60006142bb601283614e97565b91506142c6826154bd565b602082019050919050565b60006142de600083614e7b565b91506142e9826154e6565b600082019050919050565b6000614301602583614e97565b915061430c826154e9565b604082019050919050565b6000614324602c83614e97565b915061432f82615538565b604082019050919050565b60a08201600082015161435060008501826145fd565b50602082015161436360208501826145fd565b5060408201516143766040850182613cb2565b50606082015161438960608501826145fd565b50608082015161439c60808501826145fd565b50505050565b6000610140830160008301516143bb60008601826145fd565b50602083015184820360208601526143d38282613f09565b915050604083015184820360408601526143ed8282613f09565b915050606083015184820360608601526144078282613f09565b915050608083015184820360808601526144218282613f09565b91505060a083015161443660a0860182613cb2565b5060c083015161444960c08601826145fd565b5060e083015161445c60e08601826145fd565b506101008301516144716101008601826145fd565b50610120830151614486610120860182613eeb565b508091505092915050565b6000610140830160008301516144aa60008601826145fd565b50602083015184820360208601526144c28282613f09565b915050604083015184820360408601526144dc8282613f09565b915050606083015184820360608601526144f68282613f09565b915050608083015184820360808601526145108282613f09565b91505060a083015161452560a0860182613cb2565b5060c083015161453860c08601826145fd565b5060e083015161454b60e08601826145fd565b506101008301516145606101008601826145fd565b50610120830151614575610120860182613eeb565b508091505092915050565b600060a0830160008301516145986000860182613cb2565b50602083015184820360208601526145b08282613f09565b91505060408301516145c560408601826145fd565b50606083015184820360608601526145dd8282613e8d565b91505060808301516145f26080860182613eeb565b508091505092915050565b61460681614f7b565b82525050565b61461581614f7b565b82525050565b60006146278284613f7b565b915081905092915050565b600061463d826142d1565b9150819050919050565b600060208201905061465c6000830184613cc1565b92915050565b60006040820190506146776000830185613cc1565b614684602083018461460c565b9392505050565b60006080820190506146a06000830187613cc1565b6146ad602083018661460c565b6146ba604083018561460c565b6146c7606083018461460c565b95945050505050565b600060208201905081810360008301526146ea8184613cd0565b905092915050565b6000602082019050818103600083015261470c8184613d45565b905092915050565b6000602082019050818103600083015261472e8184613da3565b905092915050565b600060208201905081810360008301526147508184613e18565b905092915050565b600060208201905061476d6000830184613efa565b92915050565b6000602082019050818103600083015261478d8184613f42565b905092915050565b600060408201905081810360008301526147af8185613f42565b90506147be6020830184613cc1565b9392505050565b600060208201905081810360008301526147de81613fac565b9050919050565b600060208201905081810360008301526147fe81613fcf565b9050919050565b6000602082019050818103600083015261481e81613ff2565b9050919050565b6000602082019050818103600083015261483e81614015565b9050919050565b6000602082019050818103600083015261485e81614038565b9050919050565b6000602082019050818103600083015261487e8161405b565b9050919050565b6000602082019050818103600083015261489e8161407e565b9050919050565b600060208201905081810360008301526148be816140a1565b9050919050565b600060208201905081810360008301526148de816140c4565b9050919050565b600060208201905081810360008301526148fe816140e7565b9050919050565b6000602082019050818103600083015261491e8161410a565b9050919050565b6000602082019050818103600083015261493e8161412d565b9050919050565b6000602082019050818103600083015261495e81614150565b9050919050565b6000602082019050818103600083015261497e81614173565b9050919050565b6000602082019050818103600083015261499e81614196565b9050919050565b600060208201905081810360008301526149be816141b9565b9050919050565b600060208201905081810360008301526149de816141dc565b9050919050565b600060208201905081810360008301526149fe816141ff565b9050919050565b60006020820190508181036000830152614a1e81614222565b9050919050565b60006020820190508181036000830152614a3e81614245565b9050919050565b60006020820190508181036000830152614a5e81614268565b9050919050565b60006020820190508181036000830152614a7e8161428b565b9050919050565b60006020820190508181036000830152614a9e816142ae565b9050919050565b60006020820190508181036000830152614abe816142f4565b9050919050565b60006020820190508181036000830152614ade81614317565b9050919050565b60006020820190508181036000830152614aff8184614491565b905092915050565b6000602082019050614b1c600083018461460c565b92915050565b6000608082019050614b37600083018761460c565b614b446020830186613cc1565b614b516040830185613cc1565b614b5e606083018461460c565b95945050505050565b600060e082019050614b7c600083018a61460c565b8181036020830152614b8e8189613f42565b90508181036040830152614ba28188613f42565b90508181036060830152614bb68187613f42565b90508181036080830152614bca8186613f42565b9050614bd960a0830185613cc1565b614be660c083018461460c565b98975050505050505050565b600061014082019050614c08600083018d61460c565b8181036020830152614c1a818c613f42565b90508181036040830152614c2e818b613f42565b90508181036060830152614c42818a613f42565b90508181036080830152614c568189613f42565b9050614c6560a0830188613cc1565b614c7260c083018761460c565b614c7f60e083018661460c565b614c8d61010083018561460c565b614c9b610120830184613efa565b9b9a5050505050505050505050565b600060a082019050614cbf600083018861460c565b614ccc602083018761460c565b614cd96040830186613cc1565b614ce6606083018561460c565b614cf3608083018461460c565b9695505050505050565b6000614d07614d18565b9050614d138282614ff9565b919050565b6000604051905090565b600067ffffffffffffffff821115614d3d57614d3c6150d1565b5b614d4682615100565b9050602081019050919050565b6000819050602082019050919050565b6000819050602082019050919050565b6000819050602082019050919050565b6000819050602082019050919050565b6000819050602082019050919050565b600081519050919050565b600081519050919050565b600081519050919050565b600081519050919050565b600081519050919050565b600081519050919050565b6000602082019050919050565b6000602082019050919050565b6000602082019050919050565b6000602082019050919050565b6000602082019050919050565b600082825260208201905092915050565b600082825260208201905092915050565b600082825260208201905092915050565b600082825260208201905092915050565b600082825260208201905092915050565b600081905092915050565b600082825260208201905092915050565b600082825260208201905092915050565b600081905092915050565b6000614ebe82614f7b565b9150614ec983614f7b565b9250827fffffffffffffffffffffffffffffffffffffffffffffffffffffffffffffffff03821115614efe57614efd615073565b5b828201905092915050565b6000614f1482614f7b565b9150614f1f83614f7b565b925082821015614f3257614f31615073565b5b828203905092915050565b6000614f4882614f5b565b9050919050565b60008115159050919050565b600073ffffffffffffffffffffffffffffffffffffffff82169050919050565b6000819050919050565b82818337600083830152505050565b60005b83811015614fb2578082015181840152602081019050614f97565b83811115614fc1576000848401525b50505050565b60006002820490506001821680614fdf57607f821691505b60208210811415614ff357614ff26150a2565b5b50919050565b61500282615100565b810181811067ffffffffffffffff82111715615021576150206150d1565b5b80604052505050565b600061503582614f7b565b91507fffffffffffffffffffffffffffffffffffffffffffffffffffffffffffffffff82141561506857615067615073565b5b600182019050919050565b7f4e487b7100000000000000000000000000000000000000000000000000000000600052601160045260246000fd5b7f4e487b7100000000000000000000000000000000000000000000000000000000600052602260045260246000fd5b7f4e487b7100000000000000000000000000000000000000000000000000000000600052604160045260246000fd5b6000601f19601f8301169050919050565b7f6465736372697074696f6e2063616e277420626520656d707479000000000000600082015250565b7f616c726561647920612075736572207769746820746869732061646472657373600082015250565b7f74686520706f73742070726963652063616e2774206265206672656500000000600082015250565b7f696e76616c69642063617465676f727900000000000000000000000000000000600082015250565b7f696e76616c696420696400000000000000000000000000000000000000000000600082015250565b7f596f752063616e277420626964206f6e20796f757220706f7374000000000000600082015250565b7f596f75206861766520746f206269642068696768657200000000000000000000600082015250565b7f706f7374207374696c6c20617469766500000000000000000000000000000000600082015250565b7f696420696e73277420676f6f6400000000000000000000000000000000000000600082015250565b7f596f7520617265206e6f7420746865206f776e65720000000000000000000000600082015250565b7f63617465676f727920616c726561647920657869737473000000000000000000600082015250565b7f6661696c656420746f2073656e64206574686572000000000000000000000000600082015250565b7f596f7520646f6e2774206861766520656e6f7567682066756e64730000000000600082015250565b7f706f737420616c726561647920736f6c64000000000000000000000000000000600082015250565b7f596f7520617265206e6f74206120757365720000000000000000000000000000600082015250565b7f596f75206e65656420746f2073656e6420657468657200000000000000000000600082015250565b7f6e6f206f6e652077616e747320746f2062757920796f722070726f6475637400600082015250565b7f706f73742068617320746f20626520706f73746564206c6f6e67657200000000600082015250565b7f696d6167652075726c2063616e277420626520656d7074790000000000000000600082015250565b7f796f752063616e2774206c6f6f6b206174207468652062616c616e6365206f6660008201527f20736f6d656f6e6520656c736500000000000000000000000000000000000000602082015250565b7f6e616d652063616e277420626520656d70747900000000000000000000000000600082015250565b7f596f7520646f6e2774206861766520656e6f756768206d6f6e65790000000000600082015250565b7f7573657220646f73656e27742065786973740000000000000000000000000000600082015250565b50565b7f6f6e6c79207468652061646d696e2063616e2063616c6c20746869732066756e60008201527f6374696f6e000000000000000000000000000000000000000000000000000000602082015250565b7f596f75206e65656420746f207370656369667920616e20616d6f756e7420677260008201527f6561746572207468656e20300000000000000000000000000000000000000000602082015250565b61559081614f3d565b811461559b57600080fd5b50565b6155a781614f7b565b81146155b257600080fd5b5056fea26469706673582212209146e6c9ef1b422028cb1199d1423c14ea84cb5876919588058cda389dc27d5a64736f6c63430008040033",
  "linkReferences": {},
  "deployedLinkReferences": {}
}