{
  "_format": "hh-sol-artifact-1",
  "contractName": "EthMarket",
  "sourceName": "contracts/ethMarket.sol",
  "abi": [
    {
      "inputs": [],
      "stateMutability": "nonpayable",
      "type": "constructor"
    },
    {
      "anonymous": false,
      "inputs": [
        {
          "indexed": false,
          "internalType": "string",
          "name": "category",
          "type": "string"
        }
      ],
      "name": "AddCategory",
      "type": "event"
    },
    {
      "anonymous": false,
      "inputs": [
        {
          "indexed": false,
          "internalType": "address",
          "name": "addr",
          "type": "address"
        },
        {
          "indexed": false,
          "internalType": "uint256",
          "name": "amount",
          "type": "uint256"
        }
      ],
      "name": "Burn",
      "type": "event"
    },
    {
      "anonymous": false,
      "inputs": [
        {
          "indexed": false,
          "internalType": "address",
          "name": "from",
          "type": "address"
        },
        {
          "indexed": false,
          "internalType": "uint256",
          "name": "id",
          "type": "uint256"
        },
        {
          "indexed": false,
          "internalType": "uint256",
          "name": "postId",
          "type": "uint256"
        },
        {
          "indexed": false,
          "internalType": "uint256",
          "name": "amount",
          "type": "uint256"
        }
      ],
      "name": "CreateBid",
      "type": "event"
    },
    {
      "anonymous": false,
      "inputs": [
        {
          "indexed": false,
          "internalType": "uint256",
          "name": "id",
          "type": "uint256"
        },
        {
          "indexed": false,
          "internalType": "string",
          "name": "name",
          "type": "string"
        },
        {
          "indexed": false,
          "internalType": "string",
          "name": "desc",
          "type": "string"
        },
        {
          "indexed": false,
          "internalType": "string",
          "name": "category",
          "type": "string"
        },
        {
          "indexed": false,
          "internalType": "string",
          "name": "image",
          "type": "string"
        },
        {
          "indexed": false,
          "internalType": "address",
          "name": "owner",
          "type": "address"
        },
        {
          "indexed": false,
          "internalType": "uint256",
          "name": "price",
          "type": "uint256"
        }
      ],
      "name": "CreatePost",
      "type": "event"
    },
    {
      "anonymous": false,
      "inputs": [
        {
          "indexed": false,
          "internalType": "address",
          "name": "addr",
          "type": "address"
        },
        {
          "indexed": false,
          "internalType": "uint256",
          "name": "amount",
          "type": "uint256"
        }
      ],
      "name": "Deposit",
      "type": "event"
    },
    {
      "anonymous": false,
      "inputs": [
        {
          "indexed": false,
          "internalType": "uint256",
          "name": "postId",
          "type": "uint256"
        },
        {
          "indexed": false,
          "internalType": "address",
          "name": "to",
          "type": "address"
        },
        {
          "indexed": false,
          "internalType": "address",
          "name": "from",
          "type": "address"
        },
        {
          "indexed": false,
          "internalType": "uint256",
          "name": "amount",
          "type": "uint256"
        }
      ],
      "name": "Sold",
      "type": "event"
    },
    {
      "anonymous": false,
      "inputs": [
        {
          "indexed": false,
          "internalType": "string",
          "name": "name",
          "type": "string"
        },
        {
          "indexed": false,
          "internalType": "address",
          "name": "addr",
          "type": "address"
        }
      ],
      "name": "UserCreated",
      "type": "event"
    },
    {
      "anonymous": false,
      "inputs": [
        {
          "indexed": false,
          "internalType": "address",
          "name": "addr",
          "type": "address"
        }
      ],
      "name": "UserDeleted",
      "type": "event"
    },
    {
      "inputs": [
        {
          "internalType": "string",
          "name": "category",
          "type": "string"
        }
      ],
      "name": "addCategory",
      "outputs": [],
      "stateMutability": "nonpayable",
      "type": "function"
    },
    {
      "inputs": [
        {
          "internalType": "uint256",
          "name": "postId",
          "type": "uint256"
        },
        {
          "internalType": "uint256",
          "name": "amount",
          "type": "uint256"
        }
      ],
      "name": "bid",
      "outputs": [],
      "stateMutability": "nonpayable",
      "type": "function"
    },
    {
      "inputs": [
        {
          "internalType": "uint256",
          "name": "",
          "type": "uint256"
        },
        {
          "internalType": "uint256",
          "name": "",
          "type": "uint256"
        }
      ],
      "name": "bids",
      "outputs": [
        {
          "internalType": "uint256",
          "name": "id",
          "type": "uint256"
        },
        {
          "internalType": "uint256",
          "name": "postId",
          "type": "uint256"
        },
        {
          "internalType": "address",
          "name": "from",
          "type": "address"
        },
        {
          "internalType": "uint256",
          "name": "amount",
          "type": "uint256"
        },
        {
          "internalType": "uint256",
          "name": "time",
          "type": "uint256"
        }
      ],
      "stateMutability": "view",
      "type": "function"
    },
    {
      "inputs": [
        {
          "internalType": "uint256",
          "name": "amount",
          "type": "uint256"
        }
      ],
      "name": "burn",
      "outputs": [],
      "stateMutability": "nonpayable",
      "type": "function"
    },
    {
      "inputs": [
        {
          "internalType": "string",
          "name": "name",
          "type": "string"
        },
        {
          "internalType": "string",
          "name": "desc",
          "type": "string"
        },
        {
          "internalType": "string",
          "name": "category",
          "type": "string"
        },
        {
          "internalType": "string",
          "name": "image",
          "type": "string"
        },
        {
          "internalType": "uint256",
          "name": "endDate",
          "type": "uint256"
        },
        {
          "internalType": "uint256",
          "name": "price",
          "type": "uint256"
        }
      ],
      "name": "createPost",
      "outputs": [],
      "stateMutability": "nonpayable",
      "type": "function"
    },
    {
      "inputs": [
        {
          "internalType": "string",
          "name": "name",
          "type": "string"
        }
      ],
      "name": "createUser",
      "outputs": [],
      "stateMutability": "nonpayable",
      "type": "function"
    },
    {
      "inputs": [],
      "name": "deleteUser",
      "outputs": [],
      "stateMutability": "nonpayable",
      "type": "function"
    },
    {
      "inputs": [
        {
          "internalType": "address",
          "name": "who",
          "type": "address"
        }
      ],
      "name": "getBalance",
      "outputs": [
        {
          "internalType": "uint256",
          "name": "",
          "type": "uint256"
        }
      ],
      "stateMutability": "view",
      "type": "function"
    },
    {
      "inputs": [
        {
          "internalType": "uint256",
          "name": "postId",
          "type": "uint256"
        }
      ],
      "name": "getBids",
      "outputs": [
        {
          "components": [
            {
              "internalType": "uint256",
              "name": "id",
              "type": "uint256"
            },
            {
              "internalType": "uint256",
              "name": "postId",
              "type": "uint256"
            },
            {
              "internalType": "address",
              "name": "from",
              "type": "address"
            },
            {
              "internalType": "uint256",
              "name": "amount",
              "type": "uint256"
            },
            {
              "internalType": "uint256",
              "name": "time",
              "type": "uint256"
            }
          ],
          "internalType": "struct EthMarket.Bid[]",
          "name": "",
          "type": "tuple[]"
        }
      ],
      "stateMutability": "view",
      "type": "function"
    },
    {
      "inputs": [],
      "name": "getCategories",
      "outputs": [
        {
          "internalType": "string[]",
          "name": "",
          "type": "string[]"
        }
      ],
      "stateMutability": "view",
      "type": "function"
    },
    {
      "inputs": [],
      "name": "getContractBalance",
      "outputs": [
        {
          "internalType": "uint256",
          "name": "",
          "type": "uint256"
        }
      ],
      "stateMutability": "view",
      "type": "function"
    },
    {
      "inputs": [
        {
          "internalType": "uint256",
          "name": "id",
          "type": "uint256"
        }
      ],
      "name": "getPost",
      "outputs": [
        {
          "components": [
            {
              "internalType": "uint256",
              "name": "id",
              "type": "uint256"
            },
            {
              "internalType": "string",
              "name": "name",
              "type": "string"
            },
            {
              "internalType": "string",
              "name": "description",
              "type": "string"
            },
            {
              "internalType": "string",
              "name": "category",
              "type": "string"
            },
            {
              "internalType": "string",
              "name": "imageUrl",
              "type": "string"
            },
            {
              "internalType": "address",
              "name": "owner",
              "type": "address"
            },
            {
              "internalType": "uint256",
              "name": "startDate",
              "type": "uint256"
            },
            {
              "internalType": "uint256",
              "name": "endDate",
              "type": "uint256"
            },
            {
              "internalType": "uint256",
              "name": "price",
              "type": "uint256"
            },
            {
              "internalType": "bool",
              "name": "sold",
              "type": "bool"
            }
          ],
          "internalType": "struct EthMarket.Post",
          "name": "",
          "type": "tuple"
        }
      ],
      "stateMutability": "view",
      "type": "function"
    },
    {
      "inputs": [],
      "name": "getPosts",
      "outputs": [
        {
          "components": [
            {
              "internalType": "uint256",
              "name": "id",
              "type": "uint256"
            },
            {
              "internalType": "string",
              "name": "name",
              "type": "string"
            },
            {
              "internalType": "string",
              "name": "description",
              "type": "string"
            },
            {
              "internalType": "string",
              "name": "category",
              "type": "string"
            },
            {
              "internalType": "string",
              "name": "imageUrl",
              "type": "string"
            },
            {
              "internalType": "address",
              "name": "owner",
              "type": "address"
            },
            {
              "internalType": "uint256",
              "name": "startDate",
              "type": "uint256"
            },
            {
              "internalType": "uint256",
              "name": "endDate",
              "type": "uint256"
            },
            {
              "internalType": "uint256",
              "name": "price",
              "type": "uint256"
            },
            {
              "internalType": "bool",
              "name": "sold",
              "type": "bool"
            }
          ],
          "internalType": "struct EthMarket.Post[]",
          "name": "",
          "type": "tuple[]"
        }
      ],
      "stateMutability": "view",
      "type": "function"
    },
    {
      "inputs": [],
      "name": "getUserBids",
      "outputs": [
        {
          "components": [
            {
              "internalType": "uint256",
              "name": "id",
              "type": "uint256"
            },
            {
              "internalType": "uint256",
              "name": "postId",
              "type": "uint256"
            },
            {
              "internalType": "address",
              "name": "from",
              "type": "address"
            },
            {
              "internalType": "uint256",
              "name": "amount",
              "type": "uint256"
            },
            {
              "internalType": "uint256",
              "name": "time",
              "type": "uint256"
            }
          ],
          "internalType": "struct EthMarket.Bid[]",
          "name": "",
          "type": "tuple[]"
        }
      ],
      "stateMutability": "view",
      "type": "function"
    },
    {
      "inputs": [],
      "name": "getUserPosts",
      "outputs": [
        {
          "components": [
            {
              "internalType": "uint256",
              "name": "id",
              "type": "uint256"
            },
            {
              "internalType": "string",
              "name": "name",
              "type": "string"
            },
            {
              "internalType": "string",
              "name": "description",
              "type": "string"
            },
            {
              "internalType": "string",
              "name": "category",
              "type": "string"
            },
            {
              "internalType": "string",
              "name": "imageUrl",
              "type": "string"
            },
            {
              "internalType": "address",
              "name": "owner",
              "type": "address"
            },
            {
              "internalType": "uint256",
              "name": "startDate",
              "type": "uint256"
            },
            {
              "internalType": "uint256",
              "name": "endDate",
              "type": "uint256"
            },
            {
              "internalType": "uint256",
              "name": "price",
              "type": "uint256"
            },
            {
              "internalType": "bool",
              "name": "sold",
              "type": "bool"
            }
          ],
          "internalType": "struct EthMarket.Post[]",
          "name": "",
          "type": "tuple[]"
        }
      ],
      "stateMutability": "view",
      "type": "function"
    },
    {
      "inputs": [
        {
          "internalType": "address",
          "name": "who",
          "type": "address"
        }
      ],
      "name": "getUsername",
      "outputs": [
        {
          "internalType": "string",
          "name": "",
          "type": "string"
        }
      ],
      "stateMutability": "view",
      "type": "function"
    },
    {
      "inputs": [
        {
          "internalType": "address[]",
          "name": "who",
          "type": "address[]"
        }
      ],
      "name": "getUsernames",
      "outputs": [
        {
          "internalType": "string[]",
          "name": "",
          "type": "string[]"
        }
      ],
      "stateMutability": "view",
      "type": "function"
    },
    {
      "inputs": [],
      "name": "isUser",
      "outputs": [
        {
          "internalType": "bool",
          "name": "",
          "type": "bool"
        }
      ],
      "stateMutability": "view",
      "type": "function"
    },
    {
      "inputs": [],
      "name": "mint",
      "outputs": [],
      "stateMutability": "payable",
      "type": "function"
    },
    {
      "inputs": [
        {
          "internalType": "uint256",
          "name": "",
          "type": "uint256"
        }
      ],
      "name": "posts",
      "outputs": [
        {
          "internalType": "uint256",
          "name": "id",
          "type": "uint256"
        },
        {
          "internalType": "string",
          "name": "name",
          "type": "string"
        },
        {
          "internalType": "string",
          "name": "description",
          "type": "string"
        },
        {
          "internalType": "string",
          "name": "category",
          "type": "string"
        },
        {
          "internalType": "string",
          "name": "imageUrl",
          "type": "string"
        },
        {
          "internalType": "address",
          "name": "owner",
          "type": "address"
        },
        {
          "internalType": "uint256",
          "name": "startDate",
          "type": "uint256"
        },
        {
          "internalType": "uint256",
          "name": "endDate",
          "type": "uint256"
        },
        {
          "internalType": "uint256",
          "name": "price",
          "type": "uint256"
        },
        {
          "internalType": "bool",
          "name": "sold",
          "type": "bool"
        }
      ],
      "stateMutability": "view",
      "type": "function"
    },
    {
      "inputs": [
        {
          "internalType": "uint256",
          "name": "postId",
          "type": "uint256"
        }
      ],
      "name": "sell",
      "outputs": [],
      "stateMutability": "nonpayable",
      "type": "function"
    }
  ],
  "bytecode": "0x60806040526040518060c001604052806040518060400160405280600581526020017f53706f727400000000000000000000000000000000000000000000000000000081525081526020016040518060400160405280600481526020017f546563680000000000000000000000000000000000000000000000000000000081525081526020016040518060400160405280600481526020017f436172730000000000000000000000000000000000000000000000000000000081525081526020016040518060400160405280600781526020017f436c6f746865730000000000000000000000000000000000000000000000000081525081526020016040518060400160405280600a81526020017f4675726e697368696e670000000000000000000000000000000000000000000081525081526020016040518060400160405280600581526020017f4f74686572000000000000000000000000000000000000000000000000000000815250815250600490600662000181929190620001ee565b503480156200018f57600080fd5b50336000806101000a81548173ffffffffffffffffffffffffffffffffffffffff021916908373ffffffffffffffffffffffffffffffffffffffff160217905550600060038190555060006008819055506000600781905550620003d8565b82805482825590600052602060002090810192821562000242579160200282015b82811115620002415782518290805190602001906200023092919062000255565b50916020019190600101906200020f565b5b509050620002519190620002e6565b5090565b828054620002639062000373565b90600052602060002090601f016020900481019282620002875760008555620002d3565b82601f10620002a257805160ff1916838001178555620002d3565b82800160010185558215620002d3579182015b82811115620002d2578251825591602001919060010190620002b5565b5b509050620002e291906200030e565b5090565b5b808211156200030a57600081816200030091906200032d565b50600101620002e7565b5090565b5b80821115620003295760008160009055506001016200030f565b5090565b5080546200033b9062000373565b6000825580601f106200034f575062000370565b601f0160209004906000526020600020908101906200036f91906200030e565b5b50565b600060028204905060018216806200038c57607f821691505b60208210811415620003a357620003a2620003a9565b5b50919050565b7f4e487b7100000000000000000000000000000000000000000000000000000000600052602260045260246000fd5b615c3780620003e86000396000f3fe60806040526004361061012a5760003560e01c80634f17ef81116100ab5780637bc5711e1161006f5780637bc5711e146103cc578063cc4ef2cc146103f5578063ce43c03214610420578063e4849b321461045d578063f5ab196e14610486578063f8b2cb4f146104c35761012a565b80634f17ef81146102e3578063507ffba51461030e578063598647f8146103375780636f9fb98a146103605780637b3c4baa1461038b5761012a565b806340731c24116100f257806340731c24146101fc57806341f3004a1461023957806342966c68146102645780634c22c1191461028d5780634db0412c146102b85761012a565b8063026ff05e1461012f5780630b1e7f83146101465780631249c58b1461018c578063131d9a27146101965780632e0dcbf7146101d3575b600080fd5b34801561013b57600080fd5b50610144610500565b005b34801561015257600080fd5b5061016d60048036038101906101689190614339565b610914565b6040516101839a99989796959493929190615232565b60405180910390f35b610194610bb5565b005b3480156101a257600080fd5b506101bd60048036038101906101b89190614339565b610d22565b6040516101ca9190614d14565b60405180910390f35b3480156101df57600080fd5b506101fa60048036038101906101f5919061420f565b610e57565b005b34801561020857600080fd5b50610223600480360381019061021e9190614339565b610fa4565b6040516102309190615125565b60405180910390f35b34801561024557600080fd5b5061024e6112f8565b60405161025b9190614d36565b60405180910390f35b34801561027057600080fd5b5061028b60048036038101906102869190614339565b611756565b005b34801561029957600080fd5b506102a26119f9565b6040516102af9190614d58565b60405180910390f35b3480156102c457600080fd5b506102cd611a61565b6040516102da9190614cf2565b60405180910390f35b3480156102ef57600080fd5b506102f8611b3a565b6040516103059190614d14565b60405180910390f35b34801561031a57600080fd5b506103356004803603810190610330919061420f565b611f53565b005b34801561034357600080fd5b5061035e60048036038101906103599190614362565b612169565b005b34801561036c57600080fd5b50610375612808565b6040516103829190615147565b60405180910390f35b34801561039757600080fd5b506103b260048036038101906103ad9190614362565b61289f565b6040516103c39594939291906152ea565b60405180910390f35b3480156103d857600080fd5b506103f360048036038101906103ee9190614250565b612912565b005b34801561040157600080fd5b5061040a612cee565b6040516104179190614d36565b60405180910390f35b34801561042c57600080fd5b50610447600480360381019061044291906141a5565b6131ee565b6040516104549190614d73565b60405180910390f35b34801561046957600080fd5b50610484600480360381019061047f9190614339565b613351565b005b34801561049257600080fd5b506104ad60048036038101906104a891906141ce565b613780565b6040516104ba9190614cf2565b60405180910390f35b3480156104cf57600080fd5b506104ea60048036038101906104e591906141a5565b613a42565b6040516104f79190615147565b60405180910390f35b60011515600160003373ffffffffffffffffffffffffffffffffffffffff1673ffffffffffffffffffffffffffffffffffffffff16815260200190815260200160002060050160009054906101000a900460ff16151514610596576040517f08c379a000000000000000000000000000000000000000000000000000000000815260040161058d906150a5565b60405180910390fd5b6000600160003373ffffffffffffffffffffffffffffffffffffffff1673ffffffffffffffffffffffffffffffffffffffff1681526020019081526020016000206002015411156106d4576000803373ffffffffffffffffffffffffffffffffffffffff16600160003373ffffffffffffffffffffffffffffffffffffffff1673ffffffffffffffffffffffffffffffffffffffff1681526020019081526020016000206002015460405161064a90614c54565b60006040518083038185875af1925050503d8060008114610687576040519150601f19603f3d011682016040523d82523d6000602084013e61068c565b606091505b5091509150816106d1576040517f08c379a00000000000000000000000000000000000000000000000000000000081526004016106c890614f45565b60405180910390fd5b50505b6000600160003373ffffffffffffffffffffffffffffffffffffffff1673ffffffffffffffffffffffffffffffffffffffff168152602001908152602001600020905060008160050160006101000a81548160ff02191690831515021790555060008160000160006101000a81548173ffffffffffffffffffffffffffffffffffffffff021916908373ffffffffffffffffffffffffffffffffffffffff16021790555060008160020181905550604051806020016040528060008152508160010190805190602001906107a9929190613f2a565b5060005b3373ffffffffffffffffffffffffffffffffffffffff16600282815481106107fe577f4e487b7100000000000000000000000000000000000000000000000000000000600052603260045260246000fd5b9060005260206000200160009054906101000a900473ffffffffffffffffffffffffffffffffffffffff1673ffffffffffffffffffffffffffffffffffffffff16146108585760018161085191906154ad565b90506107ad565b60028181548110610892577f4e487b7100000000000000000000000000000000000000000000000000000000600052603260045260246000fd5b9060005260206000200160006101000a81549073ffffffffffffffffffffffffffffffffffffffff02191690556001600360008282546108d29190615503565b925050819055507f4bc56f1321288dfb5b416cb3a7fd188723979f9e866c91d88eccf7fca039d039336040516109089190614c69565b60405180910390a15050565b600560205280600052604060002060009150905080600001549080600101805461093d906155c1565b80601f0160208091040260200160405190810160405280929190818152602001828054610969906155c1565b80156109b65780601f1061098b576101008083540402835291602001916109b6565b820191906000526020600020905b81548152906001019060200180831161099957829003601f168201915b5050505050908060020180546109cb906155c1565b80601f01602080910402602001604051908101604052809291908181526020018280546109f7906155c1565b8015610a445780601f10610a1957610100808354040283529160200191610a44565b820191906000526020600020905b815481529060010190602001808311610a2757829003601f168201915b505050505090806003018054610a59906155c1565b80601f0160208091040260200160405190810160405280929190818152602001828054610a85906155c1565b8015610ad25780601f10610aa757610100808354040283529160200191610ad2565b820191906000526020600020905b815481529060010190602001808311610ab557829003601f168201915b505050505090806004018054610ae7906155c1565b80601f0160208091040260200160405190810160405280929190818152602001828054610b13906155c1565b8015610b605780601f10610b3557610100808354040283529160200191610b60565b820191906000526020600020905b815481529060010190602001808311610b4357829003601f168201915b5050505050908060050160009054906101000a900473ffffffffffffffffffffffffffffffffffffffff16908060060154908060070154908060080154908060090160009054906101000a900460ff1690508a565b60011515600160003373ffffffffffffffffffffffffffffffffffffffff1673ffffffffffffffffffffffffffffffffffffffff16815260200190815260200160002060050160009054906101000a900460ff16151514610c4b576040517f08c379a0000000000000000000000000000000000000000000000000000000008152600401610c42906150a5565b60405180910390fd5b60003411610c8e576040517f08c379a0000000000000000000000000000000000000000000000000000000008152600401610c8590614fe5565b60405180910390fd5b34600160003373ffffffffffffffffffffffffffffffffffffffff1673ffffffffffffffffffffffffffffffffffffffff1681526020019081526020016000206002016000828254610ce091906154ad565b925050819055507fe1fffcc4923d04b559f4d29a8bfc6cda04eb5b0d3c460751c2402c5c5cc9109c3334604051610d18929190614c84565b60405180910390a1565b6060600754821115610d69576040517f08c379a0000000000000000000000000000000000000000000000000000000008152600401610d6090614ec5565b60405180910390fd5b60066000838152602001908152602001600020805480602002602001604051908101604052809291908181526020016000905b82821015610e4c57838290600052602060002090600502016040518060a001604052908160008201548152602001600182015481526020016002820160009054906101000a900473ffffffffffffffffffffffffffffffffffffffff1673ffffffffffffffffffffffffffffffffffffffff1673ffffffffffffffffffffffffffffffffffffffff1681526020016003820154815260200160048201548152505081526020019060010190610d9c565b505050509050919050565b610e6081613b8b565b15610ea0576040517f08c379a0000000000000000000000000000000000000000000000000000000008152600401610e9790614f05565b60405180910390fd5b60008054906101000a900473ffffffffffffffffffffffffffffffffffffffff1673ffffffffffffffffffffffffffffffffffffffff163373ffffffffffffffffffffffffffffffffffffffff1614610f2e576040517f08c379a0000000000000000000000000000000000000000000000000000000008152600401610f25906150e5565b60405180910390fd5b600481908060018154018082558091505060019003906000526020600020016000909190919091509080519060200190610f69929190613f2a565b507f5d184107cf80dc717ee2e108aad943e965417309735e1c460ba42f57a54f2a0d81604051610f999190614d73565b60405180910390a150565b610fac613fb0565b600754821115610ff1576040517f08c379a0000000000000000000000000000000000000000000000000000000008152600401610fe890614ec5565b60405180910390fd5b60056000838152602001908152602001600020604051806101400160405290816000820154815260200160018201805461102a906155c1565b80601f0160208091040260200160405190810160405280929190818152602001828054611056906155c1565b80156110a35780601f10611078576101008083540402835291602001916110a3565b820191906000526020600020905b81548152906001019060200180831161108657829003601f168201915b505050505081526020016002820180546110bc906155c1565b80601f01602080910402602001604051908101604052809291908181526020018280546110e8906155c1565b80156111355780601f1061110a57610100808354040283529160200191611135565b820191906000526020600020905b81548152906001019060200180831161111857829003601f168201915b5050505050815260200160038201805461114e906155c1565b80601f016020809104026020016040519081016040528092919081815260200182805461117a906155c1565b80156111c75780601f1061119c576101008083540402835291602001916111c7565b820191906000526020600020905b8154815290600101906020018083116111aa57829003601f168201915b505050505081526020016004820180546111e0906155c1565b80601f016020809104026020016040519081016040528092919081815260200182805461120c906155c1565b80156112595780601f1061122e57610100808354040283529160200191611259565b820191906000526020600020905b81548152906001019060200180831161123c57829003601f168201915b505050505081526020016005820160009054906101000a900473ffffffffffffffffffffffffffffffffffffffff1673ffffffffffffffffffffffffffffffffffffffff1673ffffffffffffffffffffffffffffffffffffffff1681526020016006820154815260200160078201548152602001600882015481526020016009820160009054906101000a900460ff1615151515815250509050919050565b6060600060075467ffffffffffffffff81111561133e577f4e487b7100000000000000000000000000000000000000000000000000000000600052604160045260246000fd5b60405190808252806020026020018201604052801561137757816020015b611364613fb0565b81526020019060019003908161135c5790505b50905060005b60075481101561174e576005600060018361139891906154ad565b815260200190815260200160002060090160009054906101000a900460ff161580156113e5575042600560006001846113d191906154ad565b815260200190815260200160002060070154115b1561173b57600560006001836113fb91906154ad565b8152602001908152602001600020604051806101400160405290816000820154815260200160018201805461142f906155c1565b80601f016020809104026020016040519081016040528092919081815260200182805461145b906155c1565b80156114a85780601f1061147d576101008083540402835291602001916114a8565b820191906000526020600020905b81548152906001019060200180831161148b57829003601f168201915b505050505081526020016002820180546114c1906155c1565b80601f01602080910402602001604051908101604052809291908181526020018280546114ed906155c1565b801561153a5780601f1061150f5761010080835404028352916020019161153a565b820191906000526020600020905b81548152906001019060200180831161151d57829003601f168201915b50505050508152602001600382018054611553906155c1565b80601f016020809104026020016040519081016040528092919081815260200182805461157f906155c1565b80156115cc5780601f106115a1576101008083540402835291602001916115cc565b820191906000526020600020905b8154815290600101906020018083116115af57829003601f168201915b505050505081526020016004820180546115e5906155c1565b80601f0160208091040260200160405190810160405280929190818152602001828054611611906155c1565b801561165e5780601f106116335761010080835404028352916020019161165e565b820191906000526020600020905b81548152906001019060200180831161164157829003601f168201915b505050505081526020016005820160009054906101000a900473ffffffffffffffffffffffffffffffffffffffff1673ffffffffffffffffffffffffffffffffffffffff1673ffffffffffffffffffffffffffffffffffffffff1681526020016006820154815260200160078201548152602001600882015481526020016009820160009054906101000a900460ff16151515158152505082828151811061172f577f4e487b7100000000000000000000000000000000000000000000000000000000600052603260045260246000fd5b60200260200101819052505b808061174690615624565b91505061137d565b508091505090565b60011515600160003373ffffffffffffffffffffffffffffffffffffffff1673ffffffffffffffffffffffffffffffffffffffff16815260200190815260200160002060050160009054906101000a900460ff161515146117ec576040517f08c379a00000000000000000000000000000000000000000000000000000000081526004016117e3906150a5565b60405180910390fd5b6000811161182f576040517f08c379a000000000000000000000000000000000000000000000000000000000815260040161182690615105565b60405180910390fd5b80600160003373ffffffffffffffffffffffffffffffffffffffff1673ffffffffffffffffffffffffffffffffffffffff1681526020019081526020016000206002015410156118b4576040517f08c379a00000000000000000000000000000000000000000000000000000000081526004016118ab90615085565b60405180910390fd5b6000803373ffffffffffffffffffffffffffffffffffffffff16836040516118db90614c54565b60006040518083038185875af1925050503d8060008114611918576040519150601f19603f3d011682016040523d82523d6000602084013e61191d565b606091505b509150915081611962576040517f08c379a000000000000000000000000000000000000000000000000000000000815260040161195990614f45565b60405180910390fd5b82600160003373ffffffffffffffffffffffffffffffffffffffff1673ffffffffffffffffffffffffffffffffffffffff16815260200190815260200160002060020160008282546119b49190615503565b925050819055507fcc16f5dbb4873280815c1ee09dbd06736cffcc184412cf7a71a0fdb75d397ca533846040516119ec929190614c84565b60405180910390a1505050565b6000600160003373ffffffffffffffffffffffffffffffffffffffff1673ffffffffffffffffffffffffffffffffffffffff16815260200190815260200160002060050160009054906101000a900460ff1615611a595760019050611a5e565b600090505b90565b60606004805480602002602001604051908101604052809291908181526020016000905b82821015611b31578382906000526020600020018054611aa4906155c1565b80601f0160208091040260200160405190810160405280929190818152602001828054611ad0906155c1565b8015611b1d5780601f10611af257610100808354040283529160200191611b1d565b820191906000526020600020905b815481529060010190602001808311611b0057829003601f168201915b505050505081526020019060010190611a85565b50505050905090565b6060611b446119f9565b611b83576040517f08c379a0000000000000000000000000000000000000000000000000000000008152600401611b7a90614fc5565b60405180910390fd5b6000600160003373ffffffffffffffffffffffffffffffffffffffff1673ffffffffffffffffffffffffffffffffffffffff16815260200190815260200160002060040180549050905060008167ffffffffffffffff811115611c0f577f4e487b7100000000000000000000000000000000000000000000000000000000600052604160045260246000fd5b604051908082528060200260200182016040528015611c4857816020015b611c3561401b565b815260200190600190039081611c2d5790505b50905060005b82811015611f4a576000600160003373ffffffffffffffffffffffffffffffffffffffff1673ffffffffffffffffffffffffffffffffffffffff1681526020019081526020016000206004018281548110611cd2577f4e487b7100000000000000000000000000000000000000000000000000000000600052603260045260246000fd5b90600052602060002090600202016001015490506000805b6006600084815260200190815260200160002080549050811015611e0e57600660008481526020019081526020016000208181548110611d53577f4e487b7100000000000000000000000000000000000000000000000000000000600052603260045260246000fd5b906000526020600020906005020160000154600160003373ffffffffffffffffffffffffffffffffffffffff1673ffffffffffffffffffffffffffffffffffffffff1681526020019081526020016000206004018581548110611ddf577f4e487b7100000000000000000000000000000000000000000000000000000000600052603260045260246000fd5b9060005260206000209060020201600001541415611dfb578091505b8080611e0690615624565b915050611cea565b50600660008381526020019081526020016000208181548110611e5a577f4e487b7100000000000000000000000000000000000000000000000000000000600052603260045260246000fd5b90600052602060002090600502016040518060a001604052908160008201548152602001600182015481526020016002820160009054906101000a900473ffffffffffffffffffffffffffffffffffffffff1673ffffffffffffffffffffffffffffffffffffffff1673ffffffffffffffffffffffffffffffffffffffff16815260200160038201548152602001600482015481525050848481518110611f2a577f4e487b7100000000000000000000000000000000000000000000000000000000600052603260045260246000fd5b602002602001018190525050508080611f4290615624565b915050611c4e565b50809250505090565b60001515600160003373ffffffffffffffffffffffffffffffffffffffff1673ffffffffffffffffffffffffffffffffffffffff16815260200190815260200160002060050160009054906101000a900460ff16151514611fe9576040517f08c379a0000000000000000000000000000000000000000000000000000000008152600401611fe090614de5565b60405180910390fd5b6000600160003373ffffffffffffffffffffffffffffffffffffffff1673ffffffffffffffffffffffffffffffffffffffff168152602001908152602001600020905060018160050160006101000a81548160ff021916908315150217905550338160000160006101000a81548173ffffffffffffffffffffffffffffffffffffffff021916908373ffffffffffffffffffffffffffffffffffffffff16021790555060008160020181905550818160010190805190602001906120ae929190613f2a565b506002339080600181540180825580915050600190039060005260206000200160009091909190916101000a81548173ffffffffffffffffffffffffffffffffffffffff021916908373ffffffffffffffffffffffffffffffffffffffff16021790555060016003600082825461212591906154ad565b925050819055507f673b132bfab7898651385299bf51a81f5d71d70c785d2c713bce0b05613b9518823360405161215d929190614d95565b60405180910390a15050565b6005600083815260200190815260200160002060050160009054906101000a900473ffffffffffffffffffffffffffffffffffffffff1673ffffffffffffffffffffffffffffffffffffffff163373ffffffffffffffffffffffffffffffffffffffff16141561220e576040517f08c379a000000000000000000000000000000000000000000000000000000000815260040161220590614e65565b60405180910390fd5b6000600660008481526020019081526020016000208054905090506000811115612659573373ffffffffffffffffffffffffffffffffffffffff16600660008581526020019081526020016000206001836122699190615503565b815481106122a0577f4e487b7100000000000000000000000000000000000000000000000000000000600052603260045260246000fd5b906000526020600020906005020160020160009054906101000a900473ffffffffffffffffffffffffffffffffffffffff1673ffffffffffffffffffffffffffffffffffffffff161415612419576006600084815260200190815260200160002060018261230e9190615503565b81548110612345577f4e487b7100000000000000000000000000000000000000000000000000000000600052603260045260246000fd5b90600052602060002090600502016003015461236033613a42565b600660008681526020019081526020016000206001846123809190615503565b815481106123b7577f4e487b7100000000000000000000000000000000000000000000000000000000600052603260045260246000fd5b9060005260206000209060050201600301546123d391906154ad565b1015612414576040517f08c379a000000000000000000000000000000000000000000000000000000000815260040161240b906150c5565b60405180910390fd5b612465565b8161242333613a42565b1015612464576040517f08c379a000000000000000000000000000000000000000000000000000000000815260040161245b90614f65565b60405180910390fd5b5b81600660008581526020019081526020016000206001836124869190615503565b815481106124bd577f4e487b7100000000000000000000000000000000000000000000000000000000600052603260045260246000fd5b9060005260206000209060050201600301541061250f576040517f08c379a000000000000000000000000000000000000000000000000000000000815260040161250690614e85565b60405180910390fd5b6006600084815260200190815260200160002060018261252f9190615503565b81548110612566577f4e487b7100000000000000000000000000000000000000000000000000000000600052603260045260246000fd5b906000526020600020906005020160030154600160006006600087815260200190815260200160002060018561259c9190615503565b815481106125d3577f4e487b7100000000000000000000000000000000000000000000000000000000600052603260045260246000fd5b906000526020600020906005020160020160009054906101000a900473ffffffffffffffffffffffffffffffffffffffff1673ffffffffffffffffffffffffffffffffffffffff1673ffffffffffffffffffffffffffffffffffffffff168152602001908152602001600020600201600082825461265191906154ad565b925050819055505b60016008600082825461266c91906154ad565b92505081905550600660008481526020019081526020016000206040518060a0016040528060085481526020018581526020013373ffffffffffffffffffffffffffffffffffffffff168152602001848152602001428152509080600181540180825580915050600190039060005260206000209060050201600090919091909150600082015181600001556020820151816001015560408201518160020160006101000a81548173ffffffffffffffffffffffffffffffffffffffff021916908373ffffffffffffffffffffffffffffffffffffffff1602179055506060820151816003015560808201518160040155505081600160003373ffffffffffffffffffffffffffffffffffffffff1673ffffffffffffffffffffffffffffffffffffffff16815260200190815260200160002060020160008282546127b19190615503565b925050819055506127c460085484613c9f565b7fa4f371487bb360f38a002aad1c1345c3c98cbdef491047055d54f0811fcdb28e3360085485856040516127fb9493929190614cad565b60405180910390a1505050565b60008060009054906101000a900473ffffffffffffffffffffffffffffffffffffffff1673ffffffffffffffffffffffffffffffffffffffff163373ffffffffffffffffffffffffffffffffffffffff1614612899576040517f08c379a000000000000000000000000000000000000000000000000000000000815260040161289090614ee5565b60405180910390fd5b47905090565b600660205281600052604060002081815481106128bb57600080fd5b9060005260206000209060050201600091509150508060000154908060010154908060020160009054906101000a900473ffffffffffffffffffffffffffffffffffffffff16908060030154908060040154905085565b85858484846129308560405180602001604052806000815250613dcf565b15612970576040517f08c379a000000000000000000000000000000000000000000000000000000000815260040161296790615065565b60405180910390fd5b6129898460405180602001604052806000815250613dcf565b156129c9576040517f08c379a00000000000000000000000000000000000000000000000000000000081526004016129c090614dc5565b60405180910390fd5b6129e28360405180602001604052806000815250613dcf565b15612a22576040517f08c379a0000000000000000000000000000000000000000000000000000000008152600401612a1990615025565b60405180910390fd5b428211612a64576040517f08c379a0000000000000000000000000000000000000000000000000000000008152600401612a5b90615005565b60405180910390fd5b60008111612aa7576040517f08c379a0000000000000000000000000000000000000000000000000000000008152600401612a9e90614e05565b60405180910390fd5b612ab089613b8b565b612aef576040517f08c379a0000000000000000000000000000000000000000000000000000000008152600401612ae690614e25565b60405180910390fd5b612af889613b8b565b50600160076000828254612b0c91906154ad565b9250508190555060405180610140016040528060075481526020018c81526020018b81526020018a81526020018981526020013373ffffffffffffffffffffffffffffffffffffffff16815260200142815260200188815260200187815260200160001515815250600560006007548152602001908152602001600020600082015181600001556020820151816001019080519060200190612baf929190613f2a565b506040820151816002019080519060200190612bcc929190613f2a565b506060820151816003019080519060200190612be9929190613f2a565b506080820151816004019080519060200190612c06929190613f2a565b5060a08201518160050160006101000a81548173ffffffffffffffffffffffffffffffffffffffff021916908373ffffffffffffffffffffffffffffffffffffffff16021790555060c0820151816006015560e0820151816007015561010082015181600801556101208201518160090160006101000a81548160ff021916908315150217905550905050612c9c600754613e28565b7f46217e9d4d088b96134f1a6b154910ad12e08600e02982d8c16d5397399c67f76007548c8c8c8c338c604051612cd997969594939291906151a7565b60405180910390a15050505050505050505050565b6060612cf86119f9565b612d37576040517f08c379a0000000000000000000000000000000000000000000000000000000008152600401612d2e90614fc5565b60405180910390fd5b6000600160003373ffffffffffffffffffffffffffffffffffffffff1673ffffffffffffffffffffffffffffffffffffffff16815260200190815260200160002060030180549050905060008167ffffffffffffffff811115612dc3577f4e487b7100000000000000000000000000000000000000000000000000000000600052604160045260246000fd5b604051908082528060200260200182016040528015612dfc57816020015b612de9613fb0565b815260200190600190039081612de15790505b50905060005b828110156131e55760056000600160003373ffffffffffffffffffffffffffffffffffffffff1673ffffffffffffffffffffffffffffffffffffffff1681526020019081526020016000206003018381548110612e88577f4e487b7100000000000000000000000000000000000000000000000000000000600052603260045260246000fd5b906000526020600020015481526020019081526020016000206040518061014001604052908160008201548152602001600182018054612ec7906155c1565b80601f0160208091040260200160405190810160405280929190818152602001828054612ef3906155c1565b8015612f405780601f10612f1557610100808354040283529160200191612f40565b820191906000526020600020905b815481529060010190602001808311612f2357829003601f168201915b50505050508152602001600282018054612f59906155c1565b80601f0160208091040260200160405190810160405280929190818152602001828054612f85906155c1565b8015612fd25780601f10612fa757610100808354040283529160200191612fd2565b820191906000526020600020905b815481529060010190602001808311612fb557829003601f168201915b50505050508152602001600382018054612feb906155c1565b80601f0160208091040260200160405190810160405280929190818152602001828054613017906155c1565b80156130645780601f1061303957610100808354040283529160200191613064565b820191906000526020600020905b81548152906001019060200180831161304757829003601f168201915b5050505050815260200160048201805461307d906155c1565b80601f01602080910402602001604051908101604052809291908181526020018280546130a9906155c1565b80156130f65780601f106130cb576101008083540402835291602001916130f6565b820191906000526020600020905b8154815290600101906020018083116130d957829003601f168201915b505050505081526020016005820160009054906101000a900473ffffffffffffffffffffffffffffffffffffffff1673ffffffffffffffffffffffffffffffffffffffff1673ffffffffffffffffffffffffffffffffffffffff1681526020016006820154815260200160078201548152602001600882015481526020016009820160009054906101000a900460ff1615151515815250508282815181106131c7577f4e487b7100000000000000000000000000000000000000000000000000000000600052603260045260246000fd5b602002602001018190525080806131dd90615624565b915050612e02565b50809250505090565b6060600160008373ffffffffffffffffffffffffffffffffffffffff1673ffffffffffffffffffffffffffffffffffffffff16815260200190815260200160002060050160009054906101000a900460ff1661327f576040517f08c379a000000000000000000000000000000000000000000000000000000000815260040161327690614f25565b60405180910390fd5b600160008373ffffffffffffffffffffffffffffffffffffffff1673ffffffffffffffffffffffffffffffffffffffff16815260200190815260200160002060010180546132cc906155c1565b80601f01602080910402602001604051908101604052809291908181526020018280546132f8906155c1565b80156133455780601f1061331a57610100808354040283529160200191613345565b820191906000526020600020905b81548152906001019060200180831161332857829003601f168201915b50505050509050919050565b8042600560008381526020019081526020016000206007015411156133ab576040517f08c379a00000000000000000000000000000000000000000000000000000000081526004016133a290614ea5565b60405180910390fd5b816007548111156133f1576040517f08c379a00000000000000000000000000000000000000000000000000000000081526004016133e890614e45565b60405180910390fd5b6005600082815260200190815260200160002060090160009054906101000a900460ff1615613455576040517f08c379a000000000000000000000000000000000000000000000000000000000815260040161344c90614f85565b60405180910390fd5b8260006006600083815260200190815260200160002080549050116134af576040517f08c379a00000000000000000000000000000000000000000000000000000000081526004016134a690614fa5565b60405180910390fd5b60066000858152602001908152602001600020600160066000878152602001908152602001600020805490506134e59190615503565b8154811061351c577f4e487b7100000000000000000000000000000000000000000000000000000000600052603260045260246000fd5b906000526020600020906005020160030154600160006005600088815260200190815260200160002060050160009054906101000a900473ffffffffffffffffffffffffffffffffffffffff1673ffffffffffffffffffffffffffffffffffffffff1673ffffffffffffffffffffffffffffffffffffffff16815260200190815260200160002060020160008282546135b591906154ad565b9250508190555060016005600086815260200190815260200160002060090160006101000a81548160ff0219169083151502179055507f23f50d55776d8003622a982ade45a6c7f083116c8dbbcd980f59942f440badb1846005600087815260200190815260200160002060050160009054906101000a900473ffffffffffffffffffffffffffffffffffffffff16600660008881526020019081526020016000206001600660008a81526020019081526020016000208054905061367a9190615503565b815481106136b1577f4e487b7100000000000000000000000000000000000000000000000000000000600052603260045260246000fd5b906000526020600020906005020160020160009054906101000a900473ffffffffffffffffffffffffffffffffffffffff16600660008981526020019081526020016000206001600660008b8152602001908152602001600020805490506137199190615503565b81548110613750577f4e487b7100000000000000000000000000000000000000000000000000000000600052603260045260246000fd5b9060005260206000209060050201600301546040516137729493929190615162565b60405180910390a150505050565b60606000825167ffffffffffffffff8111156137c5577f4e487b7100000000000000000000000000000000000000000000000000000000600052604160045260246000fd5b6040519080825280602002602001820160405280156137f857816020015b60608152602001906001900390816137e35790505b50905060005b8351811015613a385760016000858381518110613844577f4e487b7100000000000000000000000000000000000000000000000000000000600052603260045260246000fd5b602002602001015173ffffffffffffffffffffffffffffffffffffffff1673ffffffffffffffffffffffffffffffffffffffff16815260200190815260200160002060050160009054906101000a900460ff166138d6576040517f08c379a00000000000000000000000000000000000000000000000000000000081526004016138cd90614f25565b60405180910390fd5b60016000858381518110613913577f4e487b7100000000000000000000000000000000000000000000000000000000600052603260045260246000fd5b602002602001015173ffffffffffffffffffffffffffffffffffffffff1673ffffffffffffffffffffffffffffffffffffffff1681526020019081526020016000206001018054613963906155c1565b80601f016020809104026020016040519081016040528092919081815260200182805461398f906155c1565b80156139dc5780601f106139b1576101008083540402835291602001916139dc565b820191906000526020600020905b8154815290600101906020018083116139bf57829003601f168201915b5050505050828281518110613a1a577f4e487b7100000000000000000000000000000000000000000000000000000000600052603260045260246000fd5b60200260200101819052508080613a3090615624565b9150506137fe565b5080915050919050565b6000600160008373ffffffffffffffffffffffffffffffffffffffff1673ffffffffffffffffffffffffffffffffffffffff16815260200190815260200160002060050160009054906101000a900460ff16613ad3576040517f08c379a0000000000000000000000000000000000000000000000000000000008152600401613aca906150a5565b60405180910390fd5b3373ffffffffffffffffffffffffffffffffffffffff168273ffffffffffffffffffffffffffffffffffffffff1614613b41576040517f08c379a0000000000000000000000000000000000000000000000000000000008152600401613b3890615045565b60405180910390fd5b600160008373ffffffffffffffffffffffffffffffffffffffff1673ffffffffffffffffffffffffffffffffffffffff168152602001908152602001600020600201549050919050565b6000806000905060005b600480549050811015613c9557613c7860048281548110613bdf577f4e487b7100000000000000000000000000000000000000000000000000000000600052603260045260246000fd5b906000526020600020018054613bf4906155c1565b80601f0160208091040260200160405190810160405280929190818152602001828054613c20906155c1565b8015613c6d5780601f10613c4257610100808354040283529160200191613c6d565b820191906000526020600020905b815481529060010190602001808311613c5057829003601f168201915b505050505085613dcf565b15613c8257600191505b8080613c8d90615624565b915050613b95565b5080915050919050565b60011515600160003373ffffffffffffffffffffffffffffffffffffffff1673ffffffffffffffffffffffffffffffffffffffff16815260200190815260200160002060050160009054906101000a900460ff16151514613d35576040517f08c379a0000000000000000000000000000000000000000000000000000000008152600401613d2c906150a5565b60405180910390fd5b600160003373ffffffffffffffffffffffffffffffffffffffff1673ffffffffffffffffffffffffffffffffffffffff1681526020019081526020016000206004016040518060400160405280848152602001838152509080600181540180825580915050600190039060005260206000209060020201600090919091909150600082015181600001556020820151816001015550505050565b600081604051602001613de29190614c3d565b6040516020818303038152906040528051906020012083604051602001613e099190614c3d565b6040516020818303038152906040528051906020012014905092915050565b60011515600160003373ffffffffffffffffffffffffffffffffffffffff1673ffffffffffffffffffffffffffffffffffffffff16815260200190815260200160002060050160009054906101000a900460ff16151514613ebe576040517f08c379a0000000000000000000000000000000000000000000000000000000008152600401613eb5906150a5565b60405180910390fd5b600160003373ffffffffffffffffffffffffffffffffffffffff1673ffffffffffffffffffffffffffffffffffffffff16815260200190815260200160002060030181908060018154018082558091505060019003906000526020600020016000909190919091505550565b828054613f36906155c1565b90600052602060002090601f016020900481019282613f585760008555613f9f565b82601f10613f7157805160ff1916838001178555613f9f565b82800160010185558215613f9f579182015b82811115613f9e578251825591602001919060010190613f83565b5b509050613fac9190614060565b5090565b6040518061014001604052806000815260200160608152602001606081526020016060815260200160608152602001600073ffffffffffffffffffffffffffffffffffffffff1681526020016000815260200160008152602001600081526020016000151581525090565b6040518060a001604052806000815260200160008152602001600073ffffffffffffffffffffffffffffffffffffffff16815260200160008152602001600081525090565b5b80821115614079576000816000905550600101614061565b5090565b600061409061408b84615362565b61533d565b905080838252602082019050828560208602820111156140af57600080fd5b60005b858110156140df57816140c58882614127565b8452602084019350602083019250506001810190506140b2565b5050509392505050565b60006140fc6140f78461538e565b61533d565b90508281526020810184848401111561411457600080fd5b61411f84828561557f565b509392505050565b60008135905061413681615bd3565b92915050565b600082601f83011261414d57600080fd5b813561415d84826020860161407d565b91505092915050565b600082601f83011261417757600080fd5b81356141878482602086016140e9565b91505092915050565b60008135905061419f81615bea565b92915050565b6000602082840312156141b757600080fd5b60006141c584828501614127565b91505092915050565b6000602082840312156141e057600080fd5b600082013567ffffffffffffffff8111156141fa57600080fd5b6142068482850161413c565b91505092915050565b60006020828403121561422157600080fd5b600082013567ffffffffffffffff81111561423b57600080fd5b61424784828501614166565b91505092915050565b60008060008060008060c0878903121561426957600080fd5b600087013567ffffffffffffffff81111561428357600080fd5b61428f89828a01614166565b965050602087013567ffffffffffffffff8111156142ac57600080fd5b6142b889828a01614166565b955050604087013567ffffffffffffffff8111156142d557600080fd5b6142e189828a01614166565b945050606087013567ffffffffffffffff8111156142fe57600080fd5b61430a89828a01614166565b935050608061431b89828a01614190565b92505060a061432c89828a01614190565b9150509295509295509295565b60006020828403121561434b57600080fd5b600061435984828501614190565b91505092915050565b6000806040838503121561437557600080fd5b600061438385828601614190565b925050602061439485828601614190565b9150509250929050565b60006143aa8383614562565b905092915050565b60006143be83836149d9565b60a08301905092915050565b60006143d68383614a41565b905092915050565b6143e781615537565b82525050565b6143f681615537565b82525050565b6000614407826153ef565b6144118185615442565b935083602082028501614423856153bf565b8060005b8581101561445f5784840389528151614440858261439e565b945061444b8361541b565b925060208a01995050600181019050614427565b50829750879550505050505092915050565b600061447c826153fa565b6144868185615453565b9350614491836153cf565b8060005b838110156144c25781516144a988826143b2565b97506144b483615428565b925050600181019050614495565b5085935050505092915050565b60006144da82615405565b6144e48185615464565b9350836020820285016144f6856153df565b8060005b85811015614532578484038952815161451385826143ca565b945061451e83615435565b925060208a019950506001810190506144fa565b50829750879550505050505092915050565b61454d81615549565b82525050565b61455c81615549565b82525050565b600061456d82615410565b6145778185615480565b935061458781856020860161558e565b614590816156fa565b840191505092915050565b60006145a682615410565b6145b08185615491565b93506145c081856020860161558e565b6145c9816156fa565b840191505092915050565b60006145df82615410565b6145e981856154a2565b93506145f981856020860161558e565b80840191505092915050565b6000614612601a83615491565b915061461d8261570b565b602082019050919050565b6000614635602083615491565b915061464082615734565b602082019050919050565b6000614658601c83615491565b91506146638261575d565b602082019050919050565b600061467b601083615491565b915061468682615786565b602082019050919050565b600061469e600a83615491565b91506146a9826157af565b602082019050919050565b60006146c1601a83615491565b91506146cc826157d8565b602082019050919050565b60006146e4601683615491565b91506146ef82615801565b602082019050919050565b6000614707601083615491565b91506147128261582a565b602082019050919050565b600061472a600d83615491565b915061473582615853565b602082019050919050565b600061474d601583615491565b91506147588261587c565b602082019050919050565b6000614770601783615491565b915061477b826158a5565b602082019050919050565b6000614793601983615491565b915061479e826158ce565b602082019050919050565b60006147b6601483615491565b91506147c1826158f7565b602082019050919050565b60006147d9601b83615491565b91506147e482615920565b602082019050919050565b60006147fc601183615491565b915061480782615949565b602082019050919050565b600061481f602083615491565b915061482a82615972565b602082019050919050565b6000614842601283615491565b915061484d8261599b565b602082019050919050565b6000614865601683615491565b9150614870826159c4565b602082019050919050565b6000614888601c83615491565b9150614893826159ed565b602082019050919050565b60006148ab601883615491565b91506148b682615a16565b602082019050919050565b60006148ce602d83615491565b91506148d982615a3f565b604082019050919050565b60006148f1601383615491565b91506148fc82615a8e565b602082019050919050565b6000614914601b83615491565b915061491f82615ab7565b602082019050919050565b6000614937601283615491565b915061494282615ae0565b602082019050919050565b600061495a600083615475565b915061496582615b09565b600082019050919050565b600061497d600883615491565b915061498882615b0c565b602082019050919050565b60006149a0602583615491565b91506149ab82615b35565b604082019050919050565b60006149c3602c83615491565b91506149ce82615b84565b604082019050919050565b60a0820160008201516149ef6000850182614c1f565b506020820151614a026020850182614c1f565b506040820151614a1560408501826143de565b506060820151614a286060850182614c1f565b506080820151614a3b6080850182614c1f565b50505050565b600061014083016000830151614a5a6000860182614c1f565b5060208301518482036020860152614a728282614562565b91505060408301518482036040860152614a8c8282614562565b91505060608301518482036060860152614aa68282614562565b91505060808301518482036080860152614ac08282614562565b91505060a0830151614ad560a08601826143de565b5060c0830151614ae860c0860182614c1f565b5060e0830151614afb60e0860182614c1f565b50610100830151614b10610100860182614c1f565b50610120830151614b25610120860182614544565b508091505092915050565b600061014083016000830151614b496000860182614c1f565b5060208301518482036020860152614b618282614562565b91505060408301518482036040860152614b7b8282614562565b91505060608301518482036060860152614b958282614562565b91505060808301518482036080860152614baf8282614562565b91505060a0830151614bc460a08601826143de565b5060c0830151614bd760c0860182614c1f565b5060e0830151614bea60e0860182614c1f565b50610100830151614bff610100860182614c1f565b50610120830151614c14610120860182614544565b508091505092915050565b614c2881615575565b82525050565b614c3781615575565b82525050565b6000614c4982846145d4565b915081905092915050565b6000614c5f8261494d565b9150819050919050565b6000602082019050614c7e60008301846143ed565b92915050565b6000604082019050614c9960008301856143ed565b614ca66020830184614c2e565b9392505050565b6000608082019050614cc260008301876143ed565b614ccf6020830186614c2e565b614cdc6040830185614c2e565b614ce96060830184614c2e565b95945050505050565b60006020820190508181036000830152614d0c81846143fc565b905092915050565b60006020820190508181036000830152614d2e8184614471565b905092915050565b60006020820190508181036000830152614d5081846144cf565b905092915050565b6000602082019050614d6d6000830184614553565b92915050565b60006020820190508181036000830152614d8d818461459b565b905092915050565b60006040820190508181036000830152614daf818561459b565b9050614dbe60208301846143ed565b9392505050565b60006020820190508181036000830152614dde81614605565b9050919050565b60006020820190508181036000830152614dfe81614628565b9050919050565b60006020820190508181036000830152614e1e8161464b565b9050919050565b60006020820190508181036000830152614e3e8161466e565b9050919050565b60006020820190508181036000830152614e5e81614691565b9050919050565b60006020820190508181036000830152614e7e816146b4565b9050919050565b60006020820190508181036000830152614e9e816146d7565b9050919050565b60006020820190508181036000830152614ebe816146fa565b9050919050565b60006020820190508181036000830152614ede8161471d565b9050919050565b60006020820190508181036000830152614efe81614740565b9050919050565b60006020820190508181036000830152614f1e81614763565b9050919050565b60006020820190508181036000830152614f3e81614786565b9050919050565b60006020820190508181036000830152614f5e816147a9565b9050919050565b60006020820190508181036000830152614f7e816147cc565b9050919050565b60006020820190508181036000830152614f9e816147ef565b9050919050565b60006020820190508181036000830152614fbe81614812565b9050919050565b60006020820190508181036000830152614fde81614835565b9050919050565b60006020820190508181036000830152614ffe81614858565b9050919050565b6000602082019050818103600083015261501e8161487b565b9050919050565b6000602082019050818103600083015261503e8161489e565b9050919050565b6000602082019050818103600083015261505e816148c1565b9050919050565b6000602082019050818103600083015261507e816148e4565b9050919050565b6000602082019050818103600083015261509e81614907565b9050919050565b600060208201905081810360008301526150be8161492a565b9050919050565b600060208201905081810360008301526150de81614970565b9050919050565b600060208201905081810360008301526150fe81614993565b9050919050565b6000602082019050818103600083015261511e816149b6565b9050919050565b6000602082019050818103600083015261513f8184614b30565b905092915050565b600060208201905061515c6000830184614c2e565b92915050565b60006080820190506151776000830187614c2e565b61518460208301866143ed565b61519160408301856143ed565b61519e6060830184614c2e565b95945050505050565b600060e0820190506151bc600083018a614c2e565b81810360208301526151ce818961459b565b905081810360408301526151e2818861459b565b905081810360608301526151f6818761459b565b9050818103608083015261520a818661459b565b905061521960a08301856143ed565b61522660c0830184614c2e565b98975050505050505050565b600061014082019050615248600083018d614c2e565b818103602083015261525a818c61459b565b9050818103604083015261526e818b61459b565b90508181036060830152615282818a61459b565b90508181036080830152615296818961459b565b90506152a560a08301886143ed565b6152b260c0830187614c2e565b6152bf60e0830186614c2e565b6152cd610100830185614c2e565b6152db610120830184614553565b9b9a5050505050505050505050565b600060a0820190506152ff6000830188614c2e565b61530c6020830187614c2e565b61531960408301866143ed565b6153266060830185614c2e565b6153336080830184614c2e565b9695505050505050565b6000615347615358565b905061535382826155f3565b919050565b6000604051905090565b600067ffffffffffffffff82111561537d5761537c6156cb565b5b602082029050602081019050919050565b600067ffffffffffffffff8211156153a9576153a86156cb565b5b6153b2826156fa565b9050602081019050919050565b6000819050602082019050919050565b6000819050602082019050919050565b6000819050602082019050919050565b600081519050919050565b600081519050919050565b600081519050919050565b600081519050919050565b6000602082019050919050565b6000602082019050919050565b6000602082019050919050565b600082825260208201905092915050565b600082825260208201905092915050565b600082825260208201905092915050565b600081905092915050565b600082825260208201905092915050565b600082825260208201905092915050565b600081905092915050565b60006154b882615575565b91506154c383615575565b9250827fffffffffffffffffffffffffffffffffffffffffffffffffffffffffffffffff038211156154f8576154f761566d565b5b828201905092915050565b600061550e82615575565b915061551983615575565b92508282101561552c5761552b61566d565b5b828203905092915050565b600061554282615555565b9050919050565b60008115159050919050565b600073ffffffffffffffffffffffffffffffffffffffff82169050919050565b6000819050919050565b82818337600083830152505050565b60005b838110156155ac578082015181840152602081019050615591565b838111156155bb576000848401525b50505050565b600060028204905060018216806155d957607f821691505b602082108114156155ed576155ec61569c565b5b50919050565b6155fc826156fa565b810181811067ffffffffffffffff8211171561561b5761561a6156cb565b5b80604052505050565b600061562f82615575565b91507fffffffffffffffffffffffffffffffffffffffffffffffffffffffffffffffff8214156156625761566161566d565b5b600182019050919050565b7f4e487b7100000000000000000000000000000000000000000000000000000000600052601160045260246000fd5b7f4e487b7100000000000000000000000000000000000000000000000000000000600052602260045260246000fd5b7f4e487b7100000000000000000000000000000000000000000000000000000000600052604160045260246000fd5b6000601f19601f8301169050919050565b7f6465736372697074696f6e2063616e277420626520656d707479000000000000600082015250565b7f616c726561647920612075736572207769746820746869732061646472657373600082015250565b7f74686520706f73742070726963652063616e2774206265206672656500000000600082015250565b7f696e76616c69642063617465676f727900000000000000000000000000000000600082015250565b7f696e76616c696420696400000000000000000000000000000000000000000000600082015250565b7f596f752063616e277420626964206f6e20796f757220706f7374000000000000600082015250565b7f596f75206861766520746f206269642068696768657200000000000000000000600082015250565b7f706f7374207374696c6c20617469766500000000000000000000000000000000600082015250565b7f696420696e73277420676f6f6400000000000000000000000000000000000000600082015250565b7f596f7520617265206e6f7420746865206f776e65720000000000000000000000600082015250565b7f63617465676f727920616c726561647920657869737473000000000000000000600082015250565b7f4e6f207573657220776974682074686973206164647265737300000000000000600082015250565b7f6661696c656420746f2073656e64206574686572000000000000000000000000600082015250565b7f596f7520646f6e2774206861766520656e6f7567682066756e64730000000000600082015250565b7f706f737420616c726561647920736f6c64000000000000000000000000000000600082015250565b7f6e6f206f6e652077616e747320746f2062757920796f75722070726f64756374600082015250565b7f596f7520617265206e6f74206120757365720000000000000000000000000000600082015250565b7f596f75206e65656420746f2073656e6420657468657200000000000000000000600082015250565b7f706f73742068617320746f20626520706f73746564206c6f6e67657200000000600082015250565b7f696d6167652075726c2063616e277420626520656d7074790000000000000000600082015250565b7f796f752063616e2774206c6f6f6b206174207468652062616c616e6365206f6660008201527f20736f6d656f6e6520656c736500000000000000000000000000000000000000602082015250565b7f6e616d652063616e277420626520656d70747900000000000000000000000000600082015250565b7f596f7520646f6e2774206861766520656e6f756768206d6f6e65790000000000600082015250565b7f7573657220646f73656e27742065786973740000000000000000000000000000600082015250565b50565b7f6f766572666c6f77000000000000000000000000000000000000000000000000600082015250565b7f6f6e6c79207468652061646d696e2063616e2063616c6c20746869732066756e60008201527f6374696f6e000000000000000000000000000000000000000000000000000000602082015250565b7f596f75206e65656420746f207370656369667920616e20616d6f756e7420677260008201527f6561746572207468656e20300000000000000000000000000000000000000000602082015250565b615bdc81615537565b8114615be757600080fd5b50565b615bf381615575565b8114615bfe57600080fd5b5056fea2646970667358221220528692e241778eaca25773706653daf5b8d987e503221cefddd996add57f0d0a64736f6c63430008040033",
  "linkReferences": {},
  "deployedLinkReferences": {}
}